:020000040800F2
:1000000000000220619C0008B19C0008B19C00081F
:10001000B19C0008B19C0008B19C000800000000E1
:10002000000000000000000000000000B19C00087B
:10003000B19C000800000000B19C0008196900088C
:10004000B19C0008B19C0008B19C0008B19C00085C
:10005000B19C0008B19C0008A5630008B19C000891
:10006000056400082D69000839690008B19C000882
:10007000B19C0008B19C0008B19C00081164000804
:10008000B19C0008B19C0008B19C0008B19C00081C
:10009000B19C0008B19C0008B19C000845690008AB
:1000A00079670008896600088D670008B166000856
:1000B000C5660008D9660008ED660008B19C000816
:1000C000B19C0008B19C0008B19C0008B19C0008DC
:1000D000B19C0008A1750008BD750008DD75000819
:1000E0006D690008B19C0008B19C0008A167000878
:1000F0003D670008B567000865670008B19C000807
:10010000B19C0008B19C000801670008B19C000880
:10011000FD750008197600081567000829670008B2
:10012000B19C0008B19C0008B19C0008B19C00087B
:10013000B19C0008B19C0008B19C0008B19C00086B
:10014000B19C0008B19C0008B19C0008B19C00085B
:10015000B19C0008B19C0008B19C000835760008ED
:10016000B19C0008B19C0008B19C0008B19C00083B
:10017000B19C0008B19C0008B19C00080000000080
:08018000B19C0008B19C0008CD
:10018800B0F8063190F80221D8B2824227BFC2F1F6
:100198003F028018801A00F1FF307047F8B5174603
:1001A8007AB105460E46002402E00134A74208D081
:1001B8002B6816F8011B1B68284698470028F4D1BD
:1001C80027463846F8BD00BF90F8843013B9B0F917
:1001D80050007047B0F97C00704700BF90F8843039
:1001E80013B9B0F954007047B0F98000704700BFE8
:1001F80090F885300BB101207047F0B590F8A82031
:1002080085B00446002A53D00A064FD590F820201E
:10021800002A5FD101F0E003C02B00F0A18001F0BB
:10022800F003E02B00F0A48090F8E4308DB2002BAE
:100238004AD11F2D37D9237F022B76D0012B13BF2C
:100248000023082306201846627F0A2902FB03F6CA
:100258007FD094F8A330002B4FD1D4F88C3021688C
:1002680094F8A42092B10A6B4E48824240F08F80E5
:1002780094F88420002A40F08480B4F9540098420D
:10028800D6BF0023D4F88C30C4F88C30227F00927B
:100298008E6AD4F8882029462046B047D4F888309A
:1002A8001844C4F88800012005B0F0BD80F820305B
:1002B8008DB2002DF7D00D29F5D094F8E430ABB10C
:1002C8001F2D01D80A29EED123682946DB6C204668
:1002D8009847E8E7022A428C32D001F03F051543DF
:1002E800458480F82030002DE7D1DCE70A2DA0D125
:1002F800237F022B42D02025A0E7D4F8883021683C
:1003080002FB00374B6B284A934246D194F884305D
:10031800002B39D1B4F95000D4F88C308742C2BFD1
:100328009B190022C4E922239AE77F2DBBD81F4BD3
:100338002B4413F8200C063000F4FC70102383E7DC
:100348008B0103F47C6313430122438480F820204B
:10035800A9E7D4F88C3000223344C4E92223A2E769
:10036800890101F4F8610123418480F820309AE77B
:1003780009030223418480F8203094E708202025CF
:10038800DCE7B4F980007AE7B4F97C00C4E70393AA
:10039800204690472168039B71E7204698472168CB
:1003A800BAE700BFE5010008D10100081CA2000857
:1003B80000207047704700BF90F845300BBB90F89D
:1003C8004430F3B91F49204B10B401224FF4805434
:1003D80080F844208C61B3F900104B292AD0B3F976
:1003E8000C204B2A1ED0B3F918204B2A12D0B3F98F
:1003F80024204B2A06D04FF6FF725DF8044B1A866C
:1004080070477047114999624FF6FF70012298842E
:100418009A85F0E70D49D9614FF6FF7001221883DC
:100428001A84E4E7094919614FF6FF70012298819F
:100438009A82D8E7054959604FF6FF7018801A81EB
:10044800CDE700BF00040240F000002000093D0095
:100458002DE9F047204D214C4FF4001A1F464FF666
:10046800FF738846C0E916334FF020092A23C5F8E0
:1004780018A00120164684F8A03098FA98F808F0D9
:10048800F1F97FBAC5F818900420A4F8A080A4F860
:10049800A27008F0E7F92B23C5F818A0012084F80A
:1004A800A03008F0DFF9C5F81890089B76BA5BBA57
:1004B8000420A4F8A230A4F8A06008F0D3F9C5F885
:1004C80018A02C23012084F8A03008F0CBF9C5F837
:1004D8001890BDE8F08700BF00080240F000002037
:1004E80003681A6910B50446900712D5DA689107AF
:1004F8000FD5012254F8040C6FF00201196122771C
:100508009A69826F1AB1C36F7030984723680022C6
:1005180022771A69520714D5DA68500711D50222D2
:1005280054F8040C6FF00401196122779A69D0F825
:10053800882022B1D0F88C30803098472368002278
:1005480022771A69110714D5DA68120711D504221F
:1005580054F8040C6FF0080119612277DA69D0F8B1
:10056800982022B1D0F89C30903098472368002218
:1005780022771A69D00614D5DA68D10611D508226F
:1005880054F8040C6FF0100119612277DA69D0F879
:10059800A82022B1D0F8AC30A030984723680022B8
:1005A80022771A69D20702D5DA68D0071BD41A69EC
:1005B800110605D5DA68120644BF6FF080021A6189
:1005C8001A69540605D5DA68500644BF6FF0400230
:1005D8001A611A69910605D5DA68920644BF6FF068
:1005E80020021A6110BD54F8040C826E6FF00101EC
:1005F8001961002ADBD0C36E603098472368D6E7BC
:1006080010B40268136813F0010385B01AD00023F0
:1006180000931368009353680093009B90F85D1053
:100628002D4B03EB8103D3F8A81091F83D3091F8D6
:100638003E100B4303F02203222B1CD105B05DF8BA
:10064800044B7047116811F0020106D0019313683A
:10065800019353680193019BE0E7136813F00403C7
:1006680032D111680907D9D50393136803935368E6
:100678000393039BD2E790F83E30202BDED190F80D
:100688003C30012BDAD000230121036380F83C3091
:10069800C18503640369818500F15E044FF0220C73
:1006A800846280F83EC01BB1D36843F48073D36082
:1006B800536943F001035361D36843F02003D360C7
:1006C80005B05DF8044B70470291136802935368B4
:1006D8000293029BA2E700BFF0000020836B10B4D6
:1006E80019680024DC85DC840A6812F0010285B0F0
:1006F80019D003940A6803924A680392039A93F8FC
:100708005D002D4A02EB8002D2F8A80090F83D2047
:1007180090F83E00024302F02202222A1CD105B0C2
:100728005DF8044B7047086810F0020006D002928A
:100738000A6802924A680292029AE0E70A6812F08E
:10074800040231D108680007D9D500920A680092DE
:100758004A680092009AD2E793F83E20202ADED118
:1007680093F83C20012ADAD0002201201A6303F111
:100778005E04D88583F83C201A641A699C62222496
:10078800988583F83E401AB1CB6843F48073CB60F8
:100798004B6943F001034B61CB6843F02003CB6006
:1007A80005B05DF8044B704701900A6801924A68E9
:1007B8000192019AA3E700BFF000002038B5046851
:1007C800C16822698368056922F440520A4322619C
:1007D800E168C2692B43456921F416412B4321F096
:1007E8000C0113430B43E3606369816923F440738D
:1007F8000B432E4963618C4231D02D4B9C422ED045
:100808002C4B2D499B680968C3F3822C2B4B6344FE
:10081800B2F5004F93F8603021FA03F12ED1426807
:10082800274D92184FF019004FF000035B41A1FBD0
:10083800000108F071FAA5FB00325109642303FB9B
:100848001103DB003233A5FB0323C3F342121B0958
:1008580002EB011203F4F8731344A36038BD154B7F
:1008680015499B680968C3F3423C144B6344B2F5CD
:10087800004F93F8603021FA03F1D0D04368192073
:100888009A00A1FB00019B0F08F046FA0C4AA2FB54
:1008980000135B09642101FB130000013230A2FB45
:1008A80000201B0103EB5010A06038BD0010014070
:1008B8000014014000380240000000201CA200087B
:1008C8001F85EB51274B98421FD0B0F1804F10D0B5
:1008D800A3F57C4398421AD10223234A904208BFC9
:1008E80006231AD1214A904208BF0B231AD1184671
:1008F800704701231E4A904208BF0523EDD11D4AC7
:10090800904208BF0A23F2D0ECE70023F2E703F590
:100918008063984208BF032315D1174A904208BF45
:10092800072305D1154A904208BF0C23DFD005E004
:1009380002F57052904208BF08230CD1104A904229
:1009480008BF0D23D3E703F58063984218BF4FF61D
:10095800FF73CFD104230B4A904208BF0923C6D0A6
:10096800CDE700BF0000014000140040001800401F
:10097800001000400048014000040140001C0040F5
:100988000020004000440140431C0BD00B685A1C57
:1009980004D107E051F80C3F5A1C03D09842F9D112
:1009A80048687047002070476D4A036893428EB0CC
:1009B8005CD0B3F1804F2ED06A4A934264D16A4A20
:1009C80000210291116C41F002011164126C02F0D5
:1009D80002020292029A654A934264D1624A002155
:1009E8000691116C41F020011164126C02F0200292
:1009F8000692069A5E4A934264D15B4B00220B92A0
:100A08001A6C42F040021A641B6C03F040030B930B
:100A18000B9B0EB07047544A00210191116C41F0B4
:100A280001011164126C02F001020192019A514A0B
:100A38009342D0D14C4A00210591116C41F010012C
:100A48001164126C02F010020592059A4A4A934208
:100A5800D0D1454B00220A925A6C42F480225A6443
:100A68005B6C03F480230A930A9BD2E702F59C325D
:100A780000210091516C41F001015164526C02F067
:100A880001020092009AD2E73C4A934249D1364A81
:100A980000210391116C41F004011164126C02F001
:100AA80004020392039A364A93421BD12E4A00212C
:100AB8000791516C41F002015164526C02F002023C
:100AC8000792079A2F4A93421BD1274B00220C9278
:100AD8001A6C42F080021A641B6C03F080030C93BA
:100AE8000C9B96E7284A93422AD11F4A0021089175
:100AF800516C41F480315164526C02F48032089296
:100B0800089A224A934284D1174B00220D921A6CFC
:100B180042F480721A641B6C03F480730D930D9B6E
:100B280077E71B4A934282D10F4A00210491116C46
:100B380041F008011164126C02F008020492049A50
:100B4800144A934282D1084B002209925A6C42F40B
:100B580000325A645B6C03F400330993099B58E72D
:100B6800000001400004004000380240001400402A
:100B780000180040001000400048014000080040F4
:100B880000040140001C00400040014000200040DB
:100B9800000C004000440140431C4DD0294B9842B2
:100BA80048D00CD9284B984225D016D9274B9842C3
:100BB8001BD003F5806398421FD11A207047A3F514
:100BC8004063984234D01ED9214B98422AD003F56D
:100BD8008063984233D137207047A3F56443984225
:100BE80022D003F56043984201D119207047A3F53C
:100BF8006443984225D12C207047A3F5006398429E
:100C08001DD118207047A3F5006398420ED003F554
:100C18008063984201D11E207047B0F1804F0FD1F8
:100C28001C207047362070472D2070471D207047C4
:100C3800322070472B2070476FF00D007047FEE799
:100C4800FDE7FCE7001800400004014000440140B3
:100C580000100040431C51D02B4B98424CD00DD86B
:100C6800A3F58053984245D01BD9284B984239D0D8
:100C780003F5806398420ED12B207047244B98428D
:100C880036D018D9234B98422AD003F5806398426E
:100C980037D11A207047A3F50063984231D1362026
:100CA8007047A3F50063984220D003F5806398420B
:100CB8000BD11E207047A3F58043984214D003F54A
:100CC8008063984206D12E207047B0F1804F1AD128
:100CD8001C207047A3F56443984213D12D20704718
:100CE80019207047372070471B2070471D20704718
:100CF80018207047322070472C2070476FF00D0085
:100D08007047FEE7FDE7FCE7001C004000140040C8
:100D1800004001400044014000284FD090F8612075
:100D2800274B03EB8203D3F8A83093F83D2093F8C0
:100D38003E100A4302F02202222A3FD010B493F850
:100D48003E2090F86210202A24D193F83C20012AF2
:100D580020D000224FF0010C1A6383F83C20A3F83E
:100D68002EC01A641A69A3F82CC000F162044FF06F
:100D7800220C9C6283F83EC01B681AB1DA6842F400
:100D88008072DA605A6942F001025A61DA6842F008
:100D98002002DA60B0F87030B0F86C20013303F04C
:100DA8003F03934207D0B0F87020446E92B29BB2D2
:100DB800A154A0F870305DF8044B7047704700BF2D
:100DC800F0000020B0F80431B0F80001181A00F063
:100DD8003F007047B0F80431B0F800219BB293424D
:100DE8001ABFD0F8F830985C4FF0FF30704700BF5A
:100DF800037C33B1B0F80221B0F806319BB29A42B5
:100E0800FAD17047D0F8E830013310B504460FD056
:100E1800B4F80431B4F800219BB293423ED0D4F820
:100E2800F810531C03F03F03885CA4F8003110BD90
:100E380003681C4ADB6893422ED1037C33B1B0F8B7
:100E48000221B4F806319BB29A42FAD194F80C31D7
:100E5800002BDDD1D4F8E8200121013284F80C11EF
:100E6800D6D194F8F510104A02EB8102D2F8A820E6
:100E780092F83C100129CBD01068242182F83D104B
:100E8800C16821F00C0141F00401C160202182F801
:100E98003D1082F83C30BBE79847D7E74FF0FF306A
:100EA80010BD00BFF90D0008F000002000B5036870
:100EB80083B05B688DF8071001220DF10701984790
:100EC80003B05DF804FB00BF2DE9F84F9146002AF6
:100ED80079D03E4C3E4D3F4F83468846002613E06E
:100EE800BBF80421BBF8001192B28A4254D0DBF857
:100EF800F8004A1C02F03F02405CABF800210136C2
:100F0800B14508F8010B4ED0D4F8C020CBF80C201E
:100F18004FF0240ADBF800104A69AA4246D1DBF8F0
:100F2800E8200132DCD1CA68BA4245D19BF81020CA
:100F380032B1BBF80211BBF8062192B29142FAD144
:100F48009BF80C21002ACBD1DBF8E8104FF0010305
:100F580001318BF80C31C3D19BF8F51004EB8101FA
:100F6800D1F8A81091F83C000128B9D00B6881F895
:100F78003DA0D86820F00C004FF0200E40F004008F
:100F8800D86081F83DE081F83C20BBF80421BBF82B
:100F9800001192B28A42AAD1DBE90210D4F8C0202B
:100FA800121A8A42B6D33046BDE8F88F58469047A1
:100FB8000028F1DBC0B2A2E7584690479BF80C2105
:100FC800002A8DD1C0E71646EDE700BFF0000020EB
:100FD8000D0E0008F90D00082DE9F04F83B0002B25
:100FE80000F08680454C464D464F019383468A461D
:100FF8009046002616E0BBF80431BBF800119BB2FE
:101008008B4257D0DBF8F8004A1C02F03F02405CE4
:10101800ABF80021824554D0019B08F8010B01363A
:10102800B3424ED0D4F8C020CBF80C204FF024099E
:10103800DBF800205369AB4247D1DBF8E8300133D5
:10104800D9D1D368BB424CD19BF8103033B1BBF82F
:101058000221BBF806319BB29A42FAD19BF80C21C7
:10106800002AC8D14FF001038BF80C31DBF8E830C7
:101078000133C0D19BF8F53004EB8303D3F8A830D3
:1010880093F83C100129B6D0186883F83D90C168E0
:1010980021F00C0141F004014FF0200CC16083F8ED
:1010A8003DC083F83C20BBF80431BBF800119BB26B
:1010B8008B42A7D1DBE90232D4F8C0108A1A9A42CF
:1010C800B6D3304603B0BDE8F08F5846984700289D
:1010D800A0DADBE90232D4F8C0108A1A9A42A7D300
:1010E800EFE7584698479BF80C21002A83D1B9E7C7
:1010F8001E46304603B0BDE8F08F00BFF000002068
:101108000D0E0008F90D00084A2815D8164B03EBF8
:101118008000826EC2F30310082822D803EB8000F7
:10112800D0F8D40102F00F0203EB8203D3F8F831B0
:1011380001B91B048361704700F0C003C02B0A4B40
:1011480003D04FF0FF320020ECE7CF28F9D800F0A9
:101158003F0003EB8000D0F8942103EB8202926EEB
:10116800D8E70020DEE700BF1CA20008B0F8722014
:10117800B0F86E1010B5446F14FA82F202F03F0214
:10118800A0F87220B0F8722092B2914208BF0020F5
:1011980000D110BDB0F87220403192B2891AB0F86F
:1011A8007220D1F1000C0CF03F0C92B201F03F011B
:1011B800C2F1400258BFCCF10001914228BF11464C
:1011C800416706F019FC4FF0FF3010BD2DE9F84FCC
:1011D8000368714F9B68BB4204468946164640F037
:1011E800D280B0F802B1B0F806315FFA8BF1DBB209
:1011F80099422BBFC1F13F015B1A01EB030A03F1CE
:10120800FF3AD4F8E83001220133CBF1400B2274C5
:1012180000F08A80DFF8848123689B68BB4249D14B
:10122800B4F8063194F80221DBB29A422BBFC2F11E
:101238003F029B1A9B1803F1FF336BB994F8022104
:10124800C2F13F01B4F80631DBB29342A3EB0200CE
:1012580040F29E800128F5D0354611E0B4F80631F9
:10126800B4F802B1DBB25FFA8BF09842A3EB000A44
:1012780026BFC0F13F0A9A440AF1FF3ACBF1400B6E
:101288005D454946204601D8554518D9DA452368B1
:1012980028BFDA465B685246984723689B68BB427A
:1012A800A5EB0A05D144D9D020469847B4F802B135
:1012B8008246E3E7204698470028CDD1ACE7B4F84A
:1012C80002717B19402B1FD8D4F8FC002A463844F9
:1012D80008F022FD2F4694F8F53008EB8308B4F89F
:1012E8000231D8F8A8201D4405F03F05A4F80251A2
:1012F80092F83D3092F83E20134303F02103212B4E
:1013080037D13046BDE8F88FD4F8FC003844C7F12F
:1013180040073A4608F000FDD4F8FC0009EB070145
:10132800EA1B08F0F9FCD6E794F80C31DFF86C807A
:10133800002B3FF471AF94F8F53008EB83030022DB
:10134800D3F8A83084F80C2193F83C1001293FF415
:1013580063AF1868242183F83D10C16821F00C019F
:1013680041F00801C16083F83C20202283F83D2029
:1013780052E704F19400C4F80871394606F03CFBC2
:101388003046BDE8F88F9847B4F802B1824638E78E
:10139800D9423FF457AF5FE789010008F000002009
:1013A8002DE9F047984682B090F885300A9F002BC7
:1013B80040F08880456FC36E0D449D42044680F21C
:1013C8008180866F006F164486427BDA626E954292
:1013D80002DAAD1AA8441546A16E8E4275DB05EBFC
:1013E800080206EB07099342B8BFA3EB0508484576
:1013F800BCBF871B8146B8F1000F63DD002F61DD9C
:1014080094F84430002B64D109F1FF33009323682A
:101418003246DE6B05EB0803013B29462046B04700
:101428000B9B07FB08F198B207F0BCF894F845301D
:10143800002B47D194F84430002B43D1DFF83CA16E
:101448004B49BAF9002001234FF480504B2A84F805
:101458004430886108D1474ACAF804204FF6FF7122
:10146800AAF80010AAF80830BAF90C304B2B09D1A9
:10147800404ACAF810204FF6FF710123AAF80C1051
:10148800AAF81430BAF918304B2B09D1394ACAF8DE
:101498001C204FF6FF710123AAF81810AAF8203073
:1014A800BAF924304B2B09D1324ACAF828204FF612
:1014B800FF710123AAF82410AAF82C304FF6FF7305
:1014C800AAF8303002B0BDE8F087761A37440E46E5
:1014D80085E7DFF8A8A0BAF9002000234B2A84F892
:1014E80044301CD0BAF90C104B2933D0BAF9180083
:1014F8004B2832D0BAF924C0BCF14B0F30D001329E
:1015080020D001312FD001302FD0BCF1FF3F08BFD0
:10151800032218D0164B4FF080529A6174E71A468E
:1015280013440AEB830C1448CCF804000122002170
:10153800ACF808208CF80A1006F00CFC4B23AAF82B
:101548003030E7E71A4602EB42034B212AF8231012
:101558005300E5E701220223E2E702220423DFE742
:1015680003220623DCE70122EDE70222EBE700BFB6
:101578000004024000093D0080DE8002F0000020E7
:1015880090F8443003B9704710B5284CB4F90020DE
:1015980000234B2A80F8443038D0B4F90C104B297A
:1015A80036D0B4F918004B2835D0B4F924C0BCF1B2
:1015B8004B0F33D001320DD0013132D0013032D04F
:1015C800BCF1FF3F08BF032205D0194B4FF08052F2
:1015D8009A6110BD1A4602EB42034B2124F82310EE
:1015E8005300134404EB830C01221248ACF8082082
:1015F8000021CCF804008CF80A1006F0ABFB4B2352
:1016080023860B4B4FF080529A6110BD1A46E8E7CB
:1016180001220223E5E702220423E2E7032206234C
:10162800DFE70122D7E70222D5E700BFF00000205C
:101638000004024080DE80022DE9F043044690F861
:10164800850083B000287AD1656F1F46636E0D440C
:101658009D4274DBE36E9D4271DAA66F236F1644D8
:101668009E426CDAA16E8E4202DA761A37440E4632
:1016780006EB07084345BCBF9F1B9846002F5EDD5D
:1016880094F84430002B5DD108F1FF3300932368B0
:1016980032462946DE6B20462B46B0470A9B394620
:1016A80098B206F07FFF94F84530002B47D194F8A4
:1016B8004430002B43D1DFF834914949B9F900206F
:1016C80001234FF480504B2A84F84430886108D1B4
:1016D800444AC9F804204FF6FF71A9F80010A9F888
:1016E8000830B9F90C304B2B09D13E4AC9F8102003
:1016F8004FF6FF710123A9F80C10A9F81430B9F9B5
:1017080018304B2B09D1374AC9F81C204FF6FF7106
:101718000123A9F81810A9F82030B9F924304B2B67
:1017280009D1304AC9F828204FF6FF710123A9F8DA
:101738002410A9F82C304FF6FF73A9F8303003B005
:10174800BDE8F083DFF8A490B9F9002000234B2A04
:1017580084F8443035D0B9F90C104B2933D0B9F995
:1017680018004B2832D0B9F924C0BCF14B0F30D047
:1017780001320DD001312FD001302FD0BCF1FF3F05
:1017880008BF032205D0164B4FF080529A617BE7C1
:101798001A4602EB42034B2129F823105300134445
:1017A80009EB830C1048CCF8040001220021ACF8A6
:1017B80008208CF80A1006F0CDFA4B23A9F830302F
:1017C800E1E71A46EBE701220223E8E702220423B5
:1017D800E5E703220623E2E70122DAE70222D8E757
:1017E8000004024000093D0080DE8002F000002075
:1017F8002DE9F043044690F8850083B0002879D19C
:10180800A56F1F46A36E15449D4273DB666FE26E9B
:101818000E4496426EDA236F9D426BDA636E9E42E7
:1018280002DAF61A37441E4606EB07094A45BCBFDA
:10183800971B9146002F5DDD94F84430002B5CD156
:10184800009520682A4609F1FF33C56B31462046CA
:10185800A8470A9B394698B206F0A4FE94F845308A
:10186800002B47D194F84430002B43D1DFF8348162
:101878004949B8F9002001234FF480504B2A84F8D5
:101888004430886108D1454AC8F804204FF6FF71F2
:10189800A8F80010A8F80830B8F90C304B2B09D17B
:1018A8003E4AC8F810204FF6FF710123A8F80C1023
:1018B800A8F81430B8F918304B2B09D1374AC8F8B2
:1018C8001C204FF6FF710123A8F81810A8F8203043
:1018D800B8F924304B2B09D1304AC8F828204FF6E4
:1018E800FF710123A8F82410A8F82C304FF6FF73D5
:1018F800A8F8303003B0BDE8F083DFF8A880B8F965
:10190800002000234B2A84F8443035D0B8F90C1055
:101918004B2933D0B8F918004B2832D0B8F924C075
:10192800BCF14B0F30D001320DD001312FD0013036
:101938002FD0BCF1FF3F08BF032205D0164B4FF054
:1019480080529A617CE71A4602EB42034B2128F841
:1019580023105300134408EB830C1148CCF80400FF
:1019680001220021ACF808208CF80A1006F0F2F9E0
:101978004B23A8F83030E1E71A46EBE701220223AF
:10198800E8E702220423E5E703220623E2E701222F
:10199800DAE70222D8E700BF0004024000093D0050
:1019A80080DE8002F00000202DE9F8430446406FF5
:1019B8000E18616E8E42C0F2A480A56F9846A36E81
:1019C80015449D42C0F29D80E36E9E4280F299804C
:1019D800236F9D4280F2958094F84430002B40F0AC
:1019E80092806E4FE36D9E4217D0DFF8B4914FF4AA
:1019F8000013C9F8183001202A2387F8A03006F010
:101A080031FF2023C9F81830042073BAA7F8A23090
:101A1800A7F8A03006F026FFE665A36D9D4214D016
:101A28005F4E4FF40013B36101202B2387F8A030D9
:101A380006F018FF2023B36104206BBAA7F8A23080
:101A4800A7F8A03006F00EFFA565554D4FF400131A
:101A5800AB6101202C2387F8A03006F003FF202378
:101A68004FEA18214FEAD802AB6121F007014FEA8B
:101A7800C80322F00302032087F8A23087F8A010D9
:101A880087F8A12006F0EEFE94F84530002B38D1F7
:101A980094F84430002B34D1B7F900204149012390
:101AA8004FF480504B2A84F84430886105D13E4A6F
:101AB8007A604FF6FF7139803B81B7F90C304B2BB8
:101AC80006D1394A3A614FF6FF710123B981BB82C9
:101AD800B7F918304B2B06D1334AFA614FF6FF712C
:101AE800012339833B84B7F924304B2B06D12E4A86
:101AF800BA624FF6FF710123B984BB854FF6FF73B5
:101B08003B86BDE8F883254FB7F9002000234B2A10
:101B180084F8443035D0B7F90C304B2B33D0B7F9B3
:101B280018104B2932D0B7F924004B280ED00132B7
:101B38001FD001332DD001312DD0013008BF032231
:101B480018D0184B4FF080529A614BE703220623B6
:101B5800134407EB830C1548CCF80400012200213C
:101B6800ACF808208CF80A1006F0F4F84B233B86F2
:101B7800E7E7002202EB42034B2127F8231053002A
:101B8800E6E71A46E4E701220223E1E702220423FA
:101B9800DEE70122EEE70222ECE700BFF0000020BA
:101BA800000802400004024000093D0080DE800277
:101BB80010B490F8854014B95DF8044BF4E65DF86C
:101BC800044B70472DE9F0430446406F0E18616ED0
:101BD8008E4283B049DB1F46E36E9E4245DAA56F0D
:101BE800236F15449D4240DAA16E8D4240DB05EB20
:101BF80007084345BCBF5F1B9846002F35DD94F8A6
:101C08004430002B38D108F1FF33009323682A466B
:101C18003146DD6B20463346A8470A9B394698B2C1
:101C280006F0C0FC94F84530FBB994F84430E3B9A9
:101C3800DFF844914D49B9F9002001234FF4805051
:101C48004B2A84F8443088613CD0B9F90C304B2BCE
:101C58004DD0B9F918304B2B3ED0B9F924304B2B65
:101C680050D04FF6FF73A9F8303003B0BDE8F083C9
:101C78006D1A2F440D46BAE7DFF8FC90B9F9002039
:101C880000234B2A84F8443060D0B9F90C104B2952
:101C98005ED0B9F918004B285DD0B9F924C0BCF161
:101CA8004B0F5BD001325CD001315CD0013034D0B5
:101CB800BCF1FF3F08BF032230D02C4B4FF08052BD
:101CC8009A61A0E72A4AC9F804204FF6FF71A9F8DB
:101CD8000010A9F80830B8E7254AC9F81C204FF6C3
:101CE800FF710123A9F81810A9F82030B5E7204A98
:101CF800C9F810204FF6FF710123A9F80C10A9F8B4
:101D08001430A6E71A4AC9F828204FF6FF710123B4
:101D1800A9F82410A9F82C30A3E7022202EB420309
:101D28004B2129F823105300134409EB830C114865
:101D3800CCF8040001220021ACF808208CF80A1025
:101D480006F008F84B23A9F83030B6E71A46EBE757
:101D580001220223E8E702220423E5E703220623FF
:101D6800E2E71A46DAE70122D8E700BF000402409A
:101D780000093D0080DE8002F00000202DE9F043DC
:101D88000446806F1618A26E964283B048DB656FD2
:101D9800E26E0D44954243DA1F46236F9E423FDAB6
:101DA800636E9D423FDB05EB07094A45BCBF571BE5
:101DB8009146002F34DD94F84430002B37D100963B
:101DC8002068294609F1FF33C56B32462046A847EB
:101DD8000A9B394698B206F0E5FB94F84530FBB902
:101DE80094F84430E3B9DFF844814D49B8F900204C
:101DF80001234FF480504B2A84F8443088613CD04A
:101E0800B8F90C304B2B4DD0B8F918304B2B3ED0CD
:101E1800B8F924304B2B50D04FF6FF73A8F8303068
:101E280003B0BDE8F083ED1A2F441D46BBE7DFF889
:101E3800FC80B8F9002000234B2A84F8443060D095
:101E4800B8F90C104B295ED0B8F918004B285DD0B2
:101E5800B8F924C0BCF14B0F5BD001325CD0013122
:101E68005CD0013034D0BCF1FF3F08BF032230D032
:101E78002B4B4FF080529A61A1E72A4AC8F80420F8
:101E88004FF6FF71A8F80010A8F80830B8E7254AFF
:101E9800C8F81C204FF6FF710123A8F81810A8F8FD
:101EA8002030B5E71F4AC8F810204FF6FF7101230C
:101EB800A8F80C10A8F81430A6E71A4AC8F8282081
:101EC8004FF6FF710123A8F82410A8F82C30A3E7D7
:101ED800022202EB42034B2128F82310530013443B
:101EE80008EB830C1048CCF8040001220021ACF860
:101EF80008208CF80A1005F02DFF4B23A8F8303085
:101F0800B6E71A46EBE701220223E8E70222042398
:101F1800E5E703220623E2E71A46DAE70122D8E7D3
:101F28000004024000093D0080DE8002F00000202D
:101F38002DE9F04F1F4685B090F885300E9C002B98
:101F480040F0A680A51AA7EB010A0123164680F8DF
:101F5800453085EAE5728AEAEA73A2EBE572A3EBFB
:101F6800EA739A42814600F396801546B9420BDD22
:101F7800351BB446002D264664468C46A1EB070A5D
:101F8800B8BF6D4239466746B442D4BF4FF0FF3000
:101F980001209A4203904FEA6A0440F395808F42E9
:101FA80036DB01F1010800230A46B34604E0464641
:101FB800B74208F1010820DB641B03F10103F6D5E1
:101FC800012B71D0D9F800606E49F6698E4240F055
:101FD800C38099F885602EB90F99009148465946F3
:101FE800FFF7F0FD039B4646B7429B4442465444E4
:101FF8004FF0000308F10108DEDA114643B10F9AE9
:102008000092D9F800400A46E46959464846A04774
:1020180099F8463089F84530002B39D199F8443081
:10202800002B35D15849594B01224FF4805489F877
:1020380044208C61B3F900104B2905D154495960EB
:102048004FF6FF7018801A81B3F90C204B2A06D17D
:102058004F4919614FF6FF70012298819A82B3F9AE
:1020680018204B2A06D14A49D9614FF6FF70012240
:1020780018831A84B3F924204B2A06D1444999625B
:102088004FF6FF70012298849A854FF6FF721A86E0
:1020980005B0BDE8F08FBE468C4627463146AA46B5
:1020A800744666461D4661E7D9F800301E69394B0B
:1020B8009E425DD199F88530002B93D10F9B5946EC
:1020C8004846FFF771FC8DE78F42A1DB01F101085B
:1020D8000023B34604E04646B74208F101081FDB77
:1020E800641B03F10103F6D5012B25D0D9F8006054
:1020F800294A366A964235D199F885602EB90F9AE1
:10210800009248465A46FFF739FE039B4646B742B7
:102118009B44414654444FF0000308F10108DFDABC
:10212800002B3FF475AF0F9A0092D9F800405A4639
:10213800246A4846A0476BE7D9F800301E69154B5A
:102148009E421AD199F88530002BDED10F9B5A4652
:102158004846FFF729FCD8E70F99009148465946A9
:10216800B0473FE70F9A009248465A46B047CCE737
:102178000F9B59464846B04734E70F9B5A46484696
:10218800B047C2E74116000800040240F0000020F2
:1021980000093D00B91B0008F91700082DE9F04FA8
:1021A80004462DED048BD4F89830E2682669084679
:1021B800D4F8881093B08B4218BFC4E925112028A1
:1021C800059204D800F059830A2800F07983B4F8FE
:1021D800B870002F00F08882D4F8C8304FF000099A
:1021E800023B06E009F101091FFA89F2974240F221
:1021F8007B8233F8022F82424FEA4905F2D194F8E4
:10220800A3309BB3D4F8D030D4F8DC2013F80930CD
:1022180012F90970784A0B441F4423685B6B934298
:1022280040F0698494F88430002B40F05D84B4F960
:10223800500087421ADDD4F88C30B4F8BA7094F89C
:10224800A41000223B44C4F88C30C4F88820C4F899
:102258009420002940F0C5829BB2D4F8DC1011F913
:10226800092052424944C4F888200DE094F8A4306B
:10227800002B40F0B282B4F88C30D4F88820002AC1
:10228800EBD0D4F8DC10494491F900100A44B4F8B2
:10229800C2100B4498B2D4F8D83010905B5B1193FD
:1022A800C31AD4F8B400039098B21BB20E9394F8F2
:1022B80044100D9093B2069313B20793002940F08F
:1022C800B78394F8B03040F20112A4F84520002BEF
:1022D80000F09683D4F8D430D4F89410D4F8882039
:1022E80013F80930521A134418B200280F9040F31B
:1022F800F883D4F8D8305A5BB4F8C2309B1A1BB2B2
:10230800002B0BDD00932368226901925D6AD4F8E3
:102318008C2003462046A847D4F89410079A8A428E
:102328000EDD23690193D4F8CC3013F809300093FB
:10233800236820465D6A531A0E9AA847D4F8941069
:10234800079BD4F888208B42BDBF069BCB1A1BB2D3
:1023580000230C93D4F8D03013F80910079B1944C4
:10236800D4F8D43013F80930134499420CDA2269AE
:102378000192D4F8CC2012F80920009222685B1A46
:10238800556A0E9A2046A847D4F8CC0010F80930B0
:10239800002B00F03281059ACDF81090C2F3852306
:1023A80003F03E0301330993C2F30B1303F07E03DA
:1023B80001330A93530003F03E0301330B93079B49
:1023C8000E9A4FEA890109EE103A08EE103A89464A
:1023D800D4F8D0300499595C1FFA86FB4FF0000AF4
:1023E800002900F006810D9B534400259BB208EE9E
:1023F800903AA846029581E0D1010008B8F1000F93
:1024080013D02368B0491B6A8B421E4640F0C8822D
:1024180094F885304BB919EE101ACDF800B0434640
:1024280020460892FFF7AAFC089A029BFF2F00F0AB
:102438006E82BBB1012B236800F09282D3F8208012
:10244800A149BDF81430884540F0B48294F885104D
:1024580041B9009318EE101A029B02922046FFF72A
:102468008DFC029A236C43B10292069A501918EE19
:10247800901A80B29847029A83464FEA1B10C7F118
:10248800FF030A99099E00F07E0000FB033001FB60
:1024980007004FEA9B2101F03E0101FB033107FBD6
:1024A800061140124001491240EAC1214FEA4B008F
:1024B80000F03E0000FB03330B9800FB073741EAAE
:1024C8006727216881480E6907998642BBB229446B
:1024D80040F0398294F88500002840F02B8280462D
:1024E80020460892FFF760FA049AD4F8D030CDF865
:1024F8000880995C089A0135A9423DDDD4F8E0309E
:1025080053F80900039B2B4401FB0A331F5C002F7F
:102518007FF474AF029EBEB123686B481F6ABDF892
:102528001430874240F02F8294F8850060B918EE85
:10253800101A0093204633460292FFF71FFC049AB4
:10254800D4F8D030995C029A94F8B060002E00F06C
:10255800DC810C9BAB4200F3EA81B8F1000F04D197
:10256800069B2B441BB209EE103A01350023A94201
:1025780008F101080293C1DC029E9EB1236852490A
:102588001D6ABDF814308D4240F0278294F88510FA
:1025980041B9009318EE101A334620460292FFF70D
:1025A800EDFB029AB8F1000F12D023681D6A464B62
:1025B8009D4240F0088294F885304BB919EE101A04
:1025C800CDF800B0434620460292FFF7D7FB029AA7
:1025D800D4F8CC00049BC35C0AF1010A9A4580F246
:1025E8000582D4F8D0300499595C013200297FF46F
:1025F800FAAEDDF8109010F809300F98C8B1B4F8A9
:10260800BA10D4F88C200A44119911440A4610993A
:10261800521AD21A12B2002A0BDD00920E9A2569BC
:10262800D4F894101A44034620680195456A204658
:10263800A847D4F8D420D4F8883012F80900227AB0
:1026480000210344C4F88830A4F8451022B1204F73
:1026580097F81521032AFBD094F84420002A40F06B
:10266800B5801B4F1B48B7F9001001224FF4805565
:102678004B2984F84420856105D14FF6FF713980D4
:10268800154979603A81B7F90C204B2A06D14FF6E3
:10269800FF721149BA8101223961BA82B7F918204B
:1026A8004B2A06D14FF6FF720B493A830122F96192
:1026B8003A84B7F924204B2A12D14FF6FF72064903
:1026C800BA8401220AE000BFF9170008B91B000804
:1026D800F00000200004024000093D00B962BA85FC
:1026E8004FF6FF723A8671E0D4F88C30B4F8C250D5
:1026F800DFF838B3B4F9BE60BDF81490B4F8BCA0E4
:102708001D442368D3F820800122D84584F8452049
:10271800A5EB060740F0D08194F885205AB95346B6
:10272800CDF800903A4620460291FFF727FB236830
:102738000299D3F82080D84505F1FF3240F0C881CE
:1027480094F88500002840F09A815346CDF800900F
:1027580020460291FFF712FB23680299DD69B31E38
:10276800AC4EB54207F1010240F0918194F8850022
:10277800002840F09781CDF800902046CDE903234A
:102788000291FFF71FFADDE90212049B2068C56970
:102798005144B54201F1FF3140F0898194F8850038
:1027A80020B9CDF800902046FFF70CFA94F846308F
:1027B80084F8453013B994F844303BB3B4F8BC30CE
:1027C800D4F8882001331344C4F88830C4E9253389
:1027D80013B0BDEC048BBDE8F08FD4F88C30B4F89E
:1027E800BA708D4A1F4423681B6B934240F087815F
:1027F80094F88430002B40F07B81B4F95400874270
:10280800FFF639AD0023C4F88C3036E5834F844990
:10281800B7F9002001234FF480504B2A84F8443044
:10282800886105D17F4A7A604FF6FF7139803B8114
:10283800B7F90C304B2B06D17A4A3A614FF6FF7143
:102848000123B981BB82B7F918304B2B06D1754AE1
:10285800FA614FF6FF71012339833B84B7F92430BD
:102868004B2B06D16F4ABA624FF6FF710123B98428
:10287800BB854FF6FF733B86A0E794F8B0309BB159
:10288800B4F8BC30D4F894002268B6B201960B4470
:10289800B4F8BA100091556AD4F88C2001461B1A76
:1028A8002046A847D4F88810B4F8BC301944C4E9C5
:1028B8002511C4F8881013B0BDEC048BBDE8F08F67
:1028C800D4F88C10B4F8BA5094F8A42000230D441E
:1028D800C4E92533C4F88830C4F88C50002A3FF482
:1028E80077AF23684C4A1B6B934240F0268194F8DB
:1028F8008430002B40F01E81B4F954008542FFF665
:1029080067AF0023C4F88C3062E70296F3E523B979
:10291800069B2B441BB208EE103A029B0499013324
:102928000293D4F8D0304FF00008595CE3E5002357
:102938000293E0E5D4F8D03004994FF00008595CD0
:10294800CDF80880D7E508922046B047049AD4F815
:10295800D0304FF00008995CCDF80880089ACAE595
:102968001E693149BDF814308E4242D194F8851061
:1029780000297FF477AD18EE101A20460292FFF76F
:1029880013F8029A6EE518EE101A00932046029B7F
:102998000292B847049AD4F8D030995C029AD3E5E9
:1029A800089219EE101ACDF800B043462046B047F9
:1029B800089A3AE5009318EE101A029B02922046F4
:1029C800C047029A4EE5029219EE101ACDF800B0EF
:1029D80043462046A847029AFAE50093029218EE69
:1029E800101A33462046A847029ADBE5DDF8109016
:1029F80003E6029218EE101A2046B047029A31E513
:102A0800D4F8CC0010F80920002A3FF412AE0F9336
:102A18000C93C0E441160008E5010008F00000200E
:102A28000004024000093D00B91B0008F91700081E
:102A38004A4FB7F9000000234B2884F8443000F0CF
:102A48008A80B7F90C104B2900F08280B7F918205A
:102A58004B2A7AD0B7F924C0BCF14B0F72D00130A1
:102A680051D001314ED001326AD0BCF1FF3F08BFCE
:102A7800032348D03A4B4FF080529A6121E4DD6934
:102A8800B31E384EB54207F101023FF48FAECDE9CF
:102A980003230291CDF800902046A847DDE90323DF
:102AA800029973E6B5423FF481AE51440139CDF83D
:102AB80000902046A84779E653460291CDF8009049
:102AC8003A462046C04723680299D3F8208032E668
:102AD80053460291CDF800902046C04723680299DA
:102AE8003CE600230F9319E4B4F97C00FFF7A1BB7F
:102AF800B4F9800083E620469847FFF79ABB204642
:102B080098477CE6012303EB43024B2127F8221068
:102B18005A00134407EB830C1348CCF80400012235
:102B28000021ACF808208CF80A1005F013F94B23A3
:102B38003B869FE7B4F98000E0E620469847DDE64B
:102B48000223E0E703230622E3E702230422E0E767
:102B580001230222DDE71A46DBE700BFF000002070
:102B6800000402404116000880DE80022DE9F0478B
:102B78001F46436FCE18C36E82B09E42DDF8288090
:102B880058DA856F0446006F1544854252DA626E42
:102B9800964202DAB61A37441646A16E8D4202DA18
:102BA8006D1AA8440D46F21905EB08099342B8BFFF
:102BB8009F1B4845BCBFA0EB05088146002F39DDA7
:102BC800B8F1000F36DD94F84430B3BB09F1FF3398
:102BD800009323682A46DD6BF319013B31462046F2
:102BE800A8470B9B08FB07F198B205F0DBFC94F8AB
:102BF8004530FBB994F84430E3B9DFF83CA14B49C0
:102C0800BAF9002001234FF480504B2A84F844304D
:102C1800886159D0BAF90C304B2B4AD0BAF9183020
:102C28004B2B3BD0BAF924304B2B2CD04FF6FF73EB
:102C3800AAF8303002B0BDE8F087DFF8FCA0BAF996
:102C4800002000234B2A84F8443060D0BAF90C10D5
:102C58004B295ED0BAF918004B285DD0BAF924C0C8
:102C6800BCF14B0F5BD0013238D001315AD0013062
:102C78005AD0BCF1FF3F08BF032230D02B4B4FF096
:102C880080529A61A2E72A4ACAF828204FF6FF71B3
:102C98000123AAF82410AAF82C30C7E7244ACAF856
:102CA8001C204FF6FF710123AAF81810AAF820304B
:102CB800B8E71F4ACAF810204FF6FF710123AAF897
:102CC8000C10AAF81430A9E7194ACAF804204FF6DC
:102CD800FF71AAF80010AAF808309BE71A4602EB21
:102CE80042034B212AF82310530013440AEB830CA8
:102CF8001048CCF8040001220021ACF808208CF818
:102D08000A1005F027F84B23AAF83030B6E71A4620
:102D1800EBE701220223E8E702220423E5E7032286
:102D28000623E2E70122DAE70222D8E7000402409C
:102D380000093D0080DE8002F00000202DE9F04F00
:102D48001F468BB090F885309DF85850CDE9032187
:102D58000446002B40F0DC801F2F40F2D980436FDF
:102D680001EB0308C36E984580F2D2801046A26F2B
:102D780000EB0209226F914580F2CA80606E06213D
:102D880011FB0586864240F3C380D4F868C0082644
:102D980016FB059EE64540F3BB808045C0F2BB802C
:102DA800607F11FB00818B4240F3B580E145C0F2A2
:102DB800B28016FB0090824240F3AD80012D40F0B6
:102DC800AA80DDE91423934200F0A58094F84430EA
:102DD800A04E002B40F04A81236809F107020092B7
:102DE800D3F83CA04A46204608F105034146D0479F
:102DF80007EB8707984B0594D8590890DA19344699
:102E080013798DF82430159B4FEA132A4FEAD3091A
:102E18004FEAC308149B4FEA132B0BF0F8030293F5
:102E2800149BDA08DB00DBB202F0FC0203930823F0
:102E38000AF0F80A09F0FC095FFA88F804930DF122
:102E48002507934608AE234634461E4614F8011B50
:102E5800294200F0F480029B86F8A030039B86F894
:102E6800A1B086F8A230032005F0FCFCBC42EDD1ED
:102E780086F8A0A086F8A19086F8A280032005F025
:102E8800F1FC049B5A1E6D0012F0FF033446EDB2AC
:102E98000493D7D1059C94F84530002B38D194F889
:102EA8004430002B34D1B6F900206C4901234FF48B
:102EB80080504B2A84F84430886105D1684A726092
:102EC8004FF6FF7131803381B6F90C304B2B06D1A8
:102ED800634A32614FF6FF710123B181B382B6F9BB
:102EE80018304B2B06D15E4AF2614FF6FF71012371
:102EF80031833384B6F924304B2B06D1584AB26259
:102F08004FF6FF710123B184B3854FF6FF73338603
:102F18000BB0BDE8F08F504BDFF84CA1DDF81090F6
:102F280007EB87073B440593012384F845300023CA
:102F38000293A346029B052B16BF059A0027D75C70
:102F4800012D03D1DDE9142393422CD0DDF80C8048
:102F5800082617E0DBF800305C6A54455DD19BF821
:102F6800853043B9149BCDE9005342462B46494668
:102F78005846FFF7FBFD013E16F0FF064FEA5707DC
:102F8800A84436D0FB07E5D4DDE914239342F2D0F8
:102F9800DBF800305C6A544548D19BF88530002B3B
:102FA800E9D1159BDFE7039B049907951A4603F1BE
:102FB8000804029B03EB01084146DDF850801646E1
:102FC8002546FA070FD5DBF800301C69254B9C42D3
:102FD8002ED19BF8853033B9434632465846069180
:102FE800FEF7E2FC06990136B5424FEA5707E8D1E9
:102FF800079D029B0133062B0293A9449AD19BF8A3
:1030080046308BF845305C46002B81D19BF8443024
:10301800002B7FF47DAF0F4E45E7149BCDE900539D
:1030280042462B4649465846A047A4E7159BF5E774
:103038000691324643465846A0470699D3E786F894
:10304800A0A086F8A19086F8A280032005F00AFCCB
:103058000CE700BFF000002054A400080004024060
:1030680000093D00B91B0008A9130008B6F900C003
:103078000023BCF14B0F84F8443020D0B6F90C0083
:103088004B282ED0B6F918104B292CD0B6F924208D
:103098004B2A30D0BCF1FF3F0BD0013025D0013195
:1030A80006D0013224D0154B4FF080529A6193E636
:1030B80002231A460C2101FB02F24B21B15203EB09
:1030C800430306EB830C0E48CCF8040001220021D0
:1030D800ACF808208CF80A1004F03CFE4B23338629
:1030E800E1E72B46EBE70223E9E72B462A46E1E72F
:1030F80003231A46DEE70323E1E700BF000402408A
:1031080080DE80022DE9F04F8BB004469DF85070A8
:103118000492022F98463AD00023CDE9053308934C
:103128009B461846049B656F616EA66F1D44637FBE
:1031380000FB03508842464402DBE26E954208DBFE
:10314800059A02FB036EA26E964508DB226F964233
:1031580005DA8D420ADA4FF0010C022F26D0089AC0
:1031680013FB02F318B20BB0BDE8F08FE16E884292
:10317800F1DAA16E8E42EEDB059A216F02FB036C39
:103188008C45B4BF4FF0000C4FF0010CE5E7203937
:10319800234B89B2102205925A5C069203EB8101F7
:1031A80093B2D1F834B708931046BBE7069AD4E92E
:1031B800030102F1060E4FEAEE028842039202D0A2
:1031C800012B00F0A182059A012584F84550002AB8
:1031D80000F044820022DFF84C90079205464246F0
:1031E8008D4214D0256806986D6A4D4503FB00F69C
:1031F80040F0278294F885504DB9CDE9003120463A
:10320800334604990992FFF7B1FC637F099A039941
:10321800002900F06C8104990026CF1DA246BEE06B
:103228001CA20008A9130008049906FB03F8280645
:1032380001EBC80800F16881690615D5DAF80010B5
:10324800DAF80C004C6A4C4508EB030140F0B781F2
:103258009AF8854044B9CDE9003050460992FFF705
:1032680085FC9AF81D30099AAC0615D5DAF80010D5
:10327800DAF80C004C6A4C4508EB430140F07B81BE
:103288009AF8854044B9CDE9003050460992FFF7D5
:103298006DFC9AF81D30099AE80616D5DAF8001080
:1032A800DAF80C004C6A03214C4511FB038140F00D
:1032B8006B819AF8854044B9CDE9003050460992AF
:1032C800FFF754FC9AF81D30099A290715D5DAF842
:1032D8000010DAF80C004C6A4C4508EB830140F00A
:1032E8005C819AF8854044B9CDE90030504609928E
:1032F800FFF73CFC9AF81D30099A6C0716D5DAF8E6
:103308000010DAF80C004C6A05214C4511FB0381CA
:1033180040F04C819AF8854044B9CDE900305046D8
:103328000992FFF723FC9AF81D30099AA80716D5C9
:10333800DAF80010DAF80C004C6A06214C4511FB4B
:10334800038140F00F819AF8854044B9CDE90030F7
:1033580050460992FFF70AFC9AF81D30099AE907C6
:1033680016D5DAF80040DAF80C50646A07214C45A3
:1033780011FB038140F02C819AF8854044B9CDE9CE
:10338800003550460992FFF7F1FB9AF81D30099A6B
:1033980003990136B14207F1080700F0A78016F833
:1033A8000B50002DF4D0012B7FF43EAF2806A7F177
:1033B800070100F1C380690612D5DAF80030A64883
:1033C8001C69DAF80C308442A7F1060140F0138139
:1033D8009AF8854024B950460992FEF7E5FA099A09
:1033E800AB0612D5DAF800309B481C69DAF80C30C5
:1033F8008442A7F1050140F017819AF8854024B965
:1034080050460992FEF7D0FA099AEC0612D5DAF876
:10341800003091481C69DAF80C308442A7F10401A5
:1034280040F0EE809AF8854024B950460992FEF79C
:10343800BBFA099A280712D5DAF8003086481C69C1
:10344800DAF80C308442A7F1030140F0DE809AF8E4
:10345800854024B950460992FEF7A6FA099A6907E9
:1034680012D5DAF800307C481C69DAF80C3084424E
:10347800A7F1020140F0CE809AF8854024B9504661
:103488000992FEF791FA099AAB0712D5DAF80030DB
:1034980071481C69DAF80C30844207F1FF3140F0BA
:1034A800BE809AF8854024B950460992FEF77CFA06
:1034B800099AEC073FD5DAF8003067491C69DAF851
:1034C8000C308C4240F0B5809AF8851099BB39468B
:1034D80050460992FEF768FA03999AF81D30099A3E
:1034E8000136B14207F108077FF459AF54460398F3
:1034F8000799834405980131884207911A4400F0DE
:10350800AD80D4E903516BE6DAF800104C6ADAF8BA
:103518000C104C4565D19AF88540002C7FF48CAE90
:10352800CDE90031504641460992FFF71FFB9AF852
:103538001D30099A80E69AF81D3029E7DAF800303C
:1035480045481C69DAF80C30844240F0D8809AF873
:103558008540002C7FF42FAF50460992FEF724FADD
:10356800099A28E7CDE9003009925046A0479AF811
:103578001D30099AF3E6CDE9003009925046A0477C
:103588009AF81D30099A87E6CDE90030099250462D
:10359800A0479AF81D30099A97E6CDE900300992BC
:1035A8005046A0479AF81D30099AA6E6CDE90030A2
:1035B80009925046A0479AF81D30099AB6E6CDE917
:1035C800003009925046A0479AF81D30099A4BE6F8
:1035D800CDE9003509925046A0479AF81D30099A5E
:1035E800D6E6CDE90031099241465046A0479AF8FF
:1035F8001D30099A20E609925046A047099AEFE63D
:1036080009925046A047099A14E709925046A047E4
:10361800099A24E709925046A047099A34E7099283
:103628005046A047099A44E709925046A047099A8C
:10363800EBE6099239465046A0479AF81D30099A98
:10364800A6E6CDE900310992334604992046A847F9
:10365800637F099ADBE500BFB91B000894F8462090
:1036680084F84520002A7FF47AAD94F84420002A93
:103678007FF475ADA749DFF8A88201224FF4805086
:1036880084F844208861B8F900104B2908D14FF616
:10369800FF71A8F80010A049C8F80410A8F808207D
:1036A800B8F90C204B2A09D14FF6FF729A49A8F8AD
:1036B8000C200122C8F81010A8F81420B8F9182016
:1036C8004B2A09D14FF6FF729349A8F81820012216
:1036D800C8F81C10A8F82020B8F924204B2A09D1D2
:1036E8004FF6FF728C49A8F824200122C8F8281048
:1036F800A8F82C204FF6FF72A8F830202FE5099281
:103708005046A047099A56E6BCF1000F7FF45BAD1E
:1037180094F84420002A40F0B680059FF319013B35
:10372800009323683246DE6B069BEB18013B294663
:103738002046B047002F58D0039BDFF8E4915B4444
:103748000793984600230493039BDA46A346069DF5
:1037580033B39AF80070A5F1080680240320DDB180
:10376800274212BFDBF80C30DBF81030032023FAB5
:1037780000F2190A21F0070122F00302834089F8B8
:10378800A01089F8A12089F8A230013D05F06AF857
:10379800B5424FEA5404E1D10AF1010AC245D8D131
:1037A80075B9049B0599039A0798013399420493C4
:1037B8009044824618D00346134407931346C6E73D
:1037C800DBF810301A0A032022F0070289F8A0203B
:1037D80023FA00F222F00302834089F8A12089F835
:1037E800A23005F03FF8DCE75C4694F84530002B42
:1037F80047D194F84430002B43D1DFF82481454960
:10380800B8F9002001234FF480504B2A84F8443043
:10381800886108D14FF6FF72A8F800203E4AC8F820
:103828000420A8F80830B8F90C304B2B09D14FF612
:10383800FF73394AA8F80C300123C8F81020A8F8FB
:103848001430B8F918304B2B09D14FF6FF73324AB0
:10385800A8F818300123C8F81C20A8F82030B8F9B7
:1038680024304B2B09D14FF6FF732B4AA8F824308C
:103878000123C8F82820A8F82C304FF6FF73A8F8C1
:103888003030637F6BE4DFF8988084F844C0B8F97F
:1038980000204B2A30D0B8F90C104B291DD0B8F9AC
:1038A80018004B2832D0B8F924304B2B2BD00132DA
:1038B8000CD0013125D0013021D0013308BF0323BA
:1038C80005D0144B4FF080529A6126E7002303EB92
:1038D80043024B2128F822105F001F4408EB87039E
:1038E8000E485860012200211A81997204F032FAB8
:1038F8004B23A8F83030E4E763466746EDE7022338
:10390800E5E70123E3E703230627E6E73B46042729
:10391800E3E700BF0004024000093D0080DE8002AA
:10392800F000002070B590F8855084B094461A468F
:103938009DF8203065B959B1012B044614D0981E62
:10394800062808D8A1F120005F2804D9284600E0FD
:10395800002004B070BD089320461346624604B0A8
:10396800BDE87040FFF7CEBB467F05680296066942
:103978000196C66800960B466D696146A847617F47
:1039880001EB41014800E4E72DE9F04FB54CD4F8CC
:103998001C3191B00646A3B910F4805300F094800E
:1039A800D4F81C31012B00F04F81D4F81C31012BC5
:1039B80000F03A81D4F81C31022B14D011B0BDE8C4
:1039C800F08FD4F81C31012BEFD1C50400F13C81F4
:1039D80094F830310133DBB204EB430284F8303120
:1039E800A2F82001EAE7B4F8203140F6B432934255
:1039F8007ED040F6B23293427AD094F8302140F625
:103A0800EE339E4200F02681022A01F00D80B4F8C0
:103A1800203140F6B4318B4200F02A81B6F5805F40
:103A2800CCD340F6B3318B4201F0218140F6B2315C
:103A38008B4240F0AD80B4F82631B3F53E6F40F0CC
:103A48002181032A40F01E81D4F8343163B9B4F8D7
:103A58002221B4F8243102F00F0203F00F0303EB24
:103A680002130133C4F83431B4F83851002D41F051
:103A78001086DFF8F8B140F207184FF0800A4FF0CF
:103A8800030911E04FF6FF730193CDF8009003236B
:103A980042465846FDF784FC0135082DD4F83431E8
:103AA80008F1040801F0F285B4F828012AFA05F2B1
:103AB80010404FEA8301E5D1CDE900904246032347
:103AC8005846FDF76DFCE7E70121C4F82031C4E949
:103AD8004933C4F81C11A4F8200184F83031C4F823
:103AE8003431A4F83831C4F82C3111B0BDE8F08F66
:103AF80094F83021032A82D15B4D059603F00F0A12
:103B080005F5FA584FF0000B03E01435A84500F00E
:103B1800718635F8063C53452E46F6D1B4F8223165
:103B280035F8042C03F00F039A42EED1B4F824318F
:103B380035F8022C03F00F039A42E6D1B4F8283185
:103B4800B5F90820C4F8C82113F00103B5F9062017
:103B5800C4F8C42100F0D385AB89C4F84C316B8913
:103B680084F8ECB1C4F84831284605F0CDF80028AF
:103B7800CBD0DFF8F8A005EB000994F8C131013685
:103B8800002B00F0FA84B4F820A10AF00F0ABCE771
:103B980040F6B1318B4240F08784B4F82631B3F552
:103BA8003E6F6FD1032A6DD1D4F8343163B9B4F8BC
:103BB8002221B4F8243102F00F0203F00F0303EBC3
:103BC80002130133C4F83431B4F83851002D41F0F0
:103BD8008A85DFF898B04FF03C084FF0800A4FF024
:103BE800080911E04FF6FF730193CDF80090032305
:103BF80042465846FDF7D4FB0135082DD4F8343138
:103C080008F1090801F06C85B4F828012AFA05F2D0
:103C180010404FEA8301E5D1CDE9009042460323E5
:103C28005846FDF7BDFBE7E7F0047FF5C3AE94F80F
:103C3800303104EB430302210022C4F81C11A3F81D
:103C48002261A4F83821B9E6D4F81C31012B7FF49D
:103C5800B1AEECE7012A7FF6DAAE0023C4F81C31D6
:103C6800ACE600BFF0000020D6AA00082C02002015
:103C7800B4F82631B3F53E6F00F06484B6F5805F82
:103C8800FFF49CAEB4F82AC3B4F82E33D4F810135A
:103C9800DBB25FFA8CF59D422BBFC5F13F025B1B7F
:103CA8009B1803F1FF330122013184F83822CCF14B
:103CB800400201F0F580C5F13F07B4F82E13C9B2F0
:103CC800A942A1EB050040F28A840128F5D0DFF86B
:103CD800C082AD4F012517E09A4228BF1A46AD1A97
:103CE8009044FDF773FAB4F82AC3B4F82E335FFA98
:103CF8008CF2DBB29A422BBFC2F13F029B1A9B188F
:103D080003F1FF33CCF14002AA4241463846E3D3DF
:103D18009D42E1D805EB0C03402B00F20985D4F84D
:103D280024032A46604405F0F7FF2F4694F81D3314
:103D3800B4F82AC304EB83036544D3F8A82005F03C
:103D48003F0CA4F82AC392F83D3092F83E20134362
:103D580003F02103212B41F01581B4F82E33D4F858
:103D68001013DBB25FFA8CF59D4233BF5B1BC5F1C4
:103D78003F02D21803F1FF320123013184F83832AF
:103D8800CCF1400300F0BD87C5F13F07B4F82E130E
:103D9800C9B2A942A1EB050040F21C840128F5D064
:103DA8007A4D794F4FF0020918E09A4228BF1A4617
:103DB800A9EB02091544FDF709FAB4F82AC3B4F8C7
:103DC8002E235FFA8CF3D2B293422BBFC3F13F0389
:103DD800D21AD21802F1FF32CCF140034B452946E2
:103DE8003846E2D34A45E0D309EB0C03402B00F2F6
:103DF800C084D4F824034A46604405F08DFF4F463A
:103E0800B4F82A33994494F81D3304EB830309F07A
:103E18003F09D3F8A820A4F82A9392F83D3092F8E5
:103E28003E20134303F02103212B41F08980002316
:103E380094F830218DF83C300DF13C0811461209F8
:103E4800A1EB0213DBB2092B03F130008ABF373331
:103E5800C3B2DBB20F2908F8013DEFD8B4F82E330E
:103E68005FFA89F7DBB29F422CBFC7F13F0ADB1B21
:103E780040462CBF9A4403F1FF3A04F045FFD4F8BA
:103E880010130122013184F8382205465346C9F13E
:103E9800400201F09180C7F13F0CB4F82E13C9B26B
:103EA800B942A1EB070040F2AB830128F5D0364FA9
:103EB80019E09A4228BF1A4641463846AD1A90443E
:103EC800FDF784F9B4F82A93B4F82E335FFA89F22F
:103ED800DBB29A422BBFC2F13F029B1A9B1803F137
:103EE800FF33C9F140029542E3D8AB42E1D305EB79
:103EF8000903402B00F2A986D4F82403414648441C
:103F08002A4605F009FF2F4694F81D33B4F82AC352
:103F180004EB83036544D3F8A82005F03F0CA4F80C
:103F28002AC392F83D3092F83E20134303F0210350
:103F3800212B41F06A80B4F82E33D4F81013DBB289
:103F48005FFA8CF59D4233BF5B1BC5F13F02D21867
:103F580003F1FF320123013184F83832CCF14003F8
:103F680000F0C687C5F13F07B4F82E13C9B28D42D9
:103F7800A1EB050080F040830128F5D0DFF814801C
:103F8800014D012720E000BF18030020E0BA000817
:103F9800DCBA0008E4BA00089A4228BF1A46BF1AD9
:103FA8009044FDF713F9B4F82AC3B4F82E235FFA46
:103FB8008CF3D2B293422BBFC3F13F03D21AD2186B
:103FC80002F1FF32CCF14003BB4241462846E3D31D
:103FD800BA42E1D307EB0C03402B00F2EB83D4F891
:103FE80024033A46604405F097FE3D4694F81D3395
:103FF80004EB8303D3F8A820B4F82A333B4403F036
:104008003F03A4F82A3392F83D3092F83E20134338
:1040180003F02103212B40F0A5870023B4F82021C9
:104028008DF83C300FAF11461209A1EB0213DBB239
:10403800092B03F130008ABF3733C3B2DBB20F2933
:1040480007F8013DEFD8384604F05EFE39460246CF
:104058009F48FDF7BBF8B4F82AC3B4F82E33D4F858
:104068001013DBB25FFA8CF59D4233BF5B1BC5F1C1
:104078003F02D21803F1FF320123013184F83832AC
:10408800CCF1400300F08D86C5F13F07B4F82E133C
:10409800C9B2A942A1EB050040F2AA820128F5D0D5
:1040A800DFF830828A4F012517E09A4228BF1A4666
:1040B800AD1A9044FDF78AF8B4F82AC3B4F82E2351
:1040C8005FFA8CF3D2B293422BBFC3F13F03D21AEB
:1040D800D21802F1FF32CCF14003AB4241463846D8
:1040E800E3D3AA42E1D305EB0C03402B00F2528341
:1040F800D4F824032A46604405F00EFE2F4694F8AF
:104108001D3304EB8303D3F8A820B4F82A332B44D7
:1041180003F03F03A4F82A3392F83D3092F83E208A
:10412800134303F02103212B40F014870023B4F834
:1041380022218DF83C300FAF11461209A1EB021372
:10414800DBB2092B03F130008ABF3733C3B2DBB2CD
:104158000F2907F8013DEFD8384604F0D5FD394658
:1041680002465B48FDF732F8B4F82AC3B4F82E3398
:10417800D4F81013DBB25FFA8CF59D4233BF5B1B9A
:10418800C5F13F02D21803F1FF320123013184F84F
:104198003832CCF1400300F0DC85C5F13F07B4F8B4
:1041A8002E13C9B2A942A1EB050040F21D820128D5
:1041B800F5D0DFF82081464F012517E09A4228BF45
:1041C8001A46AD1A9044FDF701F8B4F82AC3B4F8BA
:1041D8002E235FFA8CF3D2B293422BBFC3F13F0375
:1041E800D21AD21802F1FF32CCF14003AB42414659
:1041F8003846E3D3AA42E1D305EB0C03402B00F287
:10420800E982D4F824032A46604405F085FD2F4648
:1042180094F81D3304EB8303D3F8A820B4F82A33A9
:104228002B4403F03F03A4F82A3392F83D3092F868
:104238003E20134303F02103212B40F09B860023EB
:10424800B4F824218DF83C300FAF11461209A1EBC8
:104258000213DBB2092B03F130008ABF3733C3B234
:10426800DBB20F2907F8013DEFD8384604F04CFDC2
:10427800394602461648FCF7A9FFB4F82AC3B4F831
:104288002E33D4F81013DBB25FFA8CF59D4233BF9E
:104298005B1BC5F13F02D21803F1FF320123013144
:1042A80084F83832CCF1400300F0D285C5F13F07DD
:1042B800B4F82E13C9B2A942A1EB050040F28681D9
:1042C8000128F5D0DFF80C80014F01251CE000BF64
:1042D80018030020E4BA00089A4228BF1A46AD1A0B
:1042E8009044FCF773FFB4F82AC3B4F82E235FFA9E
:1042F8008CF3D2B293422BBFC3F13F03D21AD21828
:1043080002F1FF32CCF14003AB4241463846E3D3D9
:10431800AA42E1D305EB0C03402B00F2F981D4F853
:1043280024032A46604405F0F7FC2F4694F81D3311
:1043380004EB8303D3F8A820B4F82A332B4403F002
:104348003F03A4F82A3392F83D3092F83E201343F5
:1043580003F02103212B40F027860023B4F82621FF
:104368008DF83C300FAF11461209A1EB0213DBB2F6
:10437800092B03F130008ABF3733C3B2DBB20F29F0
:1043880007F8013DEFD8384604F0BEFC394602462E
:10439800AD48FCF71BFFB4F82AC3B4F82E33D4F8A1
:1043A8001013DBB25FFA8CF59D4233BF5B1BC5F17E
:1043B8003F02D21803F1FF320123013184F8383269
:1043C800CCF1400300F01585C5F13F07B4F82E1372
:1043D800C9B2A942A1EB050040F2F4800128F5D04A
:1043E800DFF86882984F012517E09A4228BF1A46DD
:1043F800AD1A9044FCF7EAFEB4F82AC3B4F82E23A9
:104408005FFA8CF3D2B293422BBFC3F13F03D21AA7
:10441800D21802F1FF32CCF14003AB424146384694
:10442800E3D3AA42E1D305EB0C03402B00F29181C0
:10443800D4F824032A46604405F06EFC2F4694F80D
:104448001D3304EB8303D3F8A820B4F82A331D44A2
:1044580005F03F05A4F82A5392F83D3092F83E2023
:10446800134303F02103212B40F0968500238DF898
:104478003C300FAC32463609A2EB0613DBB2092BEF
:1044880003F130018ABF3733CBB2DBB20F2A04F80D
:10449800013DEFD8204604F037FC214602466A4821
:1044A800FCF794FEFFF78ABAB3F53B6F7FF4EAABEB
:1044B800B4F82631B3F53E6F7FF4E4AB032A7FF4FA
:1044C800E1ABD4F8342162B9B4F82231B4F824212C
:1044D80003F00F0302F00F0202EB03120132C4F8DB
:1044E8003421B4F83851002D41F07580DFF860A10F
:1044F80088274FF080094FF0030811E04FF6FF734B
:104508000193CDF8008003233A465046FCF748FF54
:104518000135102DD4F8342107F1040701F0588033
:10452800B4F82811C5F34E0329FA03F30B404FEAF8
:104538008201E3D1CDE900833A4603235046FCF7D4
:104548002FFFE5E7032A7FF499ABD4F8343153B948
:10455800B4F82221B4F8243102F00F0203F00F035B
:1045680003EB02130133B4F8382101330132C4F8E4
:104578003431A4F83821FFF721BA94F8E41116F879
:10458800012C002943D011063FD594F85C1100296D
:104598004AD102F0E003C02B00F06A8502F0F00374
:1045A800E02B00F0818694F8203297B2002B00F0BF
:1045B800928039465046FDF7F1FD4E457FF4DDAA5D
:1045C800FFF7E1BAF9423FF401AF09E7F9423FF4D6
:1045D8006FAE77E6F9423FF4D9ABFFF7E1BBF9429A
:1045E8003FF46BABFFF773BBF9423FF4D8ADE0E59E
:1045F800F9423FF44BAD53E5F9423FF4B5ACBDE4A5
:1046080011EB0C0F3FF449AC51E484F85C3197B2DC
:10461800002FD2D00D2AD0D094F82032D3B11F2F3A
:10462800C7D80A2AC9D1C4E7022900F0F88484F857
:104638005C31B4F85E3102F03F071F43A4F85E71A5
:10464800002FE9D1B9E700BF18030020E4BA000839
:104658002C0200200A2F3ED194F85811022900F0AC
:104668002B862027012913BF00230823062018467C
:1046780094F859C10A2A0CFB03F300F0DD8494F87E
:10468800DF21002A40F0E184D4E9712094F8E03178
:104698005BB194F8C031002B40F01F86B4F990311B
:1046A800834202DCC4F8C8B10020012900F03C872D
:1046B8008B1E062B03D8A7F120035F2B08D80346CF
:1046C800009150463946FEF71DFDD4F8C431C21892
:1046D800C4F8C42171E71F2F7FF66FAF94F8581103
:1046E8000229BFD17F2F3FF668AFC94B3B4413F86F
:1046F800200C063000F4FC7002211023B8E7C4F83F
:10470800483184F8EC310123C4F84C31FFF72CBA56
:10471800D4F82403CCF140073A46604405F0FCFA8B
:10472800D4F8240308EB0701EA1B05F0F5FAFDE5C8
:10473800D4F82403CCF140073A46604405F0ECFA7B
:10474800D4F8240308EB0701EA1B05F0E5FAFFF7A4
:10475800EDBAD4F82403CCF140073A46604405F09A
:10476800DBFAD4F8240308EB0701EA1B05F0D4FAB6
:1047780065E6D4F82403CCF140073A46604405F0D6
:10478800CBFAD4F82403E919A9EB070205F0C4FA17
:10479800FFF736BBD4F82403CCF140073A4660440F
:1047A80005F0BAFAD4F8240308EB0701EA1B05F070
:1047B800B3FAA4E4D4F82403CCF140052A466044B3
:1047C80005F0AAFAD4F8240308EB05017A1B05F0D2
:1047D800A3FA0BE4D4F82403CCF140073A4660442A
:1047E80005F09AFAD4F8240308EB0701EA1B05F050
:1047F80093FA0DE5059E874D874F07E00E35AF42CA
:104808003FF4FBA8B4F820A10AF00F0A2B885345FF
:10481800F4D1B4F822316A8803F00F039A42EDD13B
:10482800B4F82431AA8803F00F039A42E6D1B4F809
:10483800283113F0010F94F8C13100F08E80002B5D
:10484800DCD1D4F8B031B5F806809844D4F8A83152
:104858009845D3DAD4F8B421B5F808909144D4F83F
:10486800AC219145CADAD4F8A011B5F80AA0884558
:1048780003DAA8EB0108C2448846D4F8A411B5F8B5
:104888000CB0894503DAA9EB0109CB44894608EB4A
:104898000A018B42B8BFA3EB080A09EB0B039A4243
:1048A800BCBFA2EB090B1346BAF1000FA6DDBBF1A2
:1048B800000FA3DD94F88021002A40F0C785013B52
:1048C800009308EB0A03013B54484A464146FBF76C
:1048D800BFFD0BFB0AF14FF6FF7003F063FE94F87F
:1048E8008131002B8AD194F88031002B86D14C4A33
:1048F8004FF480539361B4F9002001234B2A84F8C4
:10490800803105D12381474B63604FF6FF732380C5
:10491800B4F90C304B2B06D1424B23614FF6FF7391
:10492800A3810123A382B4F918304B2B06D13D4B48
:10493800E3614FF6FF73238301232384B4F9243002
:104948004B2B06D1374BA3624FF6FF73A384012389
:10495800A3854FF6FF73238650E7002B7FF44EAFF5
:10496800D4F8B031B5F806809844D4F8A831984501
:10497800BFF644AFD4F8B421B5F808909144D4F800
:10498800AC219145BFF63AAFD4F8A011B5F80AA00A
:10499800884503DAA8EB0108C2448846D4F8A41174
:1049A800B5F80CB0894503DAA9EB0109CB4489466F
:1049B80008EB0A018B42B8BFA3EB080A09EB0B030B
:1049C8009A42BCBFA2EB090B1346BAF1000F7FF75E
:1049D80015AFBBF1000F7FF711AF94F88021002AC3
:1049E80040F06185013B009308EB0A03013B0B484B
:1049F8004A464146FBF72CFD0BFB0AF1002003F069
:104A0800D1FD94F88131002B7FF4F8AE6BE700BF3D
:104A18001CA2000860AC0008FCBD00082C020020A5
:104A28000004024000093D00B4F8203140F6B332DA
:104A3800934200F02783B3F53B6F7FF40EA9D4F8B7
:104A480034512DB9B4F8225105F00F05C4F834518A
:104A5800DFF8F8938827002697E0002B40F08D8038
:104A6800D4F8B03103EB8505D4F8A8319D4280F223
:104A78008480D4F8B42107EB0208D4F8AC2190451F
:104A88007BDAD4F8A0118D42BEBF6D1A05F1030A76
:104A98000D46D4F8A411A8BF4FF0030A8845BEBF3D
:104AA800A8EB010808F1030B884605EB0A01A8BF2B
:104AB8004FF0030B8B42B8BFA3EB050A08EB0B03BF
:104AC8009A42BCBFA2EB080B1346BAF1000F54DDA3
:104AD800BBF1000F51DD94F88021002A40F0858455
:104AE800013B009305EB0A03013B42462946484631
:104AF800FBF7AEFC0BFB0AF14FF6FF7003F052FD1B
:104B080094F88131002B38D194F88031002B34D1BE
:104B1800CC4A4FF480539361B4F9002001234B2A07
:104B280084F8803105D12381C74B63604FF6FF734A
:104B38002380B4F90C304B2B06D1C34B23614FF6BD
:104B4800FF73A3810123A382B4F918304B2B06D13C
:104B5800BD4BE3614FF6FF73238301232384B4F92C
:104B680024304B2B06D1B84BA3624FF6FF73A384B6
:104B78000123A3854FF6FF7323860136102E07F114
:104B880004073FF46AA8D4F83451C6F34E028023D0
:104B98001341B4F82621134294F8C1317FF45DAF74
:104BA800002BEAD1D4F8B03103EB8505D4F8A8314D
:104BB8009D42E2DAD4F8B42107EB0208D4F8AC211C
:104BC8009045DADAD4F8A0118D42BEBF6D1A05F10E
:104BD800030A0D46D4F8A411A8BF4FF0030A88456C
:104BE800BEBFA8EB010808F1030B884605EB0A01D4
:104BF800A8BF4FF0030B8B42B8BFA3EB050A08EB25
:104C08000B039A42BCBFA2EB080B1346BAF1000F84
:104C1800B3DDBBF1000FB0DD94F88021002A40F02D
:104C2800B883013B009305EB0A03013B4246294642
:104C38004846FBF70DFC0BFB0AF1002003F0B2FC21
:104C480094F88131002B98D15EE7D4F82403C9F198
:104C580040073A464146484405F05EF8D4F8240334
:104C680008EB0701EA1B05F057F8FFF74DB9B4F850
:104C78002631B3F53E6F7FF405A8032A7FF402A816
:104C8800D4F8342162B9B4F82231B4F8242103F0FD
:104C98000F0302F00F0202EB03120132C4F83421B1
:104CA800B4F83851002D40F04885DFF8A0A1C82796
:104CB8004FF080094FF0030811E04FF6FF7301939E
:104CC800CDF8008003233A465046FCF769FB0135CE
:104CD800102DD4F8342107F1040700F02B85B4F81F
:104CE8002811C5F34E0329FA03F30B404FEA82015A
:104CF800E3D1CDE900833A4603235046FCF750FB45
:104D0800E5E794F8341300293FF43EA894F81D13FE
:104D180004EB81010027D1F8A81084F8347391F8C6
:104D28003C0001283FF430A80D68242081F83D009C
:104D3800E86820F00C0040F00800E860202081F8C6
:104D48003C7081F83D00B4F82AC35FFA8CF5FFF790
:104D58001BB894F8341300293FF41FAA94F81D13C4
:104D680004EB81010027D1F8A81084F8347391F876
:104D78003C0001283FF411AA0D68242081F83D0069
:104D8800E86820F00C0040F00800E860202081F876
:104D98003C7081F83D00B4F82AC35FFA8CF5FFF740
:104DA800FCB994F8341300293FF46EA994F81D1344
:104DB80004EB81010027D1F8A81084F8347391F826
:104DC8003C0001283FF460A90D68242081F83D00CB
:104DD800E86820F00C0040F00800E860202081F826
:104DE8003C7081F83D00B4F82AC35FFA8CF5FFF7F0
:104DF8004BB994F8341300293FF4E6AA94F81D132C
:104E080004EB81010027D1F8A81084F8347391F8D5
:104E18003C0001283FF4D8AA0D68242081F83D0001
:104E2800E86820F00C0040F00800E860202081F8D5
:104E38003C7081F83D00B4F82AC35FFA8CF5FFF79F
:104E4800C3BA00BF0004024000093D002C02002044
:104E580094F8341300293FF429AA94F81D1304EB9D
:104E680081010027D1F8A81084F8347391F83C0028
:104E780001283FF41BAA0D68242081F83D00E8684A
:104E880020F00C0040F00800E860202081F83C7019
:104E980081F83D00B4F82AC35FFA8CF5FFF706BA2B
:104EA80094F8341300293EF406AF94F81D1304EB6C
:104EB80081010027D1F8A81084F8347391F83C00D8
:104EC80001283EF4F8AE0D68242081F83D00E8681A
:104ED80020F00C0040F00800E860202081F83C70C9
:104EE80081F83D00B4F82AC35FFA8CF5FEF7E3BEFB
:104EF80094F8341300293FF435A894F81D1304EBF3
:104F080081010027D1F8A81084F8347391F83C0087
:104F180001283FF427A80D68242081F83D00E8689F
:104F280020F00C0040F00800E860202081F83C7078
:104F380081F83D00B4F82AC35FFA8CF5FFF712B880
:104F48005A48C4F83073394602F056FDB4F82A932B
:104F5800FEF76DBF5548C4F83073394602F04CFD72
:104F6800FFF7E4B85148C4F83053294602F044FD2D
:104F7800FFF753B84D48C4F83073394602F03CFD8A
:104F8800FFF75DB94948C4F83073394602F034FD7B
:104F9800B4F82AC3FEF7E1BE4448C4F83073394672
:104FA80002F02AFDFFF762BA4048C4F83073394668
:104FB80002F022FDFFF7D1B994F8341300293EF42A
:104FC8006AAF94F81D1304EB81014FF0000CD1F87F
:104FD800A81084F834C391F83C0001283EF45BAF74
:104FE8000F68242081F83D00F86820F00C0040F09C
:104FF8000800F860202081F83CC081F83D00B4F832
:105008002A9394F82A73FEF746BF2848C4F83073E9
:10501800394602F0F1FCB4F82AC3FEF78CBF9301BD
:10502800B4F85E2103F47C631343A4F85E310123D2
:1050380084F85C31FFF7C1BAD4F8C821C4F8C4B108
:105048001344C4F8C831FFF7B8BAD4F8C42194F8A7
:10505800C0E10CFB0020BEF1000F40F03B81B4F929
:105068008CE1704500F32C81D4F8C801FFF70EBB22
:10507800930103F4F863A4F85E31012384F85C31EA
:10508800FFF79BBAD4F834515DB9B4F82231B4F8BB
:10509800241103F00F0301F00F0505EB0315C4F805
:1050A8003451DFF80C90C02700269AE0AC030020AA
:1050B8002C020020002B40F08D80D4F8B03103EB97
:1050C8008505D4F8A8319D4280F28480D4F8B421B3
:1050D80007EB0208D4F8AC2190457BDAD4F8A0118C
:1050E8008D42BEBF6D1A05F1030A0D46D4F8A4110E
:1050F800A8BF4FF0030A8845BEBFA8EB010808F116
:10510800030B884605EB0A01A8BF4FF0030B8B423F
:10511800B8BFA3EB050A08EB0B039A42BCBFA2EB8E
:10512800080B1346BAF1000F54DDBBF1000F51DD37
:1051380094F88021002A40F0D480013B009305EBCD
:105148000A03013B424629464846FBF781F90BFB17
:105158000AF14FF6FF7003F025FA94F88131002B1D
:1051680038D194F88031002B34D1B64A4FF48053AB
:105178009361B4F9002001234B2A84F8803105D1CA
:105188002381B14B63604FF6FF732380B4F90C3071
:105198004B2B06D1AC4B23614FF6FF73A381012340
:1051A800A382B4F918304B2B06D1A74BE3614FF615
:1051B800FF73238301232384B4F924304B2B06D1B6
:1051C800A14BA3624FF6FF73A3840123A3854FF677
:1051D800FF7323860136102E07F1040760D0D4F838
:1051E8003451C6F34E0280231341B4F826211342EA
:1051F80094F8C1317FF45EAF002BEBD1D4F8B03115
:1052080003EB8505D4F8A8319D42E3DAD4F8B4213C
:1052180007EB0208D4F8AC219045DBDAD4F8A011EA
:105228008D42BEBF6D1A05F1030A0D46D4F8A411CC
:10523800A8BF4FF0030A8845BEBFA8EB010808F1D4
:10524800030B884605EB0A01A8BF4FF0030B8B42FE
:10525800B8BFA3EB050A08EB0B039A42BCBFA2EB4D
:10526800080B1346BAF1000FB4DDBBF1000FB1DD36
:1052780094F88021002A60D1013B009305EB0A03D2
:10528800013B424629464846FBF7E2F80BFB0AF188
:10529800002003F087F994F88131002B9AD160E758
:1052A800B4F82031FFF7C7BB12030223A4F85E212C
:1052B80084F85C31FFF781B908202027FFF71CBA72
:1052C800D4F8C801C4F8C4B11844C4F8C80100220D
:1052D800FFF7DCB9B4F9B8E1C3E6B4F9BC31FFF7BC
:1052E800DFB9B4F900E00022BEF14B0F84F8802149
:1052F80000F03381B4F90CC0BCF14B0F00F02C81E5
:10530800B4F918004B2800F04282B4F924104B2954
:1053180000F03B82BEF1FF3F00F06982BCF1FF3F25
:1053280000F06182013000F05A82013100F092826F
:1053380044494FF080528A61FFE6B4F900E0002248
:10534800BEF14B0F84F8802100F01B81B4F90CC02A
:10535800BCF14B0F00F01481B4F918004B2800F091
:105368004D82B4F924104B2900F04682BEF1FF3F6C
:1053780000F04E82BCF1FF3F00F04682013000F0A1
:105388003F82013100F049822E494FF080528A61F4
:1053980072E7B4F900E00022BEF14B0F84F88021D7
:1053A80000F00381B4F90CC0BCF14B0F00F0FC8095
:1053B800B4F918004B2800F0EE81B4F924104B29F9
:1053C80000F0E781BEF1FF3F00F0EF81BCF1FF3F45
:1053D80000F0E781013000F0E081013100F0308217
:1053E80018494FF080528A611BE4B4F900E00022AA
:1053F800BEF14B0F84F8802100F08380B4F90CC013
:10540800BCF14B0F7CD0B4F918004B2800F0D281C6
:10541800B4F924104B2900F0CB81BEF1FF3F00F016
:10542800D981BCF1FF3F00F0D181013000F0CA8181
:10543800013100F0098203494FF080528A61FFF779
:105448004FBB00BF0004024000093D00B4F900E072
:105458000022BEF14B0F84F8802100F00481B4F9DA
:105468000CC0BCF14B0F00F0FD80B4F918004B28BC
:1054780000F0C081B4F924104B2900F0CC81BEF1B2
:10548800FF3F00F0F781BCF1FF3F00F0EF810130F2
:1054980000F0E881013100F0E181C7494FF0805206
:1054A8008A61FFF70CBAB4F900E00022BEF14B0F95
:1054B80084F8802100F0C380B4F90CC0BCF14B0F14
:1054C80000F0BC80B4F918004B2800F08681B4F9CC
:1054D80024104B2900F0BC81BEF1FF3F00F0AD81E4
:1054E800BCF1FF3F00F0A581013000F09E81013141
:1054F80000F09781B0494FF080528A61FFF772BA85
:10550800012202EB420204EB820001210593AB4B1E
:1055180001810A46002143608172184602F01AFC94
:105528004B22059B228686E7CDF808C01146024625
:10553800D4F84C010190D4F8480100903B465046FD
:10554800FDF7FCFB94F85921D4F8C43102EB420270
:1055580003EB4202FFF7BCB8012202EB420204EB64
:10556800820001210593954B01810A460021436081
:105578008172184602F0EEFB4B22059B2286D7E685
:10558800012202EB420204EB8200012105938B4BBE
:1055980001810A46002143608172184602F0DAFB55
:1055A8004B22059B2286EFE6012202EB420204EB26
:1055B800820001210593814B01810A460021436045
:1055C8008172184602F0C6FB4B22059B228607E72C
:1055D8000132C4F83421DFF8E89100254FF0800843
:1055E80003270EE04FF6FF73AA0001930097883255
:1055F80003234846FBF7D4FE0135102DD4F8342197
:1056080012D0C5F34E0348FA03F333404FEA820140
:10561800E8D1AA00CDE90073883203234846FBF796
:10562800BFFEE9E7D4F83421B4F838310132013348
:10563800C4F83421A4F83831FEF7C0B9012202EBCE
:10564800420204EB8200012105935C4B01810A466A
:10565800002143608172184602F07CFB4B22059BB7
:10566800228647E7012202EB420204EB8200012175
:105678000593524B01810A46002143608172184606
:1056880002F068FB4B22059B228606E70133C4F82B
:105698003431DFF82C9100254FF0800803270FE004
:1056A8004FF6FF73AA000193009702F20712032333
:1056B8004846FBF775FE0135082DB3D0D4F83431D0
:1056C80048FA05F232404FEA8301E9D1CDE9007288
:1056D800AA0002F2071203234846FBF761FEEAE735
:1056E8000133C4F83431DFF8D89000254FF0800832
:1056F80008270FE04FF6FF7305EBC50201930097EB
:105708003C3203234846FBF74BFE0135082D89D070
:10571800D4F8343148FA05F232404FEA8301E9D12E
:10572800CDE9007205EBC5023C3203234846FBF77E
:1057380037FEEAE70132C4F83421DFF88490002507
:105748004FF0800803270FE04FF6FF73AA0001937C
:105758000097C83203234846FBF722FE0135102D77
:10576800D4F834213FF460AFC5F34E0348FA03F38D
:1057780033404FEA8201E7D1AA00CDE90073C8326D
:1057880003234846FBF70CFEE8E70322E5E602227E
:10579800E3E6032209E7022207E74B2222830222DB
:1057A80003E74B22A2810122FFE64B212180FCE680
:1057B8000322A6E60222A4E60004024080DE80025C
:1057C8002C0200204B22228302229AE64B22A2813D
:1057D800012296E64B21218093E602222FE74B22F5
:1057E80022830222B9E64B22A2810122B5E64B218F
:1057F8002180B2E6022236E70322C2E60222C0E690
:105808004B2222830222BCE64B22A2810122B8E667
:105818004B212180B5E6032225E74B22A2840322EF
:10582800AFE64B22A284032209E74B2222830222FD
:1058380005E74B22A281012201E74B212180FEE6E8
:105848004B22A2840322B0E64B22A284032258E60C
:105858000322F4E64B22A28403227EE64B22A28492
:10586800032200E74B2222830222FCE64B22A2817C
:105878000122F8E64B212180F5E600BF2DE9F0432F
:10588800D0F80080DFF87C90D8F82870067F4F4564
:1058980085B01ED10C4690F885100546A9B9A4B16B
:1058A800012E96469C4619D0B31E062B03D8A4F1A8
:1058B80020035F2B23D8009663467246214628466C
:1058C800FDF720FC05B0BDE8F083002005B0BDE879
:1058D800F0830096B84705B0BDE8F0832346447FBF
:1058E800029404690194C4680094D8F8144062468C
:1058F8007146A047687F00EB40004000E6E7084695
:10590800E4E700BF2D3900082DE9F04F044690F870
:10591800850083B000284DD1656F636E0D449D42AC
:1059280048DBA36F02EB0309A36E994542DBE36EE4
:105938009D423FDA236F99453CDA94F8453001934C
:10594800002B3CD094F8443084F84500002B00F03C
:105958000C81BD4E227A002A40F0F180B6F9002071
:1059680000234B2A84F8443000F06381B6F90C1008
:105978004B2900F06081B6F918004B2800F05E81D1
:10598800B6F924C0BCF14B0F00F05B81013200F086
:105998002381013100F06681013000F06581BCF19E
:1059A800FF3F08BF032200F01881A84B4FF0805238
:1059B8009A610DE00025284603B0BDE8F08F237AF0
:1059C80094F84420A04E002B40F0B980002AC5D19D
:1059D800DFF88CA24FF400174FF6FF782A234FF018
:1059E800200BC4E916880120CAF818706DBA86F829
:1059F800A03002F037FFCAF818B00420A6F8A0506B
:105A0800A6F8A25002F02EFF2B23CAF81870012026
:105A180086F8A03002F026FF99FA99F2CAF818B071
:105A28000420A6F8A020A6F8A22002F01BFF2E232F
:105A3800CAF81870012086F8A03002F013FFCAF8DF
:105A480018B002F047FC02F045FC814602F042FC27
:105A5800054602F03FFCEB00C0F3C7057C4894F80C
:105A6800451003F4FC6300EA09201843774B2843E8
:105A78004FF4805285B29A6100296AD194F8441093
:105A8800002930D1B6F9000001214B2884F84410D0
:105A98009A6104D16F4BA6F8008031817360B6F922
:105AA8000C304B2B06D14FF6FF73B381694B336132
:105AB8000123B382B6F918304B2B06D14FF6FF738A
:105AC8003383644BF36101233384B6F924304B2BC1
