:020000040800F2
:100000000000022081A10008D1A10008D1A10008B0
:10001000D1A10008D1A10008D1A100080000000072
:10002000000000000000000000000000D1A1000856
:10003000D1A1000800000000D1A10008C96D00088E
:10004000D1A10008D1A10008D1A10008D1A10008C8
:10005000D1A10008D1A1000855680008D1A100086D
:10006000B5680008DD6D0008E96D0008D1A1000841
:10007000D1A10008D1A10008D1A10008C1680008E1
:10008000D1A10008D1A10008D1A10008D1A1000888
:10009000D1A10008D1A10008D1A10008F56D000888
:1000A000296C0008396B00083D6C0008616B000882
:1000B000756B0008896B00089D6B0008D1A10008D2
:1000C000D1A10008D1A10008D1A10008D1A1000848
:1000D000D1A10008517A00086D7A00088D7A0008D5
:1000E0001D6E0008D1A10008D1A10008516C0008C4
:1000F000ED6B0008656C0008156C0008D1A10008C4
:10010000D1A10008D1A10008B16B0008D1A100085D
:10011000AD7A0008C97A0008C56B0008D96B0008E1
:10012000D1A10008D1A10008D1A10008D1A10008E7
:10013000D1A10008D1A10008D1A10008D1A10008D7
:10014000D1A10008D1A10008D1A10008D1A10008C7
:10015000D1A10008D1A10008D1A10008E57A0008CA
:10016000D1A10008D1A10008D1A10008D1A10008A7
:10017000D1A10008D1A10008D1A100080000000011
:08018000D1A10008D1A1000883
:10018800B0F8063190F80221D8B2824227BFC2F1F6
:100198003F028018801A00F1FF307047F8B5174603
:1001A8007AB105460E46002402E00134A74208D081
:1001B8002B6816F8011B1B68284698470028F4D1BD
:1001C80027463846F8BD00BF90F8843013B9B0F917
:1001D80050007047B0F97C00704700BF90F8843039
:1001E80013B9B0F954007047B0F98000704700BFE8
:1001F80090F885300BB101207047F0B590F8A82031
:1002080085B004460AB30A061DD590F8202082BBA3
:1002180001F0E003C02B00F0B68001F0F003E02B02
:1002280000F0B98090F8E4308DB2E3B91F2D17D9EA
:10023800237F022B6ED0DA1E052A76D87F2D0FD8A1
:10024800A5F120022CE080F820308DB245B10D29AF
:1002580006D094F8E420C2B11F2D04D80A2902D090
:10026800012005B0F0BD23682946DB6C204698477D
:10027800F6E7022A428C5FD001F03F05154345841A
:1002880080F82030002DE4D1EAE70A2DCED1237F73
:10029800022B00F08680D81E05284FF0200544D890
:1002A80049480C2606FB030603EB430300EB8303D4
:1002B800706E93F86830805C627F0A2902FB03F64F
:1002C80043D094F8A330002B46D1D4F88C30216861
:1002D80094F8A42082B10A6B3C4882426AD194F80F
:1002E8008420002A60D1B4F954009842D6BF002374
:1002F800D4F88C30C4F88C30227F00928E6AD4F8FF
:10030800882029462046B047D4F888301844C4F8D5
:100318008800A5E77F2DA3D82B4B2B4413F8200C7E
:10032800063000F4FC701023C6E7012B13BF00232E
:10033800082306201846BFE78B0103F47C631343A8
:100348000122438480F820208AE7D4F88C300022E8
:100358003344C4E9222383E7D4F88830216802FBB8
:1003680000374B6B1A4A93422AD194F88430F3B978
:10037800B4F95000D4F88C308742C2BF9B190022D0
:10038800C4E92223A4E7890101F4F8610123418427
:1003980080F8203064E709030223418480F8203084
:1003A8005EE708202025BEE7B4F980009DE7B4F990
:1003B8007C00DFE70393204690472168039B94E77E
:1003C800204698472168D5E73CA70008E5010008C2
:1003D800D101000800207047704700BF90F84530F1
:1003E8000BBB90F84430F3B91F49204B10B40122DD
:1003F8004FF4805480F844208C61B3F900104B29E5
:100408002AD0B3F90C204B2A1ED0B3F918204B2A56
:1004180012D0B3F924204B2A06D04FF6FF725DF8AC
:10042800044B1A8670477047114999624FF6FF705E
:10043800012298849A85F0E70D49D9614FF6FF703B
:10044800012218831A84E4E7094919614FF6FF70FD
:10045800012298819A82D8E7054959604FF6FF70C2
:1004680018801A81CDE700BF00040240F000002088
:1004780000093D002DE9F047204D214C4FF4001AAA
:100488001F464FF6FF738846C0E916334FF0200920
:100498002A23C5F818A00120164684F8A03098FA37
:1004A80098F808F069FC7FBAC5F818900420A4F8F9
:1004B800A080A4F8A27008F05FFC2B23C5F818A050
:1004C800012084F8A03008F057FCC5F81890089B64
:1004D80076BA5BBA0420A4F8A230A4F8A06008F0A9
:1004E8004BFCC5F818A02C23012084F8A03008F094
:1004F80043FCC5F81890BDE8F08700BF000802402B
:10050800F000002003681A6910B50446900712D558
:10051800DA6891070FD5012254F8040C6FF0020134
:10052800196122779A69826F1AB1C36F7030984740
:100538002368002222771A69520714D5DA6850070F
:1005480011D5022254F8040C6FF0040119612277C6
:100558009A69D0F8882022B1D0F88C30803098473A
:100568002368002222771A69110714D5DA6812075E
:1005780011D5042254F8040C6FF008011961227790
:10058800DA69D0F8982022B1D0F89C30903098479A
:100598002368002222771A69D00614D5DA68D106B2
:1005A80011D5082254F8040C6FF010011961227754
:1005B800DA69D0F8A82022B1D0F8AC30A03098473A
:1005C8002368002222771A69D20702D5DA68D00791
:1005D8001BD41A69110605D5DA68120644BF6FF0F4
:1005E80080021A611A69540605D5DA68500644BFB4
:1005F8006FF040021A611A69910605D5DA68920609
:1006080044BF6FF020021A6110BD54F8040C826ECA
:100618006FF001011961002ADBD0C36E6030984782
:100628002368D6E710B40268136813F0010385B095
:100638001AD0002300931368009353680093009B1B
:1006480090F85D102D4B03EB8103D3F8A81091F8B7
:100658003D3091F83E100B4303F02203222B1CD1AE
:1006680005B05DF8044B7047116811F0020106D01F
:1006780001931368019353680193019BE0E71368A2
:1006880013F0040332D111680907D9D5039313680D
:10069800039353680393039BD2E790F83E30202BD3
:1006A800DED190F83C30012BDAD00023012103631E
:1006B80080F83C30C18503640369818500F15E04DC
:1006C8004FF0220C846280F83EC01BB1D36843F41B
:1006D8008073D360536943F001035361D36843F0D7
:1006E8002003D36005B05DF8044B7047029113688E
:1006F800029353680293029BA2E700BFF000002018
:10070800836B10B419680024DC85DC840A6812F055
:10071800010285B019D003940A6803924A680392CB
:10072800039A93F85D002D4A02EB8002D2F8A800E4
:1007380090F83D2090F83E00024302F02202222A5F
:100748001CD105B05DF8044B7047086810F0020032
:1007580006D002920A6802924A680292029AE0E778
:100768000A6812F0040231D108680007D9D500924E
:100778000A6800924A680092009AD2E793F83E20ED
:10078800202ADED193F83C20012ADAD00022012069
:100798001A6303F15E04D88583F83C201A641A6949
:1007A8009C622224988583F83E401AB1CB6843F4B2
:1007B8008073CB604B6943F001034B61CB6843F016
:1007C8002003CB6005B05DF8044B704701900A68C0
:1007D80001924A680192019AA3E700BFF000002045
:1007E80038B50468C16822698368056922F44052F3
:1007F8000A432261E168C2692B43456921F4164125
:100808002B4321F00C0113430B43E36063698169B7
:1008180023F440730B432E4963618C4231D02D4B36
:100828009C422ED02C4B2D499B680968C3F3822C1F
:100838002B4B6344B2F5004F93F8CC3021FA03F107
:100848002ED14268274D92184FF019004FF000033F
:100858005B41A1FB000108F0E9FCA5FB003251094E
:10086800642303FB1103DB003233A5FB0323C3F32B
:1008780042121B0902EB011203F4F8731344A3603C
:1008880038BD154B15499B680968C3F3423C144BA6
:100898006344B2F5004F93F8CC3021FA03F1D0D07D
:1008A800436819209A00A1FB00019B0F08F0BEFCC9
:1008B8000C4AA2FB00135B09642101FB1300000131
:1008C8003230A2FB00201B0103EB5010A06038BDA2
:1008D80000100140001401400038024000000020D0
:1008E8003CA700081F85EB51274B98421FD0B0F159
:1008F800804F10D0A3F57C4398421AD10223234A93
:10090800904208BF06231AD1214A904208BF0B2300
:100918001AD11846704701231E4A904208BF052382
:10092800EDD11D4A904208BF0A23F2D0ECE700231C
:10093800F2E703F58063984208BF032315D1174AED
:10094800904208BF072305D1154A904208BF0C23DF
:10095800DFD005E002F57052904208BF08230CD1A1
:10096800104A904208BF0D23D3E703F580639842ED
:1009780018BF4FF6FF73CFD104230B4A904208BF2C
:100988000923C6D0CDE700BF000001400014004095
:1009980000180040001000400048014000040140D9
:1009A800001C00400020004000440140431C0BD0C4
:1009B8000B685A1C04D107E051F80C3F5A1C03D0AD
:1009C8009842F9D148687047002070476D4A03681B
:1009D80093428EB05CD0B3F1804F2ED06A4A9342D6
:1009E80064D16A4A00210291116C41F0020111643C
:1009F800126C02F002020292029A654A934264D192
:100A0800624A00210691116C41F020011164126CB8
:100A180002F020020692069A5E4A934264D15B4B2A
:100A280000220B921A6C42F040021A641B6C03F00D
:100A380040030B930B9B0EB07047544A0021019161
:100A4800116C41F001011164126C02F00102019273
:100A5800019A514A9342D0D14C4A00210591116C18
:100A680041F010011164126C02F010020592059A0F
:100A78004A4A9342D0D1454B00220A925A6C42F41A
:100A880080225A645B6C03F480230A930A9BD2E7A2
:100A980002F59C3200210091516C41F00101516432
:100AA800526C02F001020092009AD2E73C4A93424B
:100AB80049D1364A00210391116C41F004011164B7
:100AC800126C02F004020392039A364A93421BD135
:100AD8002E4A00210791516C41F002015164526C79
:100AE80002F002020792079A2F4A93421BD1274B22
:100AF80000220C921A6C42F080021A641B6C03F0FC
:100B080080030C930C9B96E7284A93422AD11F4AEC
:100B180000210891516C41F480315164526C02F407
:100B280080320892089A224A934284D1174B0022B5
:100B38000D921A6C42F480721A641B6C03F4807371
:100B48000D930D9B77E71B4A934282D10F4A0021F0
:100B58000491116C41F008011164126C02F0080252
:100B68000492049A144A934282D1084B00220992B3
:100B78005A6C42F400325A645B6C03F400330993F4
:100B8800099B58E70000014000040040003802407B
:100B980000140040001800400010004000480140C8
:100BA8000008004000040140001C004000400140D3
:100BB80000200040000C004000440140431C4DD080
:100BC800294B984248D00CD9284B984225D016D9A1
:100BD800274B98421BD003F5806398421FD11A20F7
:100BE8007047A3F54063984234D01ED9214B9842F0
:100BF8002AD003F58063984233D137207047A3F594
:100C08006443984222D003F56043984201D11920E9
:100C18007047A3F56443984225D12C207047A3F56B
:100C2800006398421DD118207047A3F500639842CD
:100C38000ED003F58063984201D11E207047B0F1B1
:100C4800804F0FD11C207047362070472D207047E9
:100C58001D207047322070472B2070476FF00D0021
:100C68007047FEE7FDE7FCE700180040000401407C
:100C78000044014000100040431C51D02B4B9842C7
:100C88004CD00DD8A3F58053984245D01BD9284B9A
:100C9800984239D003F5806398420ED12B207047D3
:100CA800244B984236D018D9234B98422AD003F5C2
:100CB8008063984237D11A207047A3F500639842A1
:100CC80031D136207047A3F50063984220D003F550
:100CD800806398420BD11E207047A3F58043984249
:100CE80014D003F58063984206D12E207047B0F1E6
:100CF800804F1AD11C207047A3F56443984213D142
:100D08002D20704719207047372070471B207047E7
:100D18001D20704718207047322070472C207047DC
:100D28006FF00D007047FEE7FDE7FCE7001C004090
:100D380000140040004001400044014000284FD00A
:100D480090F86120274B03EB8203D3F8A83093F87F
:100D58003D2093F83E100A4302F02202222A3FD097
:100D680010B493F83E2090F86210202A24D193F80A
:100D78003C20012A20D000224FF0010C1A6383F88E
:100D88003C20A3F82EC01A641A69A3F82CC000F1FD
:100D980062044FF0220C9C6283F83EC01B681AB1B3
:100DA800DA6842F48072DA605A6942F001025A61E4
:100DB800DA6842F02002DA60B0F87030B0F86C20DF
:100DC800013303F03F03934207D0B0F87020446E1C
:100DD80092B29BB2A154A0F870305DF8044B7047F2
:100DE800704700BFF0000020B0F80431B0F80001EF
:100DF800181A00F03F007047B0F80431B0F800212D
:100E08009BB293421ABFD0F8F830985C4FF0FF308D
:100E1800704700BF037C33B1B0F80221B0F8063147
:100E28009BB29A42FAD17047D0F8E830013310B536
:100E380004460FD0B4F80431B4F800219BB29342B1
:100E48003ED0D4F8F810531C03F03F03885CA4F894
:100E5800003110BD03681C4ADB6893422ED1037C25
:100E680033B1B0F80221B4F806319BB29A42FAD1F4
:100E780094F80C31002BDDD1D4F8E820012101329F
:100E880084F80C11D6D194F8F510104A02EB8102BF
:100E9800D2F8A82092F83C100129CBD01068242160
:100EA80082F83D10C16821F00C0141F00401C160D5
:100EB800202182F83D1082F83C30BBE79847D7E7FD
:100EC8004FF0FF3010BD00BF1D0E0008F0000020DD
:100ED80000B5036883B05B688DF8071001220DF137
:100EE8000701984703B05DF804FB00BF2DE9F84FF0
:100EF8009146002A79D03E4C3E4D3F4F8346884666
:100F0800002613E0BBF80421BBF8001192B28A4214
:100F180054D0DBF8F8004A1C02F03F02405CABF802
:100F280000210136B14508F8010B4ED0D4F8C02095
:100F3800CBF80C204FF0240ADBF800104A69AA42CB
:100F480046D1DBF8E8200132DCD1CA68BA4245D183
:100F58009BF8102032B1BBF80211BBF8062192B2FF
:100F68009142FAD19BF80C21002ACBD1DBF8E8108A
:100F78004FF0010301318BF80C31C3D19BF8F51008
:100F880004EB8101D1F8A81091F83C000128B9D0F0
:100F98000B6881F83DA0D86820F00C004FF0200EB7
:100FA80040F00400D86081F83DE081F83C20BBF8AF
:100FB8000421BBF8001192B28A42AAD1DBE90210DF
:100FC800D4F8C020121A8A42B6D33046BDE8F88F4A
:100FD800584690470028F1DBC0B2A2E75846904730
:100FE8009BF80C21002A8DD1C0E71646EDE700BF1B
:100FF800F0000020310E00081D0E00082DE9F04F0A
:1010080083B0002B00F08680454C464D464F019337
:1010180083468A469046002616E0BBF80431BBF8A2
:1010280000119BB28B4257D0DBF8F8004A1C02F043
:101038003F02405CABF80021824554D0019B08F880
:10104800010B0136B3424ED0D4F8C020CBF80C20A7
:101058004FF02409DBF800205369AB4247D1DBF895
:10106800E8300133D9D1D368BB424CD19BF810305A
:1010780033B1BBF80221BBF806319BB29A42FAD1D0
:101088009BF80C21002AC8D14FF001038BF80C31D2
:10109800DBF8E8300133C0D19BF8F53004EB83036B
:1010A800D3F8A83093F83C100129B6D0186883F813
:1010B8003D90C16821F00C0141F004014FF0200C73
:1010C800C16083F83DC083F83C20BBF80431BBF80D
:1010D80000119BB28B42A7D1DBE90232D4F8C010D1
:1010E8008A1A9A42B6D3304603B0BDE8F08F584604
:1010F80098470028A0DADBE90232D4F8C0108A1A2F
:101108009A42A7D3EFE7584698479BF80C21002A44
:1011180083D1B9E71E46304603B0BDE8F08F00BF63
:10112800F0000020310E00081D0E0008B0F87220F3
:10113800B0F86E1010B5446F14FA82F202F03F0254
:10114800A0F87220B0F8722092B2914208BF002035
:1011580000D110BDB0F87220403192B2891AB0F8AF
:101168007220D1F1000C0CF03F0C92B201F03F015B
:10117800C2F1400258BFCCF10001914228BF11468C
:10118800416706F0C3FE4FF0FF3010BD2DE9F84F60
:101198000368714F9B68BB4204468946164640F077
:1011A800D280B0F802B1B0F806315FFA8BF1DBB249
:1011B80099422BBFC1F13F015B1A01EB030A03F10E
:1011C800FF3AD4F8E83001220133CBF1400B227406
:1011D80000F08A80DFF8848123689B68BB4249D18C
:1011E800B4F8063194F80221DBB29A422BBFC2F15F
:1011F8003F029B1A9B1803F1FF336BB994F8022145
:10120800C2F13F01B4F80631DBB29342A3EB02000E
:1012180040F29E800128F5D0354611E0B4F8063139
:10122800B4F802B1DBB25FFA8BF09842A3EB000A84
:1012380026BFC0F13F0A9A440AF1FF3ACBF1400BAE
:101248005D454946204601D8554518D9DA452368F1
:1012580028BFDA465B685246984723689B68BB42BA
:10126800A5EB0A05D144D9D020469847B4F802B175
:101278008246E3E7204698470028CDD1ACE7B4F88A
:1012880002717B19402B1FD8D4F8FC002A46384439
:1012980008F0D2FF2F4694F8F53008EB8308B4F82D
:1012A8000231D8F8A8201D4405F03F05A4F80251E2
:1012B80092F83D3092F83E20134303F02103212B8E
:1012C80037D13046BDE8F88FD4F8FC003844C7F170
:1012D80040073A4608F0B0FFD4F8FC0009EB0701D4
:1012E800EA1B08F0A9FFD6E794F80C31DFF86C8008
:1012F800002B3FF471AF94F8F53008EB830300221C
:10130800D3F8A83084F80C2193F83C1001293FF455
:1013180063AF1868242183F83D10C16821F00C01DF
:1013280041F00801C16083F83C20202283F83D2069
:1013380052E704F19400C4F80871394606F0E6FD56
:101348003046BDE8F88F9847B4F802B1824638E7CE
:10135800D9423FF457AF5FE789010008F000002049
:101368002DE9F047984682B090F885300A9F002B07
:1013780040F08880456FC36E0D449D42044680F25C
:101388008180866F006F164486427BDA626E9542D2
:1013980002DAAD1AA8441546A16E8E4275DB05EB3C
:1013A800080206EB07099342B8BFA3EB05084845B6
:1013B800BCBF871B8146B8F1000F63DD002F61DDDC
:1013C80094F84430002B64D109F1FF33009323686B
:1013D8003246DE6B05EB0803013B29462046B04741
:1013E8000B9B07FB08F198B207F066FB94F84530B1
:1013F800002B47D194F84430002B43D1DFF83CA1AF
:101408004B49BAF9002001234FF480504B2A84F845
:101418004430886108D1474ACAF804204FF6FF7162
:10142800AAF80010AAF80830BAF90C304B2B09D1E9
:10143800404ACAF810204FF6FF710123AAF80C1091
:10144800AAF81430BAF918304B2B09D1394ACAF81E
:101458001C204FF6FF710123AAF81810AAF82030B3
:10146800BAF924304B2B09D1324ACAF828204FF652
:10147800FF710123AAF82410AAF82C304FF6FF7345
:10148800AAF8303002B0BDE8F087761A37440E4625
:1014980085E7DFF8A8A0BAF9002000234B2A84F8D2
:1014A80044301CD0BAF90C104B2933D0BAF91800C3
:1014B8004B2832D0BAF924C0BCF14B0F30D00132DE
:1014C80020D001312FD001302FD0BCF1FF3F08BF11
:1014D800032218D0164B4FF080529A6174E71A46CF
:1014E80013440AEB830C1448CCF8040001220021B1
:1014F800ACF808208CF80A1006F0B6FE4B23AAF8C0
:101508003030E7E71A4602EB42034B212AF8231052
:101518005300E5E701220223E2E702220423DFE782
:1015280003220623DCE70122EDE70222EBE700BFF6
:101538000004024000093D00409C7102F0000020B8
:1015480090F8443003B9704710B5284CB4F900201E
:1015580000234B2A80F8443038D0B4F90C104B29BA
:1015680036D0B4F918004B2835D0B4F924C0BCF1F2
:101578004B0F33D001320DD0013132D0013032D08F
:10158800BCF1FF3F08BF032205D0194B4FF0805232
:101598009A6110BD1A4602EB42034B2124F823102E
:1015A8005300134404EB830C01221248ACF80820C2
:1015B8000021CCF804008CF80A1006F055FE4B23E5
:1015C80023860B4B4FF080529A6110BD1A46E8E70C
:1015D80001220223E5E702220423E2E7032206238D
:1015E800DFE70122D7E70222D5E700BFF00000209D
:1015F80000040240409C71022DE9F043044690F833
:10160800850083B000287AD1656F1F46636E0D444C
:101618009D4274DBE36E9D4271DAA66F236F164418
:101628009E426CDAA16E8E4202DA761A37440E4672
:1016380006EB07084345BCBF9F1B9846002F5EDD9D
:1016480094F84430002B5DD108F1FF3300932368F0
:1016580032462946DE6B20462B46B0470A9B394660
:1016680098B207F029FA94F84530002B47D194F83E
:101678004430002B43D1DFF834914949B9F90020AF
:1016880001234FF480504B2A84F84430886108D1F4
:10169800444AC9F804204FF6FF71A9F80010A9F8C8
:1016A8000830B9F90C304B2B09D13E4AC9F8102043
:1016B8004FF6FF710123A9F80C10A9F81430B9F9F5
:1016C80018304B2B09D1374AC9F81C204FF6FF7147
:1016D8000123A9F81810A9F82030B9F924304B2BA8
:1016E80009D1304AC9F828204FF6FF710123A9F81B
:1016F8002410A9F82C304FF6FF73A9F8303003B046
:10170800BDE8F083DFF8A490B9F9002000234B2A44
:1017180084F8443035D0B9F90C104B2933D0B9F9D5
:1017280018004B2832D0B9F924C0BCF14B0F30D087
:1017380001320DD001312FD001302FD0BCF1FF3F45
:1017480008BF032205D0164B4FF080529A617BE701
:101758001A4602EB42034B2129F823105300134485
:1017680009EB830C1048CCF8040001220021ACF8E6
:1017780008208CF80A1006F077FD4B23A9F83030C2
:10178800E1E71A46EBE701220223E8E702220423F5
:10179800E5E703220623E2E70122DAE70222D8E797
:1017A8000004024000093D00409C7102F000002046
:1017B8002DE9F043044690F8850083B0002879D1DC
:1017C800A56F1F46A36E15449D4273DB666FE26EDC
:1017D8000E4496426EDA236F9D426BDA636E9E4228
:1017E80002DAF61A37441E4606EB07094A45BCBF1B
:1017F800971B9146002F5DDD94F84430002B5CD197
:10180800009520682A4609F1FF33C56B314620460A
:10181800A8470A9B394698B207F04EF994F8453024
:10182800002B47D194F84430002B43D1DFF83481A2
:101838004949B8F9002001234FF480504B2A84F815
:101848004430886108D1454AC8F804204FF6FF7132
:10185800A8F80010A8F80830B8F90C304B2B09D1BB
:101868003E4AC8F810204FF6FF710123A8F80C1063
:10187800A8F81430B8F918304B2B09D1374AC8F8F2
:101888001C204FF6FF710123A8F81810A8F8203083
:10189800B8F924304B2B09D1304AC8F828204FF624
:1018A800FF710123A8F82410A8F82C304FF6FF7315
:1018B800A8F8303003B0BDE8F083DFF8A880B8F9A5
:1018C800002000234B2A84F8443035D0B8F90C1096
:1018D8004B2933D0B8F918004B2832D0B8F924C0B6
:1018E800BCF14B0F30D001320DD001312FD0013077
:1018F8002FD0BCF1FF3F08BF032205D0164B4FF095
:1019080080529A617CE71A4602EB42034B2128F881
:1019180023105300134408EB830C1148CCF804003F
:1019280001220021ACF808208CF80A1006F09CFC73
:101938004B23A8F83030E1E71A46EBE701220223EF
:10194800E8E702220423E5E703220623E2E701226F
:10195800DAE70222D8E700BF0004024000093D0090
:10196800409C7102F00000202DE9F8430446406FC6
:101978000E18616E8E42C0F2A480A56F9846A36EC1
:1019880015449D42C0F29D80E36E9E4280F299808C
:10199800236F9D4280F2958094F84430002B40F0EC
:1019A80092806E4FE36D9E4217D0DFF8B4914FF4EA
:1019B8000013C9F8183001202A2387F8A03007F04F
:1019C800DBF92023C9F81830042073BAA7F8A2302D
:1019D800A7F8A03007F0D0F9E665A36D9D4214D0B2
:1019E8005F4E4FF40013B36101202B2387F8A0301A
:1019F80007F0C2F92023B36104206BBAA7F8A2301C
:101A0800A7F8A03007F0B8F9A565554D4FF40013B5
:101A1800AB6101202C2387F8A03007F0ADF9202313
:101A28004FEA18214FEAD802AB6121F007014FEACB
:101A3800C80322F00302032087F8A23087F8A01019
:101A480087F8A12007F098F994F84530002B38D191
:101A580094F84430002B34D1B7F9002041490123D0
:101A68004FF480504B2A84F84430886105D13E4AAF
:101A78007A604FF6FF7139803B81B7F90C304B2BF8
:101A880006D1394A3A614FF6FF710123B981BB8209
:101A9800B7F918304B2B06D1334AFA614FF6FF716C
:101AA800012339833B84B7F924304B2B06D12E4AC6
:101AB800BA624FF6FF710123B984BB854FF6FF73F5
:101AC8003B86BDE8F883254FB7F9002000234B2A51
:101AD80084F8443035D0B7F90C304B2B33D0B7F9F4
:101AE80018104B2932D0B7F924004B280ED00132F8
:101AF8001FD001332DD001312DD0013008BF032272
:101B080018D0184B4FF080529A614BE703220623F6
:101B1800134407EB830C1548CCF80400012200217C
:101B2800ACF808208CF80A1006F09EFB4B233B8685
:101B3800E7E7002202EB42034B2127F8231053006A
:101B4800E6E71A46E4E701220223E1E7022204233A
:101B5800DEE70122EEE70222ECE700BFF0000020FA
:101B6800000802400004024000093D00409C710248
:101B780010B490F8854014B95DF8044BF4E65DF8AC
:101B8800044B70472DE9F0430446406F0E18616E10
:101B98008E4283B049DB1F46E36E9E4245DAA56F4D
:101BA800236F15449D4240DAA16E8D4240DB05EB60
:101BB80007084345BCBF5F1B9846002F35DD94F8E6
:101BC8004430002B38D108F1FF33009323682A46AC
:101BD8003146DD6B20463346A8470A9B394698B202
:101BE80006F06AFF94F84530FBB994F84430E3B93D
:101BF800DFF844914D49B9F9002001234FF4805092
:101C08004B2A84F8443088613CD0B9F90C304B2B0E
:101C18004DD0B9F918304B2B3ED0B9F924304B2BA5
:101C280050D04FF6FF73A9F8303003B0BDE8F08309
:101C38006D1A2F440D46BAE7DFF8FC90B9F9002079
:101C480000234B2A84F8443060D0B9F90C104B2992
:101C58005ED0B9F918004B285DD0B9F924C0BCF1A1
:101C68004B0F5BD001325CD001315CD0013034D0F5
:101C7800BCF1FF3F08BF032230D02C4B4FF08052FD
:101C88009A61A0E72A4AC9F804204FF6FF71A9F81B
:101C98000010A9F80830B8E7254AC9F81C204FF603
:101CA800FF710123A9F81810A9F82030B5E7204AD8
:101CB800C9F810204FF6FF710123A9F80C10A9F8F4
:101CC8001430A6E71A4AC9F828204FF6FF710123F5
:101CD800A9F82410A9F82C30A3E7022202EB42034A
:101CE8004B2129F823105300134409EB830C1148A6
:101CF800CCF8040001220021ACF808208CF80A1066
:101D080006F0B2FA4B23A9F83030B6E71A46EBE7EB
:101D180001220223E8E702220423E5E7032206233F
:101D2800E2E71A46DAE70122D8E700BF00040240DA
:101D380000093D00409C7102F00000202DE9F043AD
:101D48000446806F1618A26E964283B048DB656F12
:101D5800E26E0D44954243DA1F46236F9E423FDAF6
:101D6800636E9D423FDB05EB07094A45BCBF571B25
:101D78009146002F34DD94F84430002B37D100967B
:101D88002068294609F1FF33C56B32462046A8472B
:101D98000A9B394698B206F08FFE94F84530FBB995
:101DA80094F84430E3B9DFF844814D49B8F900208C
:101DB80001234FF480504B2A84F8443088613CD08A
:101DC800B8F90C304B2B4DD0B8F918304B2B3ED00E
:101DD800B8F924304B2B50D04FF6FF73A8F83030A9
:101DE80003B0BDE8F083ED1A2F441D46BBE7DFF8CA
:101DF800FC80B8F9002000234B2A84F8443060D0D6
:101E0800B8F90C104B295ED0B8F918004B285DD0F2
:101E1800B8F924C0BCF14B0F5BD001325CD0013162
:101E28005CD0013034D0BCF1FF3F08BF032230D072
:101E38002B4B4FF080529A61A1E72A4AC8F8042038
:101E48004FF6FF71A8F80010A8F80830B8E7254A3F
:101E5800C8F81C204FF6FF710123A8F81810A8F83D
:101E68002030B5E71F4AC8F810204FF6FF7101234C
:101E7800A8F80C10A8F81430A6E71A4AC8F82820C1
:101E88004FF6FF710123A8F82410A8F82C30A3E717
:101E9800022202EB42034B2128F82310530013447B
:101EA80008EB830C1048CCF8040001220021ACF8A0
:101EB80008208CF80A1006F0D7F94B23A8F8303020
:101EC800B6E71A46EBE701220223E8E702220423D9
:101ED800E5E703220623E2E71A46DAE70122D8E714
:101EE8000004024000093D00409C7102F0000020FF
:101EF8002DE9F04F1F4685B090F885300E9C002BD9
:101F080040F0A680A51AA7EB010A0123164680F81F
:101F1800453085EAE5728AEAEA73A2EBE572A3EB3B
:101F2800EA739A42814600F396801546B9420BDD62
:101F3800351BB446002D264664468C46A1EB070A9D
:101F4800B8BF6D4239466746B442D4BF4FF0FF3040
:101F580001209A4203904FEA6A0440F395808F4229
:101F680036DB01F1010800230A46B34604E0464681
:101F7800B74208F1010820DB641B03F10103F6D521
:101F8800012B71D0D9F800606E49F6698E4240F095
:101F9800C38099F885602EB90F9900914846594633
:101FA800FFF7F0FD039B4646B7429B444246544424
:101FB8004FF0000308F10108DEDA114643B10F9A29
:101FC8000092D9F800400A46E46959464846A047B5
:101FD80099F8463089F84530002B39D199F84430C2
:101FE800002B35D15849594B01224FF4805489F8B8
:101FF80044208C61B3F900104B2905D1544959602C
:102008004FF6FF7018801A81B3F90C204B2A06D1BD
:102018004F4919614FF6FF70012298819A82B3F9EE
:1020280018204B2A06D14A49D9614FF6FF70012280
:1020380018831A84B3F924204B2A06D1444999629B
:102048004FF6FF70012298849A854FF6FF721A8620
:1020580005B0BDE8F08FBE468C4627463146AA46F5
:10206800744666461D4661E7D9F800301E69394B4B
:102078009E425DD199F88530002B93D10F9B59462C
:102088004846FFF771FC8DE78F42A1DB01F101089B
:102098000023B34604E04646B74208F101081FDBB7
:1020A800641B03F10103F6D5012B25D0D9F8006094
:1020B800294A366A964235D199F885602EB90F9A21
:1020C800009248465A46FFF739FE039B4646B742F8
:1020D8009B44414654444FF0000308F10108DFDAFD
:1020E800002B3FF475AF0F9A0092D9F800405A467A
:1020F800246A4846A0476BE7D9F800301E69154B9B
:102108009E421AD199F88530002BDED10F9B5A4692
:102118004846FFF729FCD8E70F99009148465946E9
:10212800B0473FE70F9A009248465A46B047CCE777
:102138000F9B59464846B04734E70F9B5A464846D6
:10214800B047C2E70116000800040240F000002072
:1021580000093D00791B0008B91700082DE9F04F68
:1021680004462DED048BD4F89830E26826690846B9
:10217800D4F8881093B08B4218BFC4E925112028E1
:10218800059204D800F059830A2800F07983B4F83E
:10219800B870002F00F08882D4F8C8304FF00009DA
:1021A800023B06E009F101091FFA89F2974240F261
:1021B8007B8233F8022F82424FEA4905F2D194F824
:1021C800A3309BB3D4F8D030D4F8DC2013F809300E
:1021D80012F90970784A0B441F4423685B6B9342D9
:1021E80040F0698494F88430002B40F05D84B4F9A1
:1021F800500087421ADDD4F88C30B4F8BA7094F8DD
:10220800A41000223B44C4F88C30C4F88820C4F8D9
:102218009420002940F0C5829BB2D4F8DC1011F953
:10222800092052424944C4F888200DE094F8A430AB
:10223800002B40F0B282B4F88C30D4F88820002A01
:10224800EBD0D4F8DC10494491F900100A44B4F8F2
:10225800C2100B4498B2D4F8D83010905B5B11933D
:10226800C31AD4F8B400039098B21BB20E9394F832
:1022780044100D9093B2069313B20793002940F0CF
:10228800B78394F8B03040F20112A4F84520002B2F
:1022980000F09683D4F8D430D4F89410D4F8882079
:1022A80013F80930521A134418B200280F9040F35B
:1022B800F883D4F8D8305A5BB4F8C2309B1A1BB2F2
:1022C800002B0BDD00932368226901925D6AD4F824
:1022D8008C2003462046A847D4F89410079A8A42CF
:1022E8000EDD23690193D4F8CC3013F8093000933C
:1022F800236820465D6A531A0E9AA847D4F89410AA
:10230800079BD4F888208B42BDBF069BCB1A1BB213
:1023180000230C93D4F8D03013F80910079B194404
:10232800D4F8D43013F80930134499420CDA2269EE
:102338000192D4F8CC2012F80920009222685B1A86
:10234800556A0E9A2046A847D4F8CC0010F80930F0
:10235800002B00F03281059ACDF81090C2F3852346
:1023680003F03E0301330993C2F30B1303F07E031A
:1023780001330A93530003F03E0301330B93079B89
:102388000E9A4FEA890109EE103A08EE103A89468A
:10239800D4F8D0300499595C1FFA86FB4FF0000A34
:1023A800002900F006810D9B534400259BB208EEDE
:1023B800903AA846029581E0D1010008B8F1000FD3
:1023C80013D02368B0491B6A8B421E4640F0C8826E
:1023D80094F885304BB919EE101ACDF800B0434681
:1023E80020460892FFF7AAFC089A029BFF2F00F0EC
:1023F8006E82BBB1012B236800F09282D3F8208053
:10240800A149BDF81430884540F0B48294F885108D
:1024180041B9009318EE101A029B02922046FFF76A
:102428008DFC029A236C43B10292069A501918EE59
:10243800901A80B29847029A83464FEA1B10C7F158
:10244800FF030A99099E00F07E0000FB033001FBA0
:1024580007004FEA9B2101F03E0101FB033107FB16
:10246800061140124001491240EAC1214FEA4B00CF
:1024780000F03E0000FB03330B9800FB073741EAEE
:102488006727216881480E6907998642BBB22944AB
:1024980040F0398294F88500002840F02B8280466D
:1024A80020460892FFF760FA049AD4F8D030CDF8A5
:1024B8000880995C089A0135A9423DDDD4F8E030DE
:1024C80053F80900039B2B4401FB0A331F5C002FC0
:1024D8007FF474AF029EBEB123686B481F6ABDF8D3
:1024E8001430874240F02F8294F8850060B918EEC6
:1024F800101A0093204633460292FFF71FFC049AF5
:10250800D4F8D030995C029A94F8B060002E00F0AC
:10251800DC810C9BAB4200F3EA81B8F1000F04D1D7
:10252800069B2B441BB209EE103A01350023A94241
:1025380008F101080293C1DC029E9EB1236852494A
:102548001D6ABDF814308D4240F0278294F885103A
:1025580041B9009318EE101A334620460292FFF74D
:10256800EDFB029AB8F1000F12D023681D6A464BA2
:102578009D4240F0088294F885304BB919EE101A44
:10258800CDF800B0434620460292FFF7D7FB029AE7
:10259800D4F8CC00049BC35C0AF1010A9A4580F286
:1025A8000582D4F8D0300499595C013200297FF4AF
:1025B800FAAEDDF8109010F809300F98C8B1B4F8E9
:1025C800BA10D4F88C200A44119911440A4610997B
:1025D800521AD21A12B2002A0BDD00920E9A2569FD
:1025E800D4F894101A44034620680195456A204699
:1025F800A847D4F8D420D4F8883012F80900227AF1
:1026080000210344C4F88830A4F8451022B1204FB3
:1026180097F81521032AFBD094F84420002A40F0AB
:10262800B5801B4F1B48B7F9001001224FF48055A5
:102638004B2984F84420856105D14FF6FF71398014
:10264800154979603A81B7F90C204B2A06D14FF623
:10265800FF721149BA8101223961BA82B7F918208B
:102668004B2A06D14FF6FF720B493A830122F961D2
:102678003A84B7F924204B2A12D14FF6FF72064943
:10268800BA8401220AE000BFB9170008791B0008C4
:10269800F00000200004024000093D00B962BA853C
:1026A8004FF6FF723A8671E0D4F88C30B4F8C25015
:1026B800DFF838B3B4F9BE60BDF81490B4F8BCA024
:1026C8001D442368D3F820800122D84584F845208A
:1026D800A5EB060740F0D08194F885205AB95346F7
:1026E800CDF800903A4620460291FFF727FB236871
:1026F8000299D3F82080D84505F1FF3240F0C8810F
:1027080094F88500002840F09A815346CDF800904F
:1027180020460291FFF712FB23680299DD69B31E78
:10272800AC4EB54207F1010240F0918194F8850062
:10273800002840F09781CDF800902046CDE903238A
:102748000291FFF71FFADDE90212049B2068C569B0
:102758005144B54201F1FF3140F0898194F8850078
:1027680020B9CDF800902046FFF70CFA94F84630CF
:1027780084F8453013B994F844303BB3B4F8BC300E
:10278800D4F8882001331344C4F88830C4E92533C9
:1027980013B0BDEC048BBDE8F08FD4F88C30B4F8DE
:1027A800BA708D4A1F4423681B6B934240F087819F
:1027B80094F88430002B40F07B81B4F954008742B0
:1027C800FFF639AD0023C4F88C3036E5834F8449D1
:1027D800B7F9002001234FF480504B2A84F8443085
:1027E800886105D17F4A7A604FF6FF7139803B8155
:1027F800B7F90C304B2B06D17A4A3A614FF6FF7184
:102808000123B981BB82B7F918304B2B06D1754A21
:10281800FA614FF6FF71012339833B84B7F92430FD
:102828004B2B06D16F4ABA624FF6FF710123B98468
:10283800BB854FF6FF733B86A0E794F8B0309BB199
:10284800B4F8BC30D4F894002268B6B201960B44B0
:10285800B4F8BA100091556AD4F88C2001461B1AB6
:102868002046A847D4F88810B4F8BC301944C4E905
:102878002511C4F8881013B0BDEC048BBDE8F08FA7
:10288800D4F88C10B4F8BA5094F8A42000230D445E
:10289800C4E92533C4F88830C4F88C50002A3FF4C2
:1028A80077AF23684C4A1B6B934240F0268194F81B
:1028B8008430002B40F01E81B4F954008542FFF6A5
:1028C80067AF0023C4F88C3062E70296F3E523B9BA
:1028D800069B2B441BB208EE103A029B0499013365
:1028E8000293D4F8D0304FF00008595CE3E5002398
:1028F8000293E0E5D4F8D03004994FF00008595C11
:10290800CDF80880D7E508922046B047049AD4F855
:10291800D0304FF00008995CCDF80880089ACAE5D5
:102928001E693149BDF814308E4242D194F88510A1
:1029380000297FF477AD18EE101A20460292FFF7AF
:1029480013F8029A6EE518EE101A00932046029BBF
:102958000292B847049AD4F8D030995C029AD3E529
:10296800089219EE101ACDF800B043462046B04739
:10297800089A3AE5009318EE101A029B0292204634
:10298800C047029A4EE5029219EE101ACDF800B02F
:1029980043462046A847029AFAE50093029218EEA9
:1029A800101A33462046A847029ADBE5DDF8109056
:1029B80003E6029218EE101A2046B047029A31E553
:1029C800D4F8CC0010F80920002A3FF412AE0F9377
:1029D8000C93C0E401160008E5010008F00000208F
:1029E8000004024000093D00791B0008B9170008DF
:1029F8004A4FB7F9000000234B2884F8443000F010
:102A08008A80B7F90C104B2900F08280B7F918209A
:102A18004B2A7AD0B7F924C0BCF14B0F72D00130E1
:102A280051D001314ED001326AD0BCF1FF3F08BF0E
:102A3800032348D03A4B4FF080529A6121E4DD6974
:102A4800B31E384EB54207F101023FF48FAECDE90F
:102A580003230291CDF800902046A847DDE903231F
:102A6800029973E6B5423FF481AE51440139CDF87D
:102A780000902046A84779E653460291CDF8009089
:102A88003A462046C04723680299D3F8208032E6A8
:102A980053460291CDF800902046C047236802991A
:102AA8003CE600230F9319E4B4F97C00FFF7A1BBBF
:102AB800B4F9800083E620469847FFF79ABB204682
:102AC80098477CE6012303EB43024B2127F82210A9
:102AD8005A00134407EB830C1348CCF80400012276
:102AE8000021ACF808208CF80A1005F0BDFB4B2338
:102AF8003B869FE7B4F98000E0E620469847DDE68C
:102B08000223E0E703230622E3E702230422E0E7A7
:102B180001230222DDE71A46DBE700BFF0000020B0
:102B28000004024001160008409C71022DE9F0479C
:102B38001F46436FCE18C36E82B09E42DDF82880D0
:102B480058DA856F0446006F1544854252DA626E82
:102B5800964202DAB61A37441646A16E8D4202DA58
:102B68006D1AA8440D46F21905EB08099342B8BF3F
:102B78009F1B4845BCBFA0EB05088146002F39DDE7
:102B8800B8F1000F36DD94F84430B3BB09F1FF33D8
:102B9800009323682A46DD6BF319013B3146204632
:102BA800A8470B9B08FB07F198B205F085FF94F83E
:102BB8004530FBB994F84430E3B9DFF83CA14B4900
:102BC800BAF9002001234FF480504B2A84F844308E
:102BD800886159D0BAF90C304B2B4AD0BAF9183061
:102BE8004B2B3BD0BAF924304B2B2CD04FF6FF732C
:102BF800AAF8303002B0BDE8F087DFF8FCA0BAF9D7
:102C0800002000234B2A84F8443060D0BAF90C1015
:102C18004B295ED0BAF918004B285DD0BAF924C008
:102C2800BCF14B0F5BD0013238D001315AD00130A2
:102C38005AD0BCF1FF3F08BF032230D02B4B4FF0D6
:102C480080529A61A2E72A4ACAF828204FF6FF71F3
:102C58000123AAF82410AAF82C30C7E7244ACAF896
:102C68001C204FF6FF710123AAF81810AAF820308B
:102C7800B8E71F4ACAF810204FF6FF710123AAF8D7
:102C88000C10AAF81430A9E7194ACAF804204FF61C
:102C9800FF71AAF80010AAF808309BE71A4602EB61
:102CA80042034B212AF82310530013440AEB830CE8
:102CB8001048CCF8040001220021ACF808208CF858
:102CC8000A1005F0D1FA4B23AAF83030B6E71A46B5
:102CD800EBE701220223E8E702220423E5E70322C7
:102CE8000623E2E70122DAE70222D8E700040240DD
:102CF80000093D00409C7102F00000202DE9F04FD2
:102D08001F468BB090F885309DF85850CDE90321C7
:102D18000446002B40F0DC801F2F40F2D980436F1F
:102D280001EB0308C36E984580F2D2801046A26F6B
:102D380000EB0209226F914580F2CA80606E06217D
:102D480011FB0586864240F3C380D4F868C0082684
:102D580016FB059EE64540F3BB808045C0F2BB806C
:102D6800607F11FB00818B4240F3B580E145C0F2E2
:102D7800B28016FB0090824240F3AD80012D40F0F6
:102D8800AA80DDE91423934200F0A58094F844302A
:102D9800A04E002B40F04A81236809F107020092F7
:102DA800D3F83CA04A46204608F105034146D047DF
:102DB80007EB8707984B0594D8590890DA193446D9
:102DC80013798DF82430159B4FEA132A4FEAD3095B
:102DD8004FEAC308149B4FEA132B0BF0F803029336
:102DE800149BDA08DB00DBB202F0FC020393082331
:102DF8000AF0F80A09F0FC095FFA88F804930DF163
:102E08002507934608AE234634461E4614F8011B90
:102E1800294200F0F480029B86F8A030039B86F8D4
:102E2800A1B086F8A230032005F0A6FFBC42EDD180
:102E380086F8A0A086F8A19086F8A280032005F065
:102E48009BFF049B5A1E6D0012F0FF033446EDB23F
:102E58000493D7D1059C94F84530002B38D194F8C9
:102E68004430002B34D1B6F900206C4901234FF4CB
:102E780080504B2A84F84430886105D1684A7260D2
:102E88004FF6FF7131803381B6F90C304B2B06D1E8
:102E9800634A32614FF6FF710123B181B382B6F9FB
:102EA80018304B2B06D15E4AF2614FF6FF710123B1
:102EB80031833384B6F924304B2B06D1584AB26299
:102EC8004FF6FF710123B184B3854FF6FF73338644
:102ED8000BB0BDE8F08F504BDFF84CA1DDF8109037
:102EE80007EB87073B440593012384F8453000230B
:102EF8000293A346029B052B16BF059A0027D75CB1
:102F0800012D03D1DDE9142393422CD0DDF80C8088
:102F1800082617E0DBF800305C6A54455DD19BF861
:102F2800853043B9149BCDE9005342462B464946A8
:102F38005846FFF7FBFD013E16F0FF064FEA57071C
:102F4800A84436D0FB07E5D4DDE914239342F2D038
:102F5800DBF800305C6A544548D19BF88530002B7B
:102F6800E9D1159BDFE7039B049907951A4603F1FE
:102F78000804029B03EB01084146DDF85080164621
:102F88002546FA070FD5DBF800301C69254B9C4213
:102F98002ED19BF8853033B94346324658460691C0
:102FA800FEF7E2FC06990136B5424FEA5707E8D129
:102FB800079D029B0133062B0293A9449AD19BF8E3
:102FC80046308BF845305C46002B81D19BF8443065
:102FD800002B7FF47DAF0F4E45E7149BCDE90053DE
:102FE80042462B4649465846A047A4E7159BF5E7B5
:102FF8000691324643465846A0470699D3E786F8D5
:10300800A0A086F8A19086F8A280032005F0B4FE5F
:103018000CE700BFF000002010A8000800040240E0
:1030280000093D00791B000869130008B6F900C0C3
:103038000023BCF14B0F84F8443020D0B6F90C00C3
:103048004B282ED0B6F918104B292CD0B6F92420CD
:103058004B2A30D0BCF1FF3F0BD0013025D00131D5
:1030680006D0013224D0154B4FF080529A6193E676
:1030780002231A460C2101FB02F24B21B15203EB49
:10308800430306EB830C0E48CCF804000122002110
:10309800ACF808208CF80A1005F0E6F84B233386C4
:1030A800E1E72B46EBE70223E9E72B462A46E1E76F
:1030B80003231A46DEE70323E1E700BF00040240CA
:1030C800409C71022DE9F04F2DED028B8FB0203915
:1030D8009DF868700492022F994604468BB200F05E
:1030E8003181FA1E052A40F2FF800023CDE905331D
:1030F8000A930893636F049A607F1A44A36F0B9234
:1031080015464B44059A0993636E02FB0051994298
:10311800C0F2FC80E26E954280F2F8800B9A9A42E7
:1031280003DBE36E9942C0F21A810125022F00F0F9
:10313800508194F84430002B40F039840121D4E9BF
:10314800033284F84510DDE90516934206FB01F1C8
:10315800079100F0A583012800F00F81079A002A43
:1031680079D04FF0010E08EE109A8446DFF8ECB2E1
:10317800DDF81480DDF820A0DDF8109000277246F5
:10318800204618E001698CB29942039400F0D4807B
:10319800B7FBF8F66B1C08FB167457FA83F718EEA2
:1031A800103A0CFB04910CFB0636C2B90022079BAF
:1031B800BB424EDDC3681AF8015B2906E2D5B7FBAE
:1031C800F8F69BB205F07F0503936B1C08FB167499
:1031D8001F4418EE103A0CFB04910CFB06360497BA
:1031E800002207460132131998450CFB02F315DC3F
:1031F8003A68546A5C45324640F0948097F88540B6
:1032080044B90398CDF800C001903846FFF78EFC0A
:1032180097F81DC00022144666444946013DEDB2A8
:10322800FF2DDFD13846049F002A00F08980039BD8
:103238000390CDE900C3046802FB0CF3646A3246CC
:10324800A047079B0398BB4290F81DC04FF00102AE
:10325800B0DC0446604694F8463084F84530002BCC
:1032680039D194F84430002B35D1784A784E01236F
:103278004FF4805184F844309161B6F900204B2A0C
:1032880005D14FF6FF723280724A72603381B6F907
:103298000C304B2B06D14FF6FF736E4AB3810123D6
:1032A8003261B382B6F918304B2B06D14FF6FF7353
:1032B800684A33830123F2613384B6F924304B2BF7
:1032C80006D14FF6FF73634AB3840123B262B38514
:1032D8004FF6FF7333860A9B10FB03F000B20FB062
:1032E800BDEC028BBDE8F08F5B4907EB470201EBB1
:1032F800820292F868100691D2E91821C95C52F846
:10330800233008938BB205910A93F3E6099E069D34
:10331800A26E05FB00659542DDDB226F9642FFF643
:10332800FDAED8E7039ACDF800C001923846324680
:10333800A04797F81DC06DE7013557FA85F735E7BF
:10334800012234E7444A10210691D15C059102EB31
:103358008303D3F8D03508938BB20A93CAE6A36ED9
:10336800099A9A42FFF6E1AE0699236F01FB002500
:103378009D42B4BF00250125D8E6002D7FF4EEAEAE
:10338800099A0B9933461344013B0093059B206827
:103398000B44C56B013B2046A847079BBBB1089D62
:1033A8001E4695F900202B78002A03F10102D2B2BB
:1033B80003F07F0303F101031146C0F23883B61A04
:1033C800208A05F079FB002E05F10105E9DC607F14
:1033D80041E7D4E9033205990631C91093420391B4
:1033E80002D0012800F02E83012184F845100699A7
:1033F80000293FF430AF0021DFF860B0DDF820A0ED
:103408000791164619464A460346B14214D0216828
:103418004D6A05995D4503FB01F140F02E8294F851
:1034280085504DB9CDE9003620460B4604990892DF
:10343800FFF77CFB637F089A0399002900F07381EA
:1034480004990026CF1DA146C5E000BF0004024034
:10345800F000002000093D003CA70008691300089F
:10346800049906FB03F801EBC808290600F16881F6
:103478006C0615D5D9F80010D9F80C004C6A5C45D3
:1034880008EB030140F0C08199F8854044B9CDE9C3
:10349800003048460892FFF749FB99F81D30089A12
:1034A800A80615D5D9F80010D9F80C004C6A5C4567
:1034B80008EB430140F07B8199F8854044B9CDE998
:1034C800003048460892FFF731FB99F81D30089AFA
:1034D800E90616D5D9F80010D9F80C004C6A032172
:1034E8005C4511FB038140F06B8199F8854044B934
:1034F800CDE9003048460892FFF718FB99F81D30CF
:10350800089A2C0715D5D9F80010D9F80C004C6A80
:103518005C4508EB830140F05C8199F8854044B92B
:10352800CDE9003048460892FFF700FB99F81D30B6
:10353800089A680716D5D9F80010D9F80C004C6A13
:1035480005215C4511FB038140F04C8199F88540C9
:1035580044B9CDE9003048460892FFF7E7FA99F8F0
:103568001D30089AA90716D5D9F80010D9F80C000B
:103578004C6A06215C4511FB038140F00F8199F8E4
:10358800854044B9CDE9003048460892FFF7CEFAA5
:1035980099F81D30089AEC0716D5D9F80040D9F8E3
:1035A8000C50646A07215C4511FB038140F02381BC
:1035B80099F8854044B9CDE9003548460892FFF7A7
:1035C800B5FA99F81D30089A03990136B14207F106
:1035D800080700F0A78016F80A50002DF4D0012B38
:1035E8007FF43EAF2806A7F1070100F1C3806B0600
:1035F80012D5D9F80030A9481C69D9F80C30844292
:10360800A7F1060140F0348199F8854024B948466D
:103618000892FEF7A9F9089AAC0612D5D9F8003035
:103628009E481C69D9F80C308442A7F1050140F086
:10363800128199F8854024B948460892FEF794F912
:10364800089AE80612D5D9F8003094481C69D9F8C8
:103658000C308442A7F1040140F0E98099F88540D4
:1036680024B948460892FEF77FF9089A290712D527
:10367800D9F8003089481C69D9F80C308442A7F180
:10368800030140F0D98099F8854024B9484608924A
:10369800FEF76AF9089A6B0712D5D9F800307F4807
:1036A8001C69D9F80C308442A7F1020140F0C980A6
:1036B80099F8854024B948460892FEF755F9089AC2
:1036C800AC0712D5D9F8003074481C69D9F80C3009
:1036D800844207F1FF3140F0B98099F8854024B958
:1036E80048460892FEF740F9089AE8073FD5D9F806
:1036F80000306A491C69D9F80C308C4240F0B0801F
:1037080099F8851099BB394648460892FEF72CF976
:10371800039999F81D30089A0136B14207F1080754
:103728007FF459AF4C4603980799824406980131B3
:10373800884207911A4400F0AF80D4E9031664E682
:10374800D9F800104C6AD9F80C105C4565D199F885
:103758008540002C7FF48CAECDE9003148464146C7
:103768000892FFF7E3F999F81D30089A80E699F86E
:103778001D3029E7D9F8003048481C69D9F80C30C1
:10378800844240F0848099F88540002C7FF42FAF64
:1037980048460892FEF7E8F8089A28E7CDE900308D
:1037A80008924846A04799F81D30089AF3E6CDE9F3
:1037B800003008924846A04799F81D30089A87E6D5
:1037C800CDE9003008924846A04799F81D30089A7C
:1037D80097E6CDE9003008924846A04799F81D3091
:1037E800089AA6E6CDE9003008924846A04799F81D
:1037F8001D30089AB6E6CDE9003508924846A0473C
:1038080099F81D30089ADFE6CDE90030089248465D
:10381800A04799F81D30089A42E6CDE90031089290
:1038280041464846A04799F81D30089A20E6089274
:103838004846A047089A19E708924846A047089AB8
:1038480029E708924846A047089A39E70892484667
:10385800A047089A49E708924846A047089AF0E620
:10386800089239464846A04799F81D30089AABE6B1
:1038780008924846A047089ACEE6CDE90036089255
:103888000B4620460499A847637F089AD4E5089216
:103898004846A047089AAAE61846DCE4791B0008BF
:1038A800002D7FF45BAC10FB00F3DAB2431E0492E8
:1038B8005FFA83FB00293FF4CEAC531EA9460D9353
:1038C800B74D06E0013359FA83F9079B4B457FF75B
:1038D8007EAD089A12F8013B08921806F2D503F05B
:1038E8007F030693BBF1000F00F09780059A637F72
:1038F800B9FBF2F802FB18960B9A03FB0626099A05
:1039080003FB08289DF83430069FDDF82CA00393AC
:10391800CDF830901EE0E3681A0A032022F007026F
:1039280085F8A02023FA00F222F00302834085F8EC
:10393800A12085F8A23005F01FFA637F059A1E447E
:1039480003FB02A2964201DB98445646013FFFB2B0
:10395800FF2F5AD0236808EB0B020092D3F83C9053
:10396800424606EB0B0331462046C847BBF1000F21
:10397800D1D0DDE90393002BDFD0E3681A0A0320D6
:1039880022F0070285F8A02023FA00F222F00302B1
:10399800834009F1FF3985F8A12085F8A2305FFA44
:1039A80089F905F0E9F9B9F1FF0FE6D1C5E77C4ED1
:1039B800B6F900304FF0000C4B2B84F844C000F0EF
:1039C8003381B6F90C704B2F00F03481B6F918101A
:1039D8004B2900F02B81B6F924204B2A00F02081D6
:1039E800013300F0E580013700F0E080013100F09C
:1039F8002581013208BF4FF0030C00F0D980694BD4
:103A08004FF080529A61FFF799BBDDF83090069B22
:103A180009F101094B44994657E7059BB9FBF3F8AF
:103A280003FB18960B9B1E44099B98446AE7F61AF9
:103A3800A089194605F040F8002E05F101053FF769
:103A4800B0ACC4E4002D7FF4CFAC94F84430002B24
:103A580040F0C480069E099A0B999319013B009384
:103A68002368DD6B059BCB18013B2046A847002E39
:103A780055D0089A039BDFF828B1D31807939846C6
:103A880000230493039B9146059D2BB399F800A04E
:103A9800A5F1080780260320D5B11AEA060F12BF40
:103AA800E3682369032023FA00F2190A21F00701C9
:103AB80022F0030283408BF8A0108BF8A1208BF82A
:103AC800A230013D05F058F9BD424FEA5606E2D151
:103AD80009F10109C145D9D175B9049B0699039A21
:103AE80007980133994204939044814617D00346BE
:103AF800134407931346C7E723691A0A032022F0E1
:103B080007028BF8A02023FA00F222F00302834078
:103B18008BF8A1208BF8A23005F02EF9DDE794F898
:103B28004530002B39D194F84430002B35D11C4E48
:103B38001C49B6F9002001234FF480504B2A84F821
:103B48004430886105D14FF6FF723280164A7260A0
:103B58003381B6F90C304B2B06D14FF6FF73124A5E
:103B6800B38101233261B382B6F918304B2B06D1E9
:103B78004FF6FF730C4A33830123F2613384B6F99D
:103B880024304B2B06D14FF6FF73074AB384012329
:103B9800B262B3854FF6FF733386607FFFF79BBB36
:103BA800F00000200004024000093D004FF0010C25
:103BB8000CEB4C034B2226F823204FEA4C036344BA
:103BC80006EB830730487860012200213A81B972F8
:103BD80004F04AFB4B233386607F10E72B4E84F8B2
:103BE8004450B6F900204B2A46D0B6F90C104B29A0
:103BF8002ED0B6F918004B283BD0B6F924304B2B01
:103C080034D001321DD001313BD0013037D00133DF
:103C180008BF032016D01E4B4FF080529A6119E757
:103C28004FF0030C0623CAE76346C8E74FF0020CBF
:103C38000423C4E74FF0010C0223C0E74FF0020C45
:103C4800B6E7002000EB40034B2226F8232047006C
:103C5800074406EB87030C485860012200211A81AB
:103C6800997204F001FB4B233386D4E7032006271F
:103C7800EEE738460427EBE728462F46E8E7022018
:103C8800E0E70120DEE700BF409C7102F000002061
:103C98000004024070B590F8855084B094461A46E6
:103CA8009DF8203065B959B1012B044614D0981EEF
:103CB800062808D8A1F120005F2804D9284600E08A
:103CC800002004B070BD089320461346624604B035
:103CD800BDE87040FFF7F6B9467F056802960669A9
:103CE8000196C66800960B466D696146A847617FD4
:103CF80001EB41014800E4E72DE9F04FC74CD4F847
:103D08001C3191B00646A3B910F4805300F0958099
:103D1800D4F81C31012B00F07381D4F81C31012B2D
:103D280000F05E81D4F81C31022B14D011B0BDE82C
:103D3800F08FD4F81C31012BEFD1C50400F160815C
:103D480094F830310133DBB204EB430284F83031AC
:103D5800A2F82001EAE7B4F8203140F6B4329342E1
:103D68007FD040F6B23293427BD094F8302140F6AF
:103D7800EE339E4200F04A81022A01F06180B4F8D5
:103D8800203140F6B4318B4200F05081B6F5805FA7
:103D9800CCD340F6B3318B4201F0AB8140F6B2315F
:103DA8008B4240F0D080B4F82631B3F53E6F40F036
:103DB8004781032A40F04481D4F8343163B9B4F818
:103DC8002221B4F8243102F00F0203F00F0303EBB1
:103DD80002130133C4F83431B4F83851002D41F0DE
:103DE800D586DFF840B240F207184FF0800A4FF04E
:103DF800030911E04FF6FF730193CDF800900323F8
:103E080042465846FDF7ACFA0135082DD4F834314E
:103E180008F1040801F0B786B4F8282198002AFAB6
:103E280005F31A4001B2E5D1CDE9009201B242464C
:103E380003235846FDF794FAE6E70121C4F8203138
:103E4800C4E94933C4F81C11A4F8200184F83031BE
:103E5800C4F83431A4F83831C4F82C3111B0BDE8B5
:103E6800F08F94F83021032A81D16D4DDFF8B881A5
:103E780005964FF0000B05E01435454500F0D58751
:103E8800B4F8203135F8062C03F00F039A422E4679
:103E9800F2D1B4F8223135F8042C03F00F039A421A
:103EA800EAD1B4F8243135F8022C03F00F039A4212
:103EB800E2D1B4F82831B5F90820C4F8C82113F0C4
:103EC8000103B5F90620C4F8C42100F03187AB8995
:103ED800C4F84C316B8984F8ECB1C4F848312846F1
:103EE80005F09CF90028C7D0DFF838A105EB0009D8
:103EF80094F8C1310136002BBED194F8E41116F8BC
:103F0800012C002900F09086110640F18B8694F868
:103F18005C11002940F09A8602F0E003C02B01F002
:103F28008D8302F0F003E02B01F0B68494F8203280
:103F380097B2002B00F0EA8639465046FEF70EF994
:103F48004E45D5D198E740F6B1318B4240F0CE8549
:103F5800B4F82631B3F53E6F72D1032A70D1D4F884
:103F6800343163B9B4F82221B4F8243102F00F02D5
:103F780003F00F0303EB02130133C4F83431B4F830
:103F88003851002D41F05986DFF898B04FF03C08C1
:103F98004FF0800A4FF0080911E04FF6FF730193C4
:103FA800CDF80090032342465846FDF7D9F901356C
:103FB800082DD4F8343108F1090801F03B86B4F82B
:103FC800282198002AFA05F31A4001B2E5D1CDE973
:103FD800009201B2424603235846FDF7C1F9E6E7CD
:103FE800F0047FF59FAE94F8303104EB43030221CF
:103FF8000022C4F81C11A3F82261A4F8382195E620
:10400800D4F81C31012B7FF48DAEECE7012A7FF642
:10401800B6AE0023C4F81C3188E600BFF0000020CB
:1040280092AE00082C02002002C60008B4F826311F
:10403800B3F53E6F00F0AA85B6F5805FFFF476AE63
:10404800B4F82AC3B4F82E33D4F81013DBB25FFAED
:104058008CF59D422BBFC5F13F025B1B9B1803F1FA
:10406800FF330122013184F83822CCF1400201F0FB
:104078008C80C5F13F07B4F82E13C9B2A942A1EB51
:10408800050040F2AA850128F5D0DFF8C482AF4FB9
:10409800012517E09A4228BF1A46AD1A9044FDF749
:1040A80075F8B4F82AC3B4F82E335FFA8CF2DBB291
:1040B8009A422BBFC2F13F029B1A9B1803F1FF33B0
:1040C800CCF14002AA4241463846E3D3AB42E1D3A1
:1040D80005EB0C03402B00F28686D4F824032A460D
:1040E800604406F0A9F82F4694F81D33B4F82AC3A3
:1040F80004EB83036544D3F8A82005F03F0CA4F82B
:104108002AC392F83D3092F83E20134303F021036E
:10411800212B41F07F81B4F82E33D4F81013DBB291
:104128005FFA8CF59D422BBFC5F13F025B1B9B18C4
:1041380003F1FF330122013184F83822CCF1400227
:1041480001F01A81C5F13F07B4F82E13C9B2A9428C
:10415800A1EB050040F24F850128F5D0DFF8F48186
:104168007A4F022517E09A4228BF1A46AD1A9044A2
:10417800FDF70CF8B4F82AC3B4F82E335FFA8CF2C2
:10418800DBB29A422BBFC2F13F029B1A9B1803F184
:10419800FF33CCF14002AA4241463846E3D39D4260
:1041A800E1D805EB0C03402B00F20C86D4F824036D
:1041B8002A46604406F040F82F4694F81D33B4F8B8
:1041C8002A9304EB83034D44D3F8A82005F03F0954
:1041D800A4F82A9392F83D3092F83E20134303F056
:1041E8002103212B41F0FA80002394F830218DF827
:1041F8003C300DF13C0811461209A1EB0213DBB269
:10420800092B03F130008ABF3733C3B2DBB20F2961
:1042180008F8013DEFD8B4F82E335FFA89FADBB21B
:104228009A452CBFCAF13F02A3EB0A0340462CBFB4
:10423800D51803F1FF3504F0F1FFD4F8101301236A
:10424800013107462A4684F83832C9F1400001F0A6
:10425800FD80CAF13F03B4F82E13C9B25145A1EB52
:104268000A0540F2D584012DF5D0384D034619E0F2
:104278009A4228BF1A4641462846BF1A9044FCF77E
:1042880085FFB4F82A93B4F82E335FFA89F2DBB2CB
:104298009A4233BF9B1AC2F13F02D21803F1FF3290
:1042A800C9F140039F42E3D8BA42E1D307EB0903BF
:1042B800402B00F2E886D4F82403414648443A46A5
:1042C80005F0BAFF3D4694F81D33B4F82AC304EB51
:1042D80083036744D3F8A82007F03F0CA4F82AC347
:1042E80092F83D3092F83E20134303F02103212B2E
:1042F80041F05681B4F82E33D4F81013DBB25FFACC
:104308008CF59D422BBFC5F13F025B1B9B1803F147
:10431800FF330122013184F83822CCF1400201F048
:104328000380C5F13F07B4F82E13C9B2A942A1EB27
:10433800050040F25B840128F5D01946DFF81880A3
:10434800024F134601250A4620E000BF180300204B
:10435800D4C50008D8C50008DCC500089A4228BFA3
:104368001A46AD1A9044FCF711FFB4F82AC3B4F802
:104378002E235FFA8CF3D2B293422BBFC3F13F03D3
:10438800D21AD21802F1FF32CCF140039D424146C5
:104398003846E3D89542E1D805EB0C03402B00F2F0
:1043A8003385D4F824032A46604405F045FF2F4698
:1043B80094F81D3304EB8303D3F8A820B4F82A3308
:1043C8001D4405F03F05A4F82A5392F83D3092F8B1
:1043D8003E20134303F02103212B41F025800023C5
:1043E800B4F820218DF83C300FAF11461209A1EB2B
:1043F8000213DBB2092B03F130008ABF3733C3B293
:10440800DBB20F2907F8013DEFD8384604F006FF64
:10441800394602468F48FCF7B9FEB4F82AC3B4F807
:104428002E33D4F81013DBB25FFA8CF59D4233BFFC
:104438005B1BC5F13F02D21803F1FF3201230131A2
:1044480084F83832CCF1400300F0C786C5F13F0745
:10445800B4F82E13C9B28D42A1EB050080F0C283D7
:104468000128F5D07C4F7B4D4FF0010918E09A42A6
:1044780028BF1A46A9EB02091744FCF787FEB4F8CF
:104488002AC3B4F82E335FFA8CF2DBB29A4233BFF8
:104498009B1AC2F13F02D21803F1FF32CCF140035C
:1044A8004B4539462846E2D39145E0D809EB0C0341
:1044B800402B00F27684D4F824034A46604405F081
:1044C800BBFE4D4694F81D3304EB8303D3F8A820B4
:1044D800B4F82A33994409F03F09A4F82A9392F8CA
:1044E8003D3092F83E20134303F02103212B40F086
:1044F8006B870023B4F822218DF83C300DF13C087D
:1045080011461209A1EB0213DBB2092B03F13000AB
:104518008ABF3733C3B2DBB20F2908F8013DEFD8A1
:10452800B4F82E335FFA89FADBB29A452CBFCAF188
:104538003F02A3EB0A0340462CBFD71803F1FF370D
:1045480004F06CFED4F810130123013105463A46F5
:1045580084F83832C9F1400000F0CC87CAF13F0333
:10456800B4F82E13C9B25145A1EB0A0740F24883AB
:10457800012FF5D0374F034619E09A4228BF1A4653
:1045880041463846AD1A9044FCF700FEB4F82A9329
:10459800B4F82E335FFA89F2DBB29A4233BF9B1A22
:1045A800C2F13F02D21803F1FF32C9F140039D4224
:1045B800E3D89542E1D805EB0903402B00F2878543
:1045C800D4F82403414648442A4605F035FE2F46D0
:1045D80094F81D33B4F82AC304EB83036544D3F875
:1045E800A82005F03F0CA4F82AC392F83D3092F8B1
:1045F8003E20134303F02103212B40F0ED87B4F84C
:104608002E33D4F81013DBB25FFA8CF59D422BBF22
:10461800C5F13F025B1BD21803F1FF32134601318B
:104628004FF0010284F83822CCF1400200F02C86C9
:10463800C5F13F07B4F82E13C9B2A942A1EB050092
:1046480040F2C7820128F5D0034D024F4FF001090F
:104658001DE000BF18030020DCC500089A4228BFEF
:104668001A46A9EB02091544FCF790FDB4F82AC3D1
:10467800B4F82E335FFA8CF2DBB29A422BBFC2F148
:104688003F029B1A9B1803F1FF33CCF1400291457E
:1046980029463846E2D89945E0D809EB0C03402B67
:1046A80000F24F83D4F824034A46604405F0C4FD61
:1046B8004F4694F81D3304EB8303D3F8A820B4F8CD
:1046C8002A33994409F03F09A4F82A9392F83D3017
:1046D80092F83E20134303F02103212B40F0AC86CF
:1046E8000023B4F824218DF83C300DF13C08114624
:1046F8001209A1EB0213DBB2092B03F130008ABFC8
:104708003733C3B2DBB20F2908F8013DEFD8B4F84C
:104718002E335FFA89FADBB29A452CBFCAF13F0201
:10472800A3EB0A0340462CBFD71803F1FF3704F068
:1047380075FDD4F810130123013105463A4684F873
:104748003832C9F1400000F00087CAF13F03B4F8DD
:104758002E13C9B25145A1EB0A0740F25582012F29
:10476800F5D0BB4F034619E09A4228BF1A46414686
:104778003846AD1A9044FCF709FDB4F82A93B4F80A
:104788002E335FFA89F2DBB29A4233BF9B1AC2F129
:104798003F02D21803F1FF32C9F140039D42E3D82A
:1047A8009542E1D805EB0903402B00F27E84D4F84A
:1047B8002403414648442A4605F03EFD2F4694F816
:1047C8001D33B4F82AC304EB83036544D3F8A82047
:1047D80005F03F0CA4F82AC392F83D3092F83E2029
:1047E800134303F02103212B40F0E486B4F82E3361
:1047F800D4F81013DBB25FFA8CF59D4233BF5B1B14
:10480800C5F13F02D21803F1FF320123013184F8C8
:104818003832CCF1400300F00885C5F13F07B4F801
:104828002E13C9B2A942A1EB050040F2CE8101289E
:10483800F5D0DFF82082864D012717E09A4228BF7D
:104848001A46BF1A9044FCF7A1FCB4F82AC3B4F87E
:104858002E235FFA8CF3D2B293422BBFC3F13F03EE
:10486800D21AD21802F1FF32CCF14003BB424146C2
:104878002846E3D3BA42E1D307EB0C03402B00F2FE
:104888008082D4F824033A46604405F0D5FC3D46BE
:1048980094F81D3304EB8303D3F8A820B4F82A3323
:1048A8003B4403F03F03A4F82A3392F83D3092F8D2
:1048B8003E20134303F02103212B40F0A38500235E
:1048C800B4F826218DF83C300FAF11461209A1EB40
:1048D8000213DBB2092B03F130008ABF3733C3B2AE
:1048E800DBB20F2907F8013DEFD8384604F096FCF3
:1048F800394602465648FCF749FCB4F82AC3B4F8CE
:104908002E33D4F81013DBB25FFA8CF59D4233BF17
:104918005B1BC5F13F02D21803F1FF3201230131BD
:1049280084F83832CCF1400300F0D684C5F13F0753
:10493800B4F82E13C9B2A942A1EB050040F2418197
:104948000128F5D0434F424D4FF0010818E09A4234
:1049580028BF1A46A8EB02081744FCF717FCB4F85E
:104968002AC3B4F82E335FFA8CF2DBB29A4233BF13
:104978009B1AC2F13F02D21803F1FF32CCF1400377
:10498800434539462846E2D34245E0D308EB0C03B9
:10499800402B00F2E681D4F824034246604405F037
:1049A8004BFC454694F81D3304EB8303D3F8A82049
:1049B800B4F82A33984408F03F08A4F82A8392F8F8
:1049C8003D3092F83E20134303F02103212B40F0A1
:1049D8000F8500238DF83C300FAD32463609A2EB27
:1049E8000613DBB2092B03F130018ABF3733CBB290
:1049F800DBB20F2A05F8013DEFD8B4F82E335FFA81
:104A080088F6DBB29E422CBFC6F13F099B1B2846A5
:104A18002CBF994403F1FF3904F000FCD4F81013BB
:104A28000122013184F8382207464B46C8F140027A
:104A380000F03785C6F13F0CB4F82E13C9B2B14265
:104A4800A1EB060040F2E9800128F5D0004E1DE0F8
:104A580018030020DCC500089A4228BF1A462946D8
:104A68003046BF1A1544FCF791FBB4F82A83B4F812
:104A78002E335FFA88F2DBB29A422BBFC2F13F02B3
:104A88009B1A9B1803F1FF33C8F14002BA42E3D3E3
:104A9800BB42E1D307EB0803402B00F2E482D4F8D1
:104AA8002403294640443A463E4605F0C5FB94F89F
:104AB8001D33B4F82A2304EB8303174407F03F0798
:104AC800D3F8A820A4F82A7392F83D3092F83E2033
:104AD800134303F02103212B3FF428A9D548C4F838
:104AE8003063314603F012FAFFF720B9B3F53B6F94
:104AF8007FF4A6AAB4F82631B3F53E6F7FF4A0AAD6
:104B0800032A7FF49DAAD4F8343163B9B4F822217A
:104B1800B4F8243102F00F0203F00F0303EB021381
:104B28000133C4F83431B4F83851002D40F0F78718
:104B3800DFF808A388274FF080094FF0030811E039
:104B48004FF6FF730193CDF8008003233A46504691
:104B5800FCF706FC0135102DD4F8343107F10407B1
:104B680000F0DA87B4F82821C5F34E0129FA01F1DB
:104B78000A404FEA830001B2E2D1CDE9008201B2D6
:104B88003A4603235046FCF7EBFBE3E7032A7FF49E
:104B980053AAD4F8343153B9B4F82221B4F82431E3
:104BA80002F00F0203F00F0303EB02130133B4F812
:104BB800382101330132C4F83431A4F83821FFF721
:104BC800B5B8F9423FF4B4AEBCE6F9423FF427AEBB
:104BD8002FE6F9423FF42EAD36E5F9423FF44BAAF1
:104BE800FFF753BAF9423FF433AC3BE4F9423FF4E0
:104BF8009AABFFF7A2BBF9423FF4A6AAFFF7AEBAF9
:104C0800D9423FF4ADACB5E4D9423FF4A0ADA8E534
:104C1800D9423FF420ABFFF728BB11EB0C0F3FF450
:104C28000BAF13E784F85C3197B2002F3FF488A9E3
:104C38000D2A3FF485A994F82012B9B11F2F3FF629
:104C48007BA90A2A7FF47CA9FFF776B9022900F02C
:104C5800CD8484F85C31B4F85E3102F03F071F431D
:104C6800A4F85E71002FE6D1FFF76AB90A2F4DD17B
:104C780094F85831022B00F01786D81E05284FF0FB
:104C8800200700F2A1846C484FF00C0C0CFB030CBD
:104C9800DCF864C01CF8011003EB430C00EB8C003B
:104CA80090F8680094F859E10A2A0EFB00FC00F01D
:104CB800AA8494F8DF21002A40F0AE84D4E9712058
:104CC80094F8E01159B194F8C011002940F0FC851E
:104CD800B4F99011814202DCC4F8C8B10020012B5C
:104CE80000F00287991E062903D8A7F120015F2941
:104CF80008D80093394603465046FEF7E3F9D4F83E
:104D0800C431C218C4F8C421FFF71AB91F2F7FF69F
:104D180017A994F85831022B00F09A84D91E052956
:104D280000F252847F2F3FF60BA9A7F12001AAE7D2
:104D3800C4F8483184F8EC310123C4F84C31FFF74A
:104D4800CEB8D4F82403CCF140073A46604405F0C5
:104D580073FAD4F82403E919A9EB070205F06CFAF1
:104D6800A7E4D4F82403CCF140052A46604405F0B2
:104D780063FAD4F824037919A8EB050205F05CFA64
:104D880010E6D4F82403CCF140052A46604405F027
:104D980053FAD4F8240308EB05017A1B05F04CFA02
:104DA80076E5D4F82403CCF140052A46604405F0A2
:104DB80043FAD4F824037919A9EB050205F03CFA63
:104DC800FFF780BBD4F82403CCF140073A4660448F
:104DD80005F032FAD4F8240308EB0701EA1B05F0C2
:104DE8002BFAFFF7EAB9D4F82403CCF140073A4686
:104DF800604405F021FAD4F8240308EB0701EA1B04
:104E080005F01AFAFFF770B9D4F82403CCF140077B
:104E18003A46604405F010FAD4F8240308EB070179
:104E2800EA1B05F009FAFFF7C3BA059E94F830218A
:104E3800FEF79DBFAC0300203CA700082C02002011
:104E4800B4F8203140F6B332934200F00F84B3F542
:104E58003B6F7FF4DEA8D4F834512DB9B4F8225151
:104E680005F00F05C4F83451DFF818948827002698
:104E780098E0002B40F08E80D4F8B031AD0003FAF2
:104E880085F5D4F8A8319D4280F28480D4F8B42105
:104E980007EB0208D4F8AC2190457BDAD4F8A011CE
:104EA8008D42BEBF6D1A05F1030A0D46D4F8A41150
:104EB800A8BF4FF0030A8845BEBFA8EB010808F158
:104EC800030B884605EB0A01A8BF4FF0030B8B4282
:104ED800B8BFA3EB050A08EB0B039A42BCBFA2EBD1
:104EE800080B1346BAF1000F54DDBBF1000F51DD7A
:104EF80094F88021002A40F06E85013B009305EB71
:104F08000A03013B424629464846FBF7B3FA0BFB26
:104F18000AF14FF6FF7003F0CFFD94F88131002BB2
:104F280038D194F88031002B34D1D44A4FF48053CF
:104F38009361B4F9002001234B2A84F8803105D10C
:104F48002381CF4B63604FF6FF732380B4F90C3095
:104F58004B2B06D1CA4B23614FF6FF73A381012364
:104F6800A382B4F918304B2B06D1C54BE3614FF639
:104F7800FF73238301232384B4F924304B2B06D1F8
:104F8800BF4BA3624FF6FF73A3840123A3854FF69B
:104F9800FF7323860136102E07F104073FF439A862
:104FA800D4F83451C6F34E0280231341B4F82621B5
:104FB800134294F8C1317FF45CAF002BEAD1D4F8E6
:104FC800B031AD0003FA85F5D4F8A8319D42E1DA95
:104FD800D4F8B42107EB0208D4F8AC219045D9DA0B
:104FE800D4F8A0118D42BEBF6D1A05F1030A0D4613
:104FF800D4F8A411A8BF4FF0030A8845BEBFA8EB98
:10500800010808F1030B884605EB0A01A8BF4FF019
:10501800030B8B42B8BFA3EB050A08EB0B039A42BC
:10502800BCBFA2EB080B1346BAF1000FB2DDBBF10F
:10503800000FAFDD94F88021002A40F0A184013BE5
:10504800009305EB0A03013B424629464846FBF715
:1050580011FA0BFB0AF1002003F02EFD94F88131C0
:10506800002B97D15DE7D4F82403C8F140063246F7
:105078002946404405F0E0F8D4F82403BA1BA919DE
:1050880005F0DAF813E5D4F82403C9F140052A46F7
:105098004146484405F0D0F8D4F8240308EB05014C
:1050A8007A1B05F0C9F8FFF70EB9D4F82403C9F143
:1050B80040073A464146484405F0BEF8D4F8240370
:1050C80008EB0701EA1B05F0B7F8FFF778BBD4F83F
:1050D8002403C9F140073A464146484405F0ACF874
:1050E800D4F8240308EB0701EA1B05F0A5F8FFF73D
:1050F8006FBAB4F82631B3F53E6F7EF4A1AF032A38
:105108007EF49EAFD4F8343163B9B4F82221B4F8F0
:10511800243102F00F0203F00F0303EB02130133F3
:10512800C4F83431B4F83851002D40F05B85DFF80D
:1051380054A1C8274FF080094FF0030811E04FF63B
:10514800FF730193CDF8008003233A465046FCF7DD
:1051580007F90135102DD4F8343107F1040700F0B0
:105168003E85B4F82821C5F34E0129FA01F10A4019
:105178004FEA830001B2E2D1CDE9008201B23A469A
:1051880003235046FCF7ECF8E3E794F834130029BE
:105198003EF46FAF94F81D1304EB81010027D1F89A
:1051A800A81084F8347391F83C0001283EF461AFEC
:1051B8000D68242081F83D00E86820F00C0040F0DC
:1051C8000800E860202081F83C7081F83D00B4F8C0
:1051D8002AC35FFA8CF5FEF74CBF94F83413002904
:1051E8003FF434A994F81D1304EB81010027D1F88A
:1051F800A81084F8347391F83C0001283FF426A9DC
:105208000D68242081F83D00E86820F00C0040F08B
:105218000800E860202081F83C7081F83D00B4F86F
:105228002AC35FFA8CF5FFF711B994F834130029F3
:105238003FF4F3AA94F81D1304EB81010027D1F879
:10524800A81084F8347391F83C0001283FF4E5AACB
:105258000D68242081F83D00E86820F00C0040F03B
:105268000800E860202081F83C7081F83D00B4F81F
:105278002AC35FFA8CF5FFF7D0BA00BF00040240DA
:1052880000093D002C02002094F8341300293FF453
:10529800CFA994F81D1304EB81010027D1F8A810B9
:1052A80084F8347391F83C0001283FF4C1A90D68D3
:1052B800242081F83D00E86820F00C0040F0080048
:1052C800E860202081F83C7081F83D00B4F82AC3DA
:1052D8005FFA8CF5FFF7ACB994F8341300293FF462
:1052E80025AB94F81D1304EB81010027D1F8A81011
:1052F80084F8347391F83C0001283FF417AB0D682B
:10530800242081F83D00E86820F00C0040F00800F7
:10531800E860202081F83C7081F83D00B4F82AC389
:105328005FFA8CF5FFF702BB94F8341300293EF4BA
:10533800F8AF94F81D1304EB81010027D1F8A810E9
:1053480084F8347391F83C0001283EF4EAAF0D6804
:10535800242081F83D00E86820F00C0040F00800A7
:10536800E860202081F83C7081F83D00B4F82AC339
:105378005FFA8CF5FEF7D5BF94F8341300293EF494
:10538800E1AE94F81D1304EB81010027D1F8A810B1
:1053980084F8347391F83C0001283EF4D3AE0D68CC
:1053A800242081F83D00E86820F00C0040F0080057
:1053B800E860202081F83C7081F83D00B4F82AC3E9
:1053C8005FFA8CF5FEF7BEBEB248C4F830532946E2
:1053D80002F09CFDB4F82A93FFF78BB8AD48C4F8E7
:1053E8003073394602F092FDB4F82A93FEF7FCBEFA
:1053F800A848C4F83053294602F088FDB4F82A8337
:10540800FFF7E7BAA348C4F83053294602F07EFDF7
:10541800FFF755BA9F48C4F83073394602F076FD55
:10542800B4F82AC3FEF777BE9A48C4F830733946F1
:1054380002F06CFDFEF7D3BF9648C4F830733946C6
:1054480002F064FDB4F82A93FFF74AB994F83433AC
:10545800002B3EF4FEAE94F81D3304EB83030025C5
:10546800D3F8A83084F8345393F83C1001293EF45B
:10547800F0AED3F800C0242183F83D10DCF80C10FE
:1054880021F00C0141F00801CCF80C10202183F820
:105498003C5083F83D10B4F82A9394F82AA3FEF7F9
:1054A800D8BE94F8341300293FF4C4AA94F81D1305
:1054B80004EB81014FF0000CD1F8A81084F834C334
:1054C80091F83C0001283FF4B5AA0E68242081F821
:1054D8003D00F06820F00C0040F00800F06020204B
:1054E80081F83CC081F83D00B4F82A8394F82A6317
:1054F800FFF7A0BA94F83433002B3FF42FA894F8A0
:105508001D3304EB83030027D3F8A83084F83473E1
:1055180093F83C1001293FF421A8D3F800C02421B6
:1055280083F83D10DCF80C1021F00C0141F0080163
:10553800CCF80C10202183F83C7083F83D10B4F8A7
:105548002A9394F82AA3FFF709B894F83433002B68
:105558003FF4FBA894F81D3304EB83030027D3F82A
:10556800A83084F8347393F83C1001293FF4EDA86F
:10557800D3F800C0242183F83D10DCF80C1021F08A
:105588000C0141F00801CCF80C10202183F83C7084
:1055980083F83D10B4F82A9394F82AA3FFF7D5B8F6
:1055A8003C48C4F83053294602F0B0FCB4F82AC38A
:1055B800FEF7A0BE3748C4F83073394602F0A6FC9F
:1055C800B4F82AC3FFF712B9012B13BF0020082033
:1055D80006210146FFF766BB2E48C4F830733946EA
:1055E80002F094FCB4F82AC3FFF709B89301B4F8A1
:1055F8005E2103F47C631343A4F85E31012384F82D
:105608005C31FEF79DBCD4F8C831C4F8C4B163441A
:10561800C4F8C831FEF794BCD4F8C42194F8C0018A
:105628000EFB0121002840F04C81B4F98C01814225
:1056380000F33D81D4F8C801FFF742BB930103F49E
:10564800F863A4F85E31012384F85C31FEF778BC76
:105658007F2F3EF675AC104B3B4413F8201C0631E7
:1056680001F4FC7102231020FFF71CBBD4F834515D
:105678005DB9B4F82231B4F8245103F00F0305F0F2
:105688000F0505EB0315C4F83451DFF81090C02757
:1056980000269DE0AC0300203CA700082C02002057
:1056A800002B40F08E80D4F8B031AD0003FA85F5B8
:1056B800D4F8A8319D4280F28480D4F8B42107EB55
:1056C8000208D4F8AC2190457BDAD4F8A0118D42B9
:1056D800BEBF6D1A05F1030A0D46D4F8A411A8BF80
:1056E8004FF0030A8845BEBFA8EB010808F1030B79
:1056F800884605EB0A01A8BF4FF0030B8B42B8BFE1
:10570800A3EB050A08EB0B039A42BCBFA2EB080BFC
:105718001346BAF1000F54DDBBF1000F51DD94F8C8
:105728008021002A40F0D480013B009305EB0A0356
:10573800013B424629464846FAF79CFE0BFB0AF114
:105748004FF6FF7003F0B8F994F88131002B38D187
:1057580094F88031002B34D1BF4A4FF480539361C1
:10576800B4F9002001234B2A84F8803105D1238124
:10577800BA4B63604FF6FF732380B4F90C304B2BA0
:1057880006D1B64B23614FF6FF73A3810123A38291
:10579800B4F918304B2B06D1B04BE3614FF6FF73C9
:1057A800238301232384B4F924304B2B06D1AB4B3C
:1057B800A3624FF6FF73A3840123A3854FF6FF73FB
:1057C80023860136102E07F1040761D0D4F834512E
:1057D800C6F34E0280231341B4F82621134294F8ED
:1057E800C1317FF45DAF002BEBD1D4F8B031AD00FF
:1057F80003FA85F5D4F8A8319D42E2DAD4F8B42149
:1058080007EB0208D4F8AC219045DADAD4F8A011F5
:105818008D42BEBF6D1A05F1030A0D46D4F8A411D6
:10582800A8BF4FF0030A8845BEBFA8EB010808F1DE
:10583800030B884605EB0A01A8BF4FF0030B8B4208
:10584800B8BFA3EB050A08EB0B039A42BCBFA2EB57
:10585800080B1346BAF1000FB3DDBBF1000FB0DD42
:1058680094F88021002A5FD1013B009305EB0A03DD
:10587800013B424629464846FAF7FCFD0BFB0AF174
:10588800002003F019F994F88131002B99D15FE7D2
:10589800B4F82031FFF7DBBA12030223A4F85E2123
:1058A80084F85C31FEF74CBB08212027DAE6D4F8EF
:1058B800C801C4F8C4B16044C4F8C8010022FFF7A5
:1058C800FFB9B4F9B801B2E6B4F9BC11FFF702BAEE
:1058D800B4F900E00022BEF14B0F84F8802100F0FB
:1058E800C280B4F90CC0BCF14B0F00F0BB80B4F916
:1058F80018004B2800F0E681B4F924104B2900F079
:10590800DF81BEF1FF3F00F0C981BCF1FF3F00F02D
:10591800C181013000F0BA81013100F0F3814E49B4
:105928004FF080528A61FFE6B4F900E00022BEF130
:105938004B0F84F8802100F0AC80B4F90CC0BCF1A6
:105948004B0F00F0A580B4F918004B2800F0CD816A
:10595800B4F924104B2900F0C681BEF1FF3F00F0D6
:10596800CE81BCF1FF3F00F0C681013000F0BF815D
:10597800013100F0D38138494FF080528A6173E7D2
:10598800B4F900E00022BEF14B0F84F880214ED01C
:10599800B4F90CC0BCF14B0F48D0B4F918004B282F
:1059A80000F08181B4F924104B2900F07A81BEF10E
:1059B800FF3F00F08281BCF1FF3F00F07A810130A7
:1059C80000F07381013100F0A18123494FF080522A
:1059D8008A61FFF734BBB4F900E00022BEF14B0F37
:1059E80084F880216BD0B4F90CC0BCF14B0F65D0A2
:1059F800B4F918004B2800F06981B4F924104B2938
:105A080000F06281BEF1FF3F00F06A81BCF1FF3F08
:105A180000F06281013000F05B81013100F07A8191
:105A28000D494FF080528A61FFF767BA012202EBF5
:105A3800420204EB820C01210A460948ACF808101E
:105A48000021CCF804008CF80A10059302F00CFC35
:105A58004B22059B2286B8E70004024000093D005E
:105A6800409C7102012202EB420204EB820C0121EC
:105A78000A46AC48ACF808100021CCF804008CF8B1
:105A88000A10059302F0F0FB4B22059B228646E79D
:105A9800012202EB420204EB820C01210A46A148D2
:105AA800ACF808100021CCF804008CF80A10059313
:105AB80002F0DAFB4B22059B22865CE7012202EB0F
:105AC800420204EB820C01210A469648ACF8081001
