:020000040800F2
:1000000000000220F18700084188000841880008AC
:10001000418800084188000841880008000000006D
:1000200000000000000000000000000041880008FF
:10003000418800080000000041880008B5790008E8
:10004000418800084188000841880008418800086C
:1000500041880008418800081D7600084188000892
:100060007D760008C9790008D57900084188000824
:100070004188000841880008418800088976000806
:10008000418800084188000841880008418800082C
:10009000418800084188000841880008E17900088B
:1000A0006579000875780008797900089D7800085E
:1000B000B1780008C5780008D978000841880008A0
:1000C00041880008418800084188000841880008EC
:1000D00041880008418800084188000841880008DC
:1000E000097A000841880008418800088D790008D5
:1000F00029790008A1790008517900084188000891
:100100004188000841880008ED780008418800080F
:100110004188000841880008017900081579000825
:10012000418800084188000841880008418800088B
:10013000418800084188000841880008418800087B
:10014000418800084188000841880008418800086B
:10015000418800084188000841880008418800085B
:10016000418800084188000841880008418800084B
:10017000418800084188000841880008000000000C
:080180004188000841880008D5
:10018800184BB3F900204B2A06D1174959604FF68E
:10019800FF70012218801A81B3F90C204B2A06D16E
:1001A800114919614FF6FF70012298819A82B3F9BB
:1001B80018204B2A06D10C49D9614FF6FF7001224D
:1001C80018831A84B3F924204B2A06D10649996268
:1001D8004FF6FF70012298849A854FF6FF721A86AF
:1001E800704700BF7800002000093D0090F8843077
:1001F80013B9B0F954007047B0F98000704700BFD8
:1002080090F8843013B9B0F950007047B0F97C0009
:10021800704700BF00207047704700BF90F8453016
:100228000BBB90F84430F3B91F49204B10B401229E
:100238004FF4805480F844208C61B3F900104B29A6
:100248002AD0B3F90C204B2A1ED0B3F918204B2A18
:1002580012D0B3F924204B2A06D04FF6FF725DF86E
:10026800044B1A8670477047114999624FF6FF7020
:10027800012298849A85F0E70D49D9614FF6FF70FD
:10028800012218831A84E4E7094919614FF6FF70BF
:10029800012298819A82D8E7054959604FF6FF7084
:1002A80018801A81CDE700BF0004024078000020C2
:1002B80000093D0090F885300BB101207047F0B57A
:1002C80090F8A82085B00446002A53D00A064FD5D6
:1002D80090F82020002A5FD101F0E003C02B00F045
:1002E800A18001F0F003E02B00F0A48090F8E43046
:1002F8008DB2002B4AD11F2D37D9237F022B76D000
:10030800012B13BF0023082306201846627F0A2901
:1003180002FB03F67FD094F8A330002B4FD1D4F81A
:100328008C30216894F8A42092B10A6B4E4882421E
:1003380040F08F8094F88420002A40F08480B4F93B
:1003480054009842D6BF0023D4F88C30C4F88C30BF
:10035800227F00928E6AD4F8882029462046B0472A
:10036800D4F888301844C4F88800012005B0F0BDDE
:1003780080F820308DB2002DF7D00D29F5D094F8F3
:10038800E430ABB11F2D01D80A29EED123682946E4
:10039800DB6C20469847E8E7022A428C32D001F00D
:1003A8003F051543458480F82030002DE7D1DCE770
:1003B8000A2DA0D1237F022B42D02025A0E7D4F814
:1003C8008830216802FB00374B6B284A934246D19C
:1003D80094F88430002B39D1B4F95000D4F88C301B
:1003E8008742C2BF9B190022C4E922239AE77F2DC6
:1003F800BBD81F4B2B4413F8200C063000F4FC70BC
:10040800102383E78B0103F47C63134301224384A5
:1004180080F82020A9E7D4F88C3000223344C4E9BE
:100428002223A2E7890101F4F8610123418480F8BD
:1004380020309AE709030223418480F8203094E7AA
:1004480008202025DCE7B4F980007AE7B4F97C00BD
:10045800C4E70393204690472168039B71E7204631
:1004680098472168BAE700BFF501000809020008AB
:10047800908D0008194BDB68C3F30223C3F1070C06
:10048800BCF1040F00B503F1040E28BF4FF0040CB3
:10049800BEF1060F4FF0FF3E8CBF033B00230EFA60
:1004A8000CFC21EA0C010EFA03FE994022EA0E0226
:1004B800002841EA020109DB00F16040090100F56A
:1004C8006140C9B280F800135DF804FB044B00F0EA
:1004D8000F0009010344C9B21976F5E700ED00E001
:1004E800FCEC00E0002808DB044A4109012300F085
:1004F8001F0003FA00F042F82100704700E100E015
:1005080003681A6910B50446900712D5DA6891078E
:100518000FD5012254F8040C6FF0020119612277FB
:100528009A69826F1AB1C36F7030984723680022A6
:1005380022771A69520714D5DA68500711D50222B2
:1005480054F8040C6FF00401196122779A69D0F805
:10055800882022B1D0F88C30803098472368002258
:1005680022771A69110714D5DA68120711D50422FF
:1005780054F8040C6FF0080119612277DA69D0F891
:10058800982022B1D0F89C309030984723680022F8
:1005980022771A69D00614D5DA68D10611D508224F
:1005A80054F8040C6FF0100119612277DA69D0F859
:1005B800A82022B1D0F8AC30A03098472368002298
:1005C80022771A69D20702D5DA68D0071BD41A69CC
:1005D800110605D5DA68120644BF6FF080021A6169
:1005E8001A69540605D5DA68500644BF6FF0400210
:1005F8001A611A69910605D5DA68920644BF6FF048
:1006080020021A6110BD54F8040C826E6FF00101CB
:100618001961002ADBD0C36E603098472368D6E79B
:10062800274B98421FD0B0F1804F10D0A3F57C43E0
:1006380098421AD10223234A904208BF06231AD1AE
:10064800214A904208BF0B231AD11846704701234C
:100658001E4A904208BF0523EDD11D4A904208BFAB
:100668000A23F2D0ECE70023F2E703F5806398420F
:1006780008BF032315D1174A904208BF072305D1A5
:10068800154A904208BF0C23DFD005E002F57052EE
:10069800904208BF08230CD1104A904208BF0D238E
:1006A800D3E703F58063984218BF4FF6FF73CFD1A5
:1006B80004230B4A904208BF0923C6D0CDE700BFE8
:1006C80000000140001400400018004000100040E5
:1006D8000048014000040140001C00400020004088
:1006E800004401408AB0082800F28E80DFE800F05C
:1006F80014233241505F6E7D0500444B444800226C
:1007080009921A6B42F480721A631B6B03F48073AC
:100718000993099B0AB070473C4B3E48002201925E
:100728001A6B42F001021A631B6B03F00103019379
:10073800019B0AB07047354B3748002202921A6B6A
:1007480042F002021A631B6B03F002030293029B3E
:100758000AB070472D4B3148002203921A6B42F0C1
:1007680004021A631B6B03F004030393039B0AB090
:100778007047264B2A48002204921A6B42F008025E
:100788001A631B6B03F008030493049B0AB07047B9
:100798001E4B2448002205921A6B42F010021A637D
:1007A8001B6B03F010030593059B0AB07047174BAA
:1007B8001D48002206921A6B42F020021A631B6B36
:1007C80003F020030693069B0AB070470F4B1748A7
:1007D800002207921A6B42F040021A631B6B03F067
:1007E80040030793079B0AB07047084B1048002244
:1007F80008921A6B42F080021A631B6B03F08003A5
:100808000893089B0AB07047002083E7003802402D
:10081800002002400000024000040240000802409C
:10082800000C024000100240001402400018024070
:10083800001C0240431C0BD00B685A1C04D107E073
:1008480051F80C3F5A1C03D09842F9D148687047B8
:10085800002070476D4A036893428EB05CD0B3F1B4
:10086800804F2ED06A4A934264D16A4A002102918D
:10087800116C41F002011164126C02F00202029242
:10088800029A654A934264D1624A00210691116C2A
:1008980041F020011164126C02F020020692069ABF
:1008A8005E4A934264D15B4B00220B921A6C42F071
:1008B80040021A641B6C03F040030B930B9B0EB0B1
:1008C8007047544A00210191116C41F001011164F3
:1008D800126C02F001020192019A514A9342D0D15E
:1008E8004C4A00210591116C41F010011164126C01
:1008F80002F010020592059A4A4A9342D0D1454B1C
:1009080000220A925A6C42F480225A645B6C03F407
:1009180080230A930A9BD2E702F59C3200210091BA
:10092800516C41F001015164526C02F001020092D5
:10093800009AD2E73C4A934249D1364A00210391B2
:10094800116C41F004011164126C02F0040203926C
:10095800039A364A93421BD12E4A00210791516CC3
:1009680041F002015164526C02F002020792079AA8
:100978002F4A93421BD1274B00220C921A6C42F04B
:1009880080021A641B6C03F080030C930C9B96E79F
:10099800284A93422AD11F4A00210891516C41F4F8
:1009A80080315164526C02F480320892089A224ACB
:1009B800934284D1174B00220D921A6C42F4807234
:1009C8001A641B6C03F480730D930D9B77E71B4A25
:1009D800934282D10F4A00210491116C41F0080121
:1009E8001164126C02F008020492049A144A9342A9
:1009F80082D1084B002209925A6C42F400325A64A0
:100A08005B6C03F400330993099B58E7000001402D
:100A18000004004000380240001400400018004064
:100A28000010004000480140000800400004014058
:100A3800001C00400040014000200040000C004025
:100A480000440140431C4DD0294B984248D00CD952
:100A5800284B984225D016D9274B98421BD003F52E
:100A6800806398421FD11A207047A3F540639842CB
:100A780034D01ED9214B98422AD003F5806398427E
:100A880033D137207047A3F56443984222D003F549
:100A98006043984201D119207047A3F564439842F6
:100AA80025D12C207047A3F5006398421DD118204A
:100AB8007047A3F5006398420ED003F5806398420F
:100AC80001D11E207047B0F1804F0FD11C20704714
:100AD800362070472D2070471D2070473220704700
:100AE8002B2070476FF00D007047FEE7FDE7FCE72D
:100AF800001800400004014000440140001000407C
:100B0800431C51D02B4B98424CD00DD8A3F58053A1
:100B1800984245D01BD9284B984239D003F58063B9
:100B280098420ED12B207047244B984236D018D9C2
:100B3800234B98422AD003F58063984237D11A2074
:100B48007047A3F50063984231D136207047A3F56A
:100B58000063984220D003F5806398420BD11E2091
:100B68007047A3F58043984214D003F580639842F8
:100B780006D12E207047B0F1804F1AD11C20704743
:100B8800A3F56443984213D12D207047192070476C
:100B9800372070471B2070471D207047182070476A
:100BA800322070472C2070476FF00D007047FEE729
:100BB800FDE7FCE7001C0040001400400040014035
:100BC800004401402DE9F04F174685B0002A00F097
:100BD8000C810025DFF84082DFF840A204460E466B
:100BE800A946206816F8011B0368434536D194F8D6
:100BF8008530D3B994F8A82002B30A061CD594F816
:100C080020209ABB01F0E003C02B00F0CA8001F05D
:100C1800F003E02B00F0BB8094F8E4308AB2002B9C
:100C28003BD0C36C1146204698470135AF42D8D116
:100C3800284605B0BDE8F08F84F820308AB2002A33
:100C4800F3D00D29F1D094F8E430F3B11F2AE8D895
:100C58000A29E6D00135AF42C3D1E9E720469847D3
:100C68000028E5D00135AF42BBD1E1E7022A5CD0CC
:100C780084F82030638C01F03F021A436284002A12
:100C8800D3D094F8E430002BE0D10A2A05D1237F91
:100C9800022B00F09E80202205E01F2AC5D9237F61
:100CA800022B00F08B80012B13BF4FF0000B4FF08D
:100CB800080B4FF0060EDE4694F81DC00A290CFBFF
:100CC8000BFB58D094F8A330002B3DD0D4F88830D3
:100CD800416B0CFB0E33DFF848C1614540F087805B
:100CE80094F8841000297AD1B4F950108B422BDD86
:100CF800D4F88C3094F8A410C4F888905B44C4F8F5
:100D08008C3039BB1146227F0092D0F828B0D4F835
:100D180088202046D847D4F8883001351844AF4297
:100D2800C4F888007FF45DAF82E7628C8B0103F41E
:100D38007C63134301356384AF424FF0010384F8A9
:100D480020307FF44EAF73E794F8A410D4F88C30B9
:100D58000029D7D0016B514552D194F8841000294D
:100D680040D1B4F954108B42B2BFD4F88C30C4F8D7
:100D78008C900023C6E7D4F88C30C4F888900135ED
:100D88005B44AF42C4F88C307FF42BAF50E7013599
:100D980009030223AF42618484F820307FF421AF35
:100DA80046E78B0103F4F86301356384AF424FF0E3
:100DB800010384F820307FF414AF39E77F2A3FF627
:100DC80034AF144B134413F8203C063303F4FC7E71
:100DD80002E04FF0080E20224FF0100B6CE7B4F938
:100DE8007C1083E7B4F98010BDE7154620E7CDE90C
:100DF800023220468847DDE902320146206875E75D
:100E0800CDE9023220468847DDE9023201462068F2
:100E1800A9E700BF908D0008BD020008F501000891
:100E2800090200084A2815D8164B03EB8000026E09
:100E3800C2F30310082822D803EB8000D0F8CC01B5
:100E480002F00F0203EB8203D3F8F03101B91B045F
:100E58008361704700F0C003C02B0A4B03D04FF0EA
:100E6800FF320020ECE7CF28F9D800F03F0003EB71
:100E78008000D0F88C2103EB8202126ED8E70020A4
:100E8800DEE700BF908D0008044AD2F8A010D2F81F
:100E9800A0305B1A8342FAD3704700BF7800002065
:100EA8002DE9F04FC3B24A2B8FB0884600F2F38089
:100EB800964A02EB830300F4E0601C6E0443C4F31B
:100EC8000310FFF70FFC0546002800F0E18004F04E
:100ED8000F040126D8F80830A6400022B7B20892BD
:100EE8004BB10222414606A89847D8F80C3009931E
:100EF800D8F8083008932CB100247F080134012F5A
:100F0800E4B2FAD16300EA68DFF82C92804F0194CA
:100F18004FF0030A0AFA03FA0AEA020A2AFA03FA5B
:100F28000AF0030A002302E00133102B6ED00121DE
:100F380001FA03F206EA0200B243F5D1D5F80C80B3
:100F4800744C03FA01F24FF0030C0CFA02FE28EA83
:100F58000E080AFA02F242EA0802EA602A6822EA5D
:100F68000E022A6000220392D9F8442042F48042FB
:100F7800C9F84420D9F8442002F480420392039A25
:100F880023F0030202F1804202F59C3203EA0C08C6
:100F9800D2F808B04FEA88084FF00F0E0EFA08FE94
:100FA800A5422BEA0E0E1ED004F58064A54216D089
:100FB80059498D4276D059498D4279D058498D4248
:100FC80000F08B8057498D4200F0938056498D423E
:100FD80000F0898055498D4200F09180082101FA7E
:100FE80008F14EEA010EC2F808E0BA6822EA0002E7
:100FF800BA60FA680243FA607A6822EA00027A6004
:101008003A6801331043102B386090D1019C484D49
:10101800089B142202FB0455002204350C920AAEE8
:101028003BB1022206A930469847DDE90823CDE9FD
:101038000C2396E8030004AB83E8030095E803005B
:1010480086E8030093E803000C9AAB68AA6085E879
:1010580003000D9AE9680C930D91EA601BB1032215
:10106800314630469847334B04EB840403EB840441
:10107800002294F9A4000621FFF7FCF994F9A400D2
:10108800FFF730FA089B1BB106A9032208469847C8
:101098000FB0BDE8F08F00F0C002C02A0DD04FF0AD
:1010A800FF340CE7022101FA08F14EEA010E9AE733
:1010B8000CFA08F14EEA010E95E7CF2BEFD8134B47
:1010C80000F03F0203EB820200F4E060D2F88C21CA
:1010D80003EB82031C6E0443F1E6042101FA08F1D4
:1010E8004EEA010E7FE7062101FA08F14EEA010EE9
:1010F80079E7052101FA08F14EEA010E73E70721A5
:1011080001FA08F14EEA010E6DE700BF908D000864
:10111800003C01400000024000080240000C024070
:10112800001002400014024000180240001C024057
:101138001C0100207800002000380240394A3A4B50
:1011480030B41468A3FB04534FF47A725B0D02FBAE
:1011580003F382B0354A0093D2F8E831B3F5827FC1
:101168000FD0D2F8E42105E0009B013B009393687F
:101178001B0602D5009B002BF6D1002002B030BC24
:101188007047D2F8A030D2F8A050C91AC4F3CB34B3
:10119800014401FB04F40194D2F8E441431C03D157
:1011A800A3681A06FCD4E8E7A3681B06E5D5D2F8BD
:1011B800A0305B1B8B4208D2019B002B019B03F1E3
:1011C800FF3308BF00210193E8E76368D2F8EC1108
:1011D80023F0E003B1F5004F63601DD0B1F5806FD7
:1011E8001AD0D2F80C32B3F5005F07D1236823F484
:1011F80000532360236843F400532360012382F8DB
:101208003532D2F83832002143F0200382F8341204
:10121800C2F838320320B1E7236823F04003236083
:10122800DFE700BF00000020819F5E1678000020E5
:1012380030B5664C94F83432012B83B077D0D4F8AB
:10124800A01094F835220123012A84F83432D3B24D
:1012580009D0022301210022184684F8351284F8A7
:10126800342203B030BD0028F4D0032284F835229C
:1012780004F50F72C4F81422D4F8EC21D4F8E45120
:10128800A4F818020023B2F5004FC4F83832C4E9B4
:101298008933A4F81A02C4F81C32A4F82032A4F83E
:1012A800223277D02B685A0603D42B6843F04003C8
:1012B8002B60D4F8F031B3F5006FD4F8E8313AD0A8
:1012C800002B77D0012875D0B4F81A329BB2B3B18D
:1012D800AB689B0767D5D4F814321B782B73B4F826
:1012E8001A32D4F81422013B9BB2A4F81A32B4F88B
:1012F8001A3201329BB2C4F81422002BE8D10A201A
:10130800FFF71CFF10B12023C4F83832D4F8EC31B1
:101318003BB9D4F8E4210193D3680193936801930E
:10132800019BD4F83832003B18BF012392E702230F
:10133800184603B030BD002B3FD1B4F83C32EB6007
:10134800B4F81A32224AC4F81422013B9BB2A4F81A
:101358001A32B4F81A329BB2002073B9CFE732F8C8
:10136800023BEB60B4F81A32013B9BB2A4F81A3284
:101378000120B4F81A329BB21BB3AB689B07EED4BA
:10138800D4F8A0305B1A092BF3D908B1C4F8142299
:1013980003235FE72B6823F040032B602B6843F49B
:1013A80080432B607EE7D4F8A0305B1A092B8BD9D9
:1013B80003234FE794F83C3290E70128BDD0054A53
:1013C800C7E700289BD0C4F8142298E778000020CB
:1013D800B6020020B40200202DE9F047204D214C30
:1013E8004FF4001A1F464FF6FF738846C0E91633BC
:1013F8004FF020092A23C5F818A00120164684F8C2
:101408003C3298FA98F8FFF713FF7FBAC5F818909E
:101418000420A4F83C82A4F83E72FFF709FF2B23AE
:10142800C5F818A0012084F83C32FFF701FFC5F881
:101438001890089B76BA5BBA0420A4F83E32A4F848
:101448003C62FFF7F5FEC5F818A02C23012084F8AC
:101458003C32FFF7EDFEC5F81890BDE8F08700BFF5
:10146800000802407800002030B5664C94F8343209
:10147800012B83B00ED0D4F8A05094F83532012255
:10148800934284F8342207D00122002384F83522BD
:1014980084F8343203B030BD0029F5D0032384F832
:1014A80035320023C4F83832C4E98933A4F81A1253
:1014B800C4F81C32A4F82032A4F82232D4F8EC3153
:1014C800D4F8E421C4F81402B3F5004FA4F81812B4
:1014D8006BD013685B0603D4136843F040031360B2
:1014E800D4F8F031B3F5006FD4F8E83135D0002BDB
:1014F80064D0012962D0B4F81A329BB2B3B19368B0
:101508009B0769D5D4F814321B781373B4F81A32D0
:10151800D4F81402013B9BB2A4F81A32B4F81A3278
:1015280001309BB2C4F81402002BE8D129464FF0D1
:10153800FF30FFF703FE10B12023C4F83832D4F887
:10154800EC313BB9D4F8E4210193D3680193936853
:101558000193019BD4F8383296E7002B44D130F838
:10156800023BD360B4F81A32C4F81402013B9BB2B0
:10157800A4F81A32B4F81A329BB2002BD6D0002144
:1015880093689B0733D530F8023BD360B4F81A321E
:10159800013B9BB2A4F81A32B4F81A329BB201216B
:1015A800002BEDD1C4F81402C0E7136823F0400300
:1015B8001360136843F4804313608AE70378137356
:1015C800B4F81A32D4F81412013B01319BB2C4F8B2
:1015D8001412A4F81A328EE7D4F8A030B4F81A32EC
:1015E8009BB2002B8BD1A1E70129C3D1B7E7D4F86F
:1015F800A030B4F81A329BB2002BC1D1002995D083
:10160800D0E700BF780000202DE9F043C300040AAA
:10161800C608EF29ADF5377D0D4604F0F80406F04D
:10162800FC06DBB240F2018100200021002263F3B6
:10163800070064F3070266F3070164F30F2063F3FE
:101648000F2166F30F2264F3174163F3174266F321
:10165800174063F31F6064F31F6266F31F6105ABF5
:10166800B9AC43F8040C43E903210C339C42F8D18C
:10167800A64C94F83432012B09D1F03DEF2DFCD85B
:10168800002D40F08B800DF5377DBDE8F0830127F4
:101698000026D4F8A01094F8353284F83472012B5F
:1016A80071D1D4F8EC21C4F81C624FF434734FF0B4
:1016B800030C02A8B2F5004F84F835C2C4E9896664
:1016C800C4F83862D4F8E421A4F81A32C4F8140231
:1016D800A4F81832A4F82062A4F8226207D113688B
:1016E80023F040031360136843F4804313601368C6
:1016F8005B0603D4136843F040031360D4F8F03159
:10170800B3F5006FD4F8E8315AD063B9037813738E
:10171800B4F81A32013B9BB2A4F81A32D4F8143246
:101728000133C4F81432B4F81A329BB2B3B19368D7
:101738009B073DD5D4F814321B781373B4F81A32CA
:10174800D4F81402013B9BB2A4F81A32B4F81A3246
:1017580001309BB2C4F81402002BE8D14FF0FF30DF
:10176800FFF7ECFC10B12023C4F83832D4F8EC3180
:101778003BB9D4F8E4210193D368019393680193AA
:10178800019BD4F8383284F83572F03DEF2D84F897
:1017980034623FF67EAF002D3FF475AF05EB45058B
:1017A800A9B202A8FFF760FE0DF5377DBDE8F0830A
:1017B800D4F8A030B4F81A329BB2002BB7D1CDE7D9
:1017C8005BB90388D360B4F81A32013B9BB20DF1C0
:1017D8000A00A4F81A32C4F81402B4F81A329BB2F8
:1017E800002BBBD04FF0000C93689B0712D530F844
:1017F800023BD360B4F81A32013B9BB2A4F81A3208
:10180800B4F81A329BB24FF0010C002BECD1C4F89B
:101818001402A3E7D4F8A030B4F81A329BB2002B14
:10182800E2D1BCF1000F99D0F1E701EB410E384845
:101838000EF1FF324FEA4108A0FB02104008112ABE
:1018480000F101005FD94FF000094FF0000C0027AC
:1018580063F3070966F3070C64F3070764F30F29BA
:1018680063F30F2C66F30F27810866F3174964F3B7
:10187800174C63F3174701EB410105AA63F31F698E
:1018880066F31F6C64F31F6702EB810142F8049C46
:1018980042E9037C0C329142F8D120F003029042D5
:1018A80002EB42012DD002A84218CF1C77454454C0
:1018B800567093701CD2C4558F1D7745167153719D
:1018C80016D2C45501F10907BE45D67113720FD956
:1018D800C45501F10C07BE459672D37208D90F3171
:1018E8008E45C4555673937302D944541674537471
:1018F80005EB080189B2FFF7B7FD0DF5377DBDE8A7
:10190800F08302A8F4E70021CDE700BF78000020AB
:10191800ABAAAAAA114A08B502F511710023C2E9B7
:10192800AE33C2E9AA33A2F8C8320846FEF768FC0B
:101938000346C2F8B0320846FEF758FC0346C2F820
:10194800B4320846FEF75CFC0346C2F8C0320846CB
:10195800FEF74CFCC2F8C40208BD00BF78000020A6
:10196800421C00D1FEE7F8B5684B00F00F0203EB0C
:1019780082030546C0F30310D3F8F041FEF7B2FE28
:1019880094FAA4F3826843B1B3FA83F35B004FF08F
:10199800030C0CFA03F322EA030294FAA4F33BB112
:1019A800B3FA83F35B004FF0030C0CFA03F31A430A
:1019B800826001F00702032A00F2A780DFE802F044
:1019C800202002202D07C1F3062C40F18280230A33
:1019D800476A93FAA3F53DB1B5FA85F5AD000F2630
:1019E80006FA05F527EA050793FAA3F3002B00F09A
:1019F8008A80B3FA83F39B000CFA03F33B434362F8
:101A0800056894FAA4F343B1B3FA83F35B004FF08B
:101A1800030C0CFA03F325EA030594FAA4F3002B4C
:101A280055D0B3FA83F35B0002FA03F3013A2B4370
:101A3800012A036005D843680A074CBF2343A34320
:101A48004360C1F30111012928D0022917D194FA62
:101A5800A4F3C2683BB1B3FA83F35B00032101FA34
:101A680003F322EA030294FAA4F434B1B4FA84F436
:101A78006300022101FA03F31A43C260F8BDC26889
:101A880094FAA4F4002CF8D0B4FA84F46300032187
:101A980001FA03F322EA0302C260F8BDC26894FAAD
:101AA800A4F33BB1B3FA83F35B00032101FA03F318
:101AB80022EA030294FAA4F4002CDED0B4FA84F4E7
:101AC8006300012101FA03F31A43C260F8BD402301
:101AD800AAE7056A94FAA4F343B1B3FA83F39B0027
:101AE8004FF00F0E0EFA03F325EA030594FAA4F358
:101AF8003BB1B3FA83F39B000CFA03F32B43036265
:101B08007EE78023F8E7802376E7FEE7908D0008DC
:101B18002DE9F0438E4DD5F89460731C85B03AD00A
:101B28008C4C072303E054F80C3F5F1C33D09E42D3
:101B3800F9D1D5F89070D4F804E07B1C31D1D5F8F0
:101B480098C0BCF1FF3F4FF000083BD0824C052302
:101B580004E054F80C3FB3F1FF3F33D09C45F8D173
:101B6800D5F89CC0D4F80490BCF1FF3F31D10023D4
:101B7800BEF1000F0CD0B8F1000F09D0B9F1000F79
:101B880006D0F04539D04B4500D083BBC5F88C90C2
:101B980005B0BDE8F083D5F890707B1C4FF0000EBF
:101BA800CDD06E4C062304E054F80C3FB3F1FF3F50
:101BB800C5D09F42F8D1D5F898C0D4F80480BCF1BC
:101BC800FF3FC3D1D5F89CC0BCF1FF3F4FF00009DF
:101BD800CDD0634C042304E054F80C3FB3F1FF3F2D
:101BE800C5D09C45F8D16368C2E7F14510D0002301
:101BF800C5F88C3005B0BDE8F0834B4506D0002B06
:101C0800F3D0C5F88C8005B0BDE8F0837345EED1FC
:101C1800BCF1FF3F534C544BC5F88CE014BF4FF454
:101C2800802C4FF4007CC5F84CC0A6454FF4827C4C
:101C38001B68C5F834E0C5F838C000F070814B4C1B
:101C4800A64500F069814A4CA64500F05A81B0EBE0
:101C5800530FC0F0188100232B650023EB63002984
:101C680040F00881A964002A4FF000030CBF8022CD
:101C78000022C5E91523EB652B64721C4FF007039E
:101C880069642B660ED0334A04E052F80C3F5C1CA2
:101C980000F0ED809E42F8D191683046FFF760FE73
:101CA800D5F89070781C0DD02C4A062304E052F821
:101CB8000C3F591C00F0DC809F42F8D191683846EF
:101CC800FFF74EFED5F89800471C00F08581224AA0
:101CD800052304E052F80C3F5E1C00F0CA809842CD
:101CE800F8D19168FFF73CFE6B6C002B00F0DE80AA
:101CF800D5F89820C2F30313082B00F26D811D4913
:101D080001EB830302F00F0201EB8202D3F8CC014E
:101D1800D2F8F031C16893FAA3F23AB1B2FA82F27A
:101D28005200032404FA02F221EA020193FAA3F30F
:101D380033B1B3FA83F35B00012202FA03F31943C8
:101D4800C160D5F89C00441C20D0054A042318E043
:101D580078000020C08F00086890000814900008E0
:101D6800BC9000080030014000000020003800400E
:101D7800003C0040908D000852F80C3F591C00F0C0
:101D880091809842F8D19168FFF7EAFD6A6B944B0D
:101D98009A4200F0F580934B9A4200F0DC8003F5FC
:101DA80080639A4213D1904B00210191196C41F440
:101DB80000411964196C01F4004101910199196AF3
:101DC80041F400411962196A21F400411962A86DB1
:101DD800002840F0B480AE6B6B6CB6F5827F00F0E3
:101DE800EB8003F0020CAB6C286503F00104864617
:101DF80095F885100023EB6501F0FF03002900F03A
:101E0800A780EB6B296C6F6D01F4006103F4044348
:101E18000B43E96C01F40078090C01F0040100F0AF
:101E2800100007F0800743EA080308433B430221F8
:101E380085F8851043EA0E03116843EA0C0323432F
:101E480006F48276334321F040011160136050603C
:101E5800D36923F40063D36100240123C5F88840C3
:101E680085F88530136843F04003136090E6FEE779
:101E7800FEE7FEE78B1E18BF01230129AB640CBFE8
:101E880000210221EFE6B0EB930F02D308232B6564
:101E9800E3E6B0EBD30F06D2B0EB131F49D31823F8
:101EA8002B65DAE6FEE710232B65D6E6D5F89820F1
:101EB800C2F30313082B00F28F804C4901EB830314
:101EC80002F00F0201EB8202D3F8CC01D2F8F03114
:101ED800C16893FAA3F23AB1B2FA82F2520003242B
:101EE80004FA02F221EA020193FAA3F3002B3FF469
:101EF80027AFB3FA83F35B00022202FA03F3194314
:101F08001EE704F5FE34A468C4F3822C374C6444FD
:101F180094F88043E3409AE604F50034F3E7324C42
:101F2800A468C4F3423C314C644494F88043E340D1
:101F38008DE6B0EB531F39D320232B658DE62B6D2F
:101F4800AE6B0024C5E9114403F0380EA4464FE7F0
:101F580085F8843055E7244B00210291196C41F42F
:101F680080411964196C01F4804102910299196A3F
:101F780041F480411962196A21F48041196226E707
:101F880003F5843300210391596C41F4805159645D
:101F9800596C01F4805103910399596A41F48051B5
:101FA8005962596A21F48051596210E7B0EB931FC6
:101FB8000BD328232B6550E603F0020CAB6C03F01F
:101FC80001042B6D03F0380E12E7B0EBD31F2CBFC2
:101FD800302338232B6540E60023DB68FFDE00BF93
:101FE800003001400038004000380240908D000861
:101FF80010B5264C84B004AB03E90700B4F90030EF
:102008004B2B33D0B4F90C204B2A32D0B4F918102A
:102018004B2931D0B4F924004B2830D0013309D0F2
:1020280001322FD001312FD0013008BF032202D056
:1020380004B010BD002202EB42034B2124F8231008
:102048005300134404EB8301BDF80C209DF80E30B7
:10205800029848600A818B729DF80C209DF80D103B
:10206800FFF756FD4B23238604B010BD002213460C
:10207800E7E701220223E4E702220423E1E703223F
:102088000623DEE70122D6E70222D4E77800002003
:1020980070B51C4C94F8883284B00546F3B91A4ED2
:1020A8004FF40013B361012084F83C52FFF7C0F8E5
:1020B80094F889322022B26173B994F888325BB9F6
:1020C800124A4FF480510123916184F8883204B098
:1020D800BDE87040FEF754B804B070BD00230C4949
:1020E8008DF80E3001220291ADF80C2084F8883268
:1020F80004AB13E90700FFF77BFF044B4FF0805256
:102108009A61CCE7780000200008024000040240F1
:1021180080DE800230B51C4C94F8883285B00546C4
:10212800F3B91A4B20229A61012084F83C52FFF738
:102138007FF8174B94F889224FF0805199616AB95A
:1021480094F8882252B94FF480510122996184F899
:10215800882205B0BDE83040FEF712B805B030BDA2
:1021680000230C498DF80E3001220291ADF80C20A5
:1021780084F8883204AB13E90700FFF739FF044BF2
:102188004FF080529A61CCE77800002000080240A6
:102198000004024080DE800230B5334C94F8883267
:1021A80085B00546002B3CD13620FFF771FF05F0BE
:1021B8000300022884F8630247D0032851D001287D
:1021C80045D04820FFF7A6FF4FF4A0724FF4F073F4
:1021D800C4E9A523254A264B12682649A3FB0232E7
:1021E800920C02EB8202486852004B681B1A9A4212
:1021F800FBDC94F889325BB994F8883243B91E4AFB
:102208004FF480510123916184F88832FDF7B8FFBB
:102218004FF6FF73C4E9A73305B0BDE83040FFF7B8
:1022280079BB002315498DF80E3001220291ADF8D3
:102238000C2084F8883204AB13E90700FFF7D8FEB6
:102248000D4B4FF080529A61AEE78820BAE72820FC
:10225800FFF760FF4FF4F0724FF4A073C4E9A523B1
:10226800B8E7E820F4E700BF78000020000000206D
:1022780083DE1B43001000E00004024080DE800281
:102288002DE9F047984682B090F885300A9F002BD8
:1022980040F08880456FC36E0D449D42044680F22D
:1022A8008180866F006F164486427BDA626E9542A3
:1022B80002DAAD1AA8441546A16E8E4275DB05EB0D
:1022C800080206EB07099342B8BFA3EB0508484587
:1022D800BCBF871B8146B8F1000F63DD002F61DDAD
:1022E80094F84430002B64D109F1FF33009323683C
:1022F8003246DE6B05EB0803013B29462046B04712
:102308000B9B07FB08F198B2FFF77EF994F845306C
:10231800002B47D194F84430002B43D1DFF83CA17F
:102328004B49BAF9002001234FF480504B2A84F816
:102338004430886108D1474ACAF804204FF6FF7133
:10234800AAF80010AAF80830BAF90C304B2B09D1BA
:10235800404ACAF810204FF6FF710123AAF80C1062
:10236800AAF81430BAF918304B2B09D1394ACAF8EF
:102378001C204FF6FF710123AAF81810AAF8203084
:10238800BAF924304B2B09D1324ACAF828204FF623
:10239800FF710123AAF82410AAF82C304FF6FF7316
:1023A800AAF8303002B0BDE8F087761A37440E46F6
:1023B80085E7DFF8A8A0BAF9002000234B2A84F8A3
:1023C80044301CD0BAF90C104B2933D0BAF9180094
:1023D8004B2832D0BAF924C0BCF14B0F30D00132AF
:1023E80020D001312FD001302FD0BCF1FF3F08BFE2
:1023F800032218D0164B4FF080529A6174E71A46A0
:1024080013440AEB830C1448CCF804000122002181
:10241800ACF808208CF80A10FFF77AFB4B23AAF8CF
:102428003030E7E71A4602EB42034B212AF8231023
:102438005300E5E701220223E2E702220423DFE753
:1024480003220623DCE70122EDE70222EBE700BFC7
:102458000004024000093D0080DE80027800002070
:1024680090F8443003B9704710B5284CB4F90020EF
:1024780000234B2A80F8443038D0B4F90C104B298B
:1024880036D0B4F918004B2835D0B4F924C0BCF1C3
:102498004B0F33D001320DD0013132D0013032D060
:1024A800BCF1FF3F08BF032205D0194B4FF0805203
:1024B8009A6110BD1A4602EB42034B2124F82310FF
:1024C8005300134404EB830C01221248ACF8082093
:1024D8000021CCF804008CF80A10FFF719FB4B23F5
:1024E80023860B4B4FF080529A6110BD1A46E8E7DD
:1024F80001220223E5E702220423E2E7032206235E
:10250800DFE70122D7E70222D5E700BF78000020E5
:102518000004024080DE800270B590F84430B94C67
:1025280082B006460D46002B40F0AE80EB0823F043
:10253800030384F83D3294F834322A0A22F0070261
:10254800ED00012B84F83C2284F83E520ED0D4F8DA
:10255800A01094F835320122934284F834222BD00B
:102568000122002384F8352284F8343296F8453065
:1025780003BB96F84430EBB9B4F90020A249012313
:102588004FF480504B2A86F84430886100F002816D
:10259800B4F90C304B2B00F0F580B4F918304B2B04
:1025A80000F0E880B4F924304B2B00F0FA804FF6A5
:1025B800FF73238602B070BD0023032284F83522FE
:1025C800A4F81822C4F83832A4F81A22D4F8EC2156
:1025D800C4F81C32C4E98933A4F82032A4F82232A2
:1025E800B2F5004F894BC4F81432D4F8E43107D15E
:1025F8001A6822F040021A601A6842F480421A608F
:102608001A6850066AD5D4F8F021B2F5006FD4F8EC
:10261800E8216ED0002A00F09E80B4F81A2292B207
:10262800B2B19A68920728D5D4F8142212781A738E
:10263800B4F81A22D4F81402013A92B2A4F81A2271
:10264800B4F81A22013092B2C4F81402002AE8D170
:102658000A20FEF773FD10B12023C4F83832D4F8ED
:10266800EC313BB9D4F8E4210193D3680193936822
:102678000193019BD4F8383272E7D4F8A020521A9B
:10268800092A3FF66DAFC8E7B4F9002000234B2AAA
:1026980080F8443000F0AD80B4F90C104B2900F0FC
:1026A800AA80B4F918004B2800F0A880B4F924C017
:1026B800BCF14B0F00F0B28001327CD0013100F048
:1026C800B080013000F0AF80BCF1FF3F08BF0322AB
:1026D80072D04D4B4FF080529A6127E71A6842F04A
:1026E80040021A60D4F8F021B2F5006FD4F8E8215E
:1026F80090D1002A5DD1B4F83C22DA60B4F81A22ED
:102708004348C4F81402013A92B2A4F81A22B4F861
:102718001A2292B2002A9BD000250EE030F8022B34
:10272800DA60B4F81A22013A92B2A4F81A22012502
:10273800B4F81A2292B2002A55D09A689207EDD4BA
:10274800D4F8A020521A092AF2D9002D3FF408AF74
:10275800C4F8140204E794F83C221A73D4F814223B
:102768000132C4F81422B4F81A22013A92B2A4F839
:102778001A2252E7274AE2614FF6FF7101232183AB
:1027880023840FE7234A22614FF6FF710123A181B9
:10279800A38202E71F4A62604FF6FF7121802381FE
:1027A800F6E61C4AA2624FF6FF710123A184A385B5
:1027B800FDE61648ABE71A4602EB42014B2024F827
:1027C80021005300134404EB830C1348CCF8040095
:1027D80001220021ACF808208CF80A10FFF798F9BC
:1027E8004B23238675E7002D3FF432AFC4F814025B
:1027F8002EE71A46E6E701220223E3E70222042332
:10280800E0E700BF7800002000040240B402002086
:10281800B602002000093D0080DE80020322062364
:10282800D0E70122C8E70222C6E700BF2DE9F0433E
:10283800044690F8850083B000287AD1656F1F465A
:10284800636E0D449D4274DBE36E9D4271DAA66FA0
:10285800236F16449E426CDAA16E8E4202DA761A13
:1028680037440E4606EB07084345BCBF9F1B9846F6
:10287800002F5EDD94F84430002B5DD108F1FF3362
:102888000093236832462946DE6B20462B46B04724
:102898000A9B394698B2FEF7B7FE94F84530002BEC
:1028A80047D194F84430002B43D1DFF8349149499B
:1028B800B9F9002001234FF480504B2A84F84430A2
:1028C800886108D1444AC9F804204FF6FF71A9F875
:1028D8000010A9F80830B9F90C304B2B09D13E4A41
:1028E800C9F810204FF6FF710123A9F80C10A9F8B8
:1028F8001430B9F918304B2B09D1374AC9F81C20C4
:102908004FF6FF710123A9F81810A9F82030B9F97A
:1029180024304B2B09D1304AC9F828204FF6FF71D3
:102928000123A9F82410A9F82C304FF6FF73A9F851
:10293800303003B0BDE8F083DFF8A490B9F9002087
:1029480000234B2A84F8443035D0B9F90C104B29B0
:1029580033D0B9F918004B2832D0B9F924C0BCF1EA
:102968004B0F30D001320DD001312FD001302FD094
:10297800BCF1FF3F08BF032205D0164B4FF0805231
:102988009A617BE71A4602EB42034B2129F8231090
:102998005300134409EB830C1048CCF804000122BF
:1029A8000021ACF808208CF80A10FFF7B1F84B2387
:1029B800A9F83030E1E71A46EBE701220223E8E7FD
:1029C80002220423E5E703220623E2E70122DAE7ED
:1029D8000222D8E70004024000093D0080DE8002A0
:1029E800780000202DE9F043044690F8850083B074
:1029F800002879D1A56F1F46A36E15449D4273DB4D
:102A0800666FE26E0E4496426EDA236F9D426BDA71
:102A1800636E9E4202DAF61A37441E4606EB070931
:102A28004A45BCBF971B9146002F5DDD94F84430A2
:102A3800002B5CD1009520682A4609F1FF33C56B4D
:102A480031462046A8470A9B394698B2FEF7DCFD76
:102A580094F84530002B47D194F84430002B43D1EB
:102A6800DFF834814949B8F9002001234FF4805038
:102A78004B2A84F84430886108D1454AC8F80420B4
:102A88004FF6FF71A8F80010A8F80830B8F90C3014
:102A98004B2B09D13E4AC8F810204FF6FF7101238D
:102AA800A8F80C10A8F81430B8F918304B2B09D135
:102AB800374AC8F81C204FF6FF710123A8F81810F0
:102AC800A8F82030B8F924304B2B09D1304AC8F87F
:102AD80028204FF6FF710123A8F82410A8F82C30FD
:102AE8004FF6FF73A8F8303003B0BDE8F083DFF885
:102AF800A880B8F9002000234B2A84F8443035D048
:102B0800B8F90C104B2933D0B8F918004B2832D03B
:102B1800B8F924C0BCF14B0F30D001320DD00131CF
:102B28002FD001302FD0BCF1FF3F08BF032205D0C2
:102B3800164B4FF080529A617CE71A4602EB42032B
:102B48004B2128F823105300134408EB830C114839
:102B5800CCF8040001220021ACF808208CF80A10F7
:102B6800FEF7D6FF4B23A8F83030E1E71A46EBE72B
:102B780001220223E8E702220423E5E703220623D1
:102B8800E2E70122DAE70222D8E700BF00040240A8
:102B980000093D0080DE8002780000202DE9F8431E
:102BA8000446406F0E18616E8E42C0F2A480A56F75
:102BB8009846A36E15449D42C0F29D80E36E9E42E6
:102BC80080F29980236F9D4280F2958094F844307A
:102BD800002B40F092806E4FE36D9E4217D0DFF8D5
:102BE800B4914FF40013C9F8183001202A2387F84C
:102BF8003C32FEF71DFB2023C9F81830042073BAB5
:102C0800A7F83E32A7F83C32FEF712FBE665A36D43
:102C18009D4214D05F4E4FF40013B36101202B2363
:102C280087F83C32FEF704FB2023B36104206BBA1B
:102C3800A7F83E32A7F83C32FEF7FAFAA565554DDB
:102C48004FF40013AB6101202C2387F83C32FEF7C8
:102C5800EFFA20234FEA18214FEAD802AB6121F09E
:102C680007014FEAC80322F00302032087F83E3227
:102C780087F83C1287F83D22FEF7DAFA94F84530D7
:102C8800002B38D194F84430002B34D1B7F9002008
:102C9800414901234FF480504B2A84F8443088611D
:102CA80005D13E4A7A604FF6FF7139803B81B7F90A
:102CB8000C304B2B06D1394A3A614FF6FF7101238C
:102CC800B981BB82B7F918304B2B06D1334AFA6168
:102CD8004FF6FF71012339833B84B7F924304B2B1E
:102CE80006D12E4ABA624FF6FF710123B984BB851B
:102CF8004FF6FF733B86BDE8F883254FB7F90020F0
:102D080000234B2A84F8443035D0B7F90C304B2BCC
:102D180033D0B7F918104B2932D0B7F924004B2813
:102D28000ED001321FD001332DD001312DD001300A
:102D380008BF032218D0184B4FF080529A614BE716
:102D480003220623134407EB830C1548CCF8040030
:102D580001220021ACF808208CF80A10FEF7D8FEF2
:102D68004B233B86E7E7002202EB42034B2127F87F
:102D780023105300E6E71A46E4E701220223E1E7BD
:102D880002220423DEE70122EEE70222ECE700BF7D
:102D980078000020000802400004024000093D00BD
:102DA80080DE800210B490F8854014B95DF8044BB9
:102DB800F4E65DF8044B70472DE9F0430446406F94
:102DC8000E18616E8E4283B049DB1F46E36E9E4249
:102DD80045DAA56F236F15449D4240DAA16E8D42F6
:102DE80040DB05EB07084345BCBF5F1B9846002F37
:102DF80035DD94F84430002B38D108F1FF330093C7
:102E080023682A463146DD6B20463346A8470A9B8D
:102E1800394698B2FEF7F8FB94F84530FBB994F8B8
:102E28004430E3B9DFF844914D49B9F90020012352
:102E38004FF480504B2A84F8443088613CD0B9F96B
:102E48000C304B2B4DD0B9F918304B2B3ED0B9F97B
:102E580024304B2B50D04FF6FF73A9F8303003B015
:102E6800BDE8F0836D1A2F440D46BAE7DFF8FC90F1
:102E7800B9F9002000234B2A84F8443060D0B9F90E
:102E88000C104B295ED0B9F918004B285DD0B9F960
:102E980024C0BCF14B0F5BD001325CD001315CD057
:102EA800013034D0BCF1FF3F08BF032230D02C4B97
:102EB8004FF080529A61A0E72A4AC9F804204FF6D9
:102EC800FF71A9F80010A9F80830B8E7254AC9F831
:102ED8001C204FF6FF710123A9F81810A9F820301B
:102EE800B5E7204AC9F810204FF6FF710123A9F869
:102EF8000C10A9F81430A6E71A4AC9F828204FF68A
:102F0800FF710123A9F82410A9F82C30A3E70222A5
:102F180002EB42034B2129F823105300134409EB19
:102F2800830C1148CCF8040001220021ACF80820D9
:102F38008CF80A10FEF7ECFD4B23A9F83030B6E701
:102F48001A46EBE701220223E8E702220423E5E719
:102F580003220623E2E71A46DAE70122D8E700BF90
:102F68000004024000093D0080DE80027800002055
:102F78002DE9F0430446806F1618A26E964283B07E
:102F880048DB656FE26E0D44954243DA1F46236FB6
:102F98009E423FDA636E9D423FDB05EB07094A45D7
:102FA800BCBF571B9146002F34DD94F84430002BEA
:102FB80037D100962068294609F1FF33C56B3246A0
:102FC8002046A8470A9B394698B2FEF71DFB94F89D
:102FD8004530FBB994F84430E3B9DFF844814D49F2
:102FE800B8F9002001234FF480504B2A84F844306C
:102FF80088613CD0B8F90C304B2B4DD0B8F918305B
:103008004B2B3ED0B8F924304B2B50D04FF6FF73E2
:10301800A8F8303003B0BDE8F083ED1A2F441D4600
:10302800BBE7DFF8FC80B8F9002000234B2A84F8BE
:10303800443060D0B8F90C104B295ED0B8F91800AC
:103048004B285DD0B8F924C0BCF14B0F5BD00132DE
:103058005CD001315CD0013034D0BCF1FF3F08BFF7
:10306800032230D02B4B4FF080529A61A1E72A4AB5
:10307800C8F804204FF6FF71A8F80010A8F8083027
:10308800B8E7254AC8F81C204FF6FF710123A8F8B5
:103098001810A8F82030B5E71F4AC8F810204FF6D6
:1030A800FF710123A8F80C10A8F81430A6E71A4AF3
:1030B800C8F828204FF6FF710123A8F82410A8F8B3
:1030C8002C30A3E7022202EB42034B2128F82310FD
:1030D8005300134408EB830C1048CCF80400012279
:1030E8000021ACF808208CF80A10FEF711FD4B23DC
:1030F800A8F83030B6E71A46EBE701220223E8E7E2
:1031080002220423E5E703220623E2E71A46DAE768
:103118000122D8E70004024000093D0080DE800259
:10312800780000202DE9F04F1F4685B090F88530D3
:103138000E9C002B40F0A680A51AA7EB010A0123DC
:10314800164680F8453085EAE5728AEAEA73A2EB0A
:10315800E572A3EBEA739A42814600F3968015461E
:10316800B9420BDD351BB446002D264664468C4615
:10317800A1EB070AB8BF6D4239466746B442D4BFCF
:103188004FF0FF3001209A4203904FEA6A0440F35F
:1031980095808F4236DB01F1010800230A46B346C9
:1031A80004E04646B74208F1010820DB641B03F13E
:1031B8000103F6D5012B71D0D9F800606E49F66984
:1031C8008E4240F0C38099F885602EB90F9900911E
:1031D80048465946FFF7F0FD039B4646B7429B44D5
:1031E800424654444FF0000308F10108DEDA114664
:1031F80043B10F9A0092D9F800400A46E46959464B
:103208004846A04799F8463089F84530002B39D10F
:1032180099F84430002B35D15849594B01224FF4C5
:10322800805489F844208C61B3F900104B2905D1EA
:10323800544959604FF6FF7018801A81B3F90C2071
:103248004B2A06D14F4919614FF6FF700122988128
:103258009A82B3F918204B2A06D14A49D9614FF608
:10326800FF70012218831A84B3F924204B2A06D14F
:10327800444999624FF6FF70012298849A854FF667
:10328800FF721A8605B0BDE8F08FBE468C46274609
:103298003146AA46744666461D4661E7D9F80030AD
:1032A8001E69394B9E425DD199F88530002B93D128
:1032B8000F9B59464846FFF771FC8DE78F42A1DB0B
:1032C80001F101080023B34604E04646B74208F17D
:1032D80001081FDB641B03F10103F6D5012B25D080
:1032E800D9F80060294A366A964235D199F885603E
:1032F8002EB90F9A009248465A46FFF739FE039BAB
:103308004646B7429B44414654444FF0000308F1F7
:103318000108DFDA002B3FF475AF0F9A0092D9F855
:1033280000405A46246A4846A0476BE7D9F800305F
:103338001E69154B9E421AD199F88530002BDED1B3
:103348000F9B5A464846FFF729FCD8E70F9900918A
:1033580048465946B0473FE70F9A009248465A46B2
:10336800B047CCE70F9B59464846B04734E70F9B18
:103378005A464846B047C2E73528000800040240CC
:103388007800002000093D00AD2D0008ED29000857
:103398002DE9F04F04462DED048BD4F89830E268FF
:1033A80026690846D4F8881093B08B4218BFC4E940
:1033B80025112028059204D800F059830A2800F026
:1033C8007983B4F8B870002F00F08882D4F8C83038
:1033D8004FF00009023B06E009F101091FFA89F2E2
:1033E800974240F27B8233F8022F82424FEA490526
:1033F800F2D194F8A3309BB3D4F8D030D4F8DC20C1
:1034080013F8093012F90970784A0B441F442368ED
:103418005B6B934240F0698494F88430002B40F051
:103428005D84B4F9500087421ADDD4F88C30B4F8C2
:10343800BA7094F8A41000223B44C4F88C30C4F845
:103448008820C4F89420002940F0C5829BB2D4F8A3
:10345800DC1011F9092052424944C4F888200DE0D3
:1034680094F8A430002B40F0B282B4F88C30D4F831
:103478008820002AEBD0D4F8DC10494491F90010D8
:103488000A44B4F8C2100B4498B2D4F8D83010905B
:103498005B5B1193C31AD4F8B400039098B21BB2C3
:1034A8000E9394F844100D9093B2069313B20793B9
:1034B800002940F0B78394F8B03040F20112A4F824
:1034C8004520002B00F09683D4F8D430D4F894101B
:1034D800D4F8882013F80930521A134418B2002877
:1034E8000F9040F3F883D4F8D8305A5BB4F8C23060
:1034F8009B1A1BB2002B0BDD0093236822690192F3
:103508005D6AD4F88C2003462046A847D4F8941066
:10351800079A8A420EDD23690193D4F8CC3013F858
:1035280009300093236820465D6A531A0E9AA8470B
:10353800D4F89410079BD4F888208B42BDBF069B13
:10354800CB1A1BB200230C93D4F8D03013F809100F
:10355800079B1944D4F8D43013F80930134499421E
:103568000CDA22690192D4F8CC2012F809200092D2
:1035780022685B1A556A0E9A2046A847D4F8CC00F0
:1035880010F80930002B00F03281059ACDF8109020
:10359800C2F3852303F03E0301330993C2F30B13EF
:1035A80003F07E0301330A93530003F03E03013313
:1035B8000B93079B0E9A4FEA890109EE103A08EE21
:1035C800103A8946D4F8D0300499595C1FFA86FB22
:1035D8004FF0000A002900F006810D9B5344002596
:1035E8009BB208EE903AA846029581E009020008CD
:1035F800B8F1000F13D02368B0491B6A8B421E46EE
:1036080040F0C88294F885304BB919EE101ACDF8FD
:1036180000B0434620460892FFF7AAFC089A029B8E
:10362800FF2F00F06E82BBB1012B236800F092825D
:10363800D3F82080A149BDF81430884540F0B48201
:1036480094F8851041B9009318EE101A029B029263
:103658002046FFF78DFC029A236C43B10292069A2A
:10366800501918EE901A80B29847029A83464FEA8A
:103678001B10C7F1FF030A99099E00F07E0000FBAA
:10368800033001FB07004FEA9B2101F03E0101FBDB
:10369800033107FB061140124001491240EAC121DB
:1036A8004FEA4B0000F03E0000FB03330B9800FB91
:1036B800073741EA6727216881480E6907998642DA
:1036C800BBB2294440F0398294F88500002840F0C4
:1036D8002B82804620460892FFF760FA049AD4F8B5
:1036E800D030CDF80880995C089A0135A9423DDDB3
:1036F800D4F8E03053F80900039B2B4401FB0A334C
:103708001F5C002F7FF474AF029EBEB123686B4824
:103718001F6ABDF81430874240F02F8294F8850064
:1037280060B918EE101A0093204633460292FFF74C
:103738001FFC049AD4F8D030995C029A94F8B060CF
:10374800002E00F0DC810C9BAB4200F3EA81B8F15B
:10375800000F04D1069B2B441BB209EE103A013529
:103768000023A94208F101080293C1DC029E9EB120
:10377800236852491D6ABDF814308D4240F02782F3
:1037880094F8851041B9009318EE101A3346204674
:103798000292FFF7EDFB029AB8F1000F12D02368EE
:1037A8001D6A464B9D4240F0088294F885304BB91B
:1037B80019EE101ACDF800B0434620460292FFF7E2
:1037C800D7FB029AD4F8CC00049BC35C0AF1010A27
:1037D8009A4580F20582D4F8D0300499595C0132B8
:1037E80000297FF4FAAEDDF8109010F809300F9830
:1037F800C8B1B4F8BA10D4F88C200A44119911440D
:103808000A461099521AD21A12B2002A0BDD0092F7
:103818000E9A2569D4F894101A4403462068019535
:10382800456A2046A847D4F8D420D4F8883012F83E
:103838000900227A00210344C4F88830A4F845100E
:1038480022B1204F97F83522032AFBD094F8442060
:10385800002A40F0B5801B4F1B48B7F90010012221
:103868004FF480554B2984F84420856105D14FF6E3
:10387800FF713980154979603A81B7F90C204B2AD4
:1038880006D14FF6FF721149BA8101223961BA8215
:10389800B7F918204B2A06D14FF6FF720B493A8325
:1038A8000122F9613A84B7F924204B2A12D14FF644
:1038B800FF720649BA8401220AE000BFED29000818
:1038C800AD2D0008780000200004024000093D00EA
:1038D800B962BA854FF6FF723A8671E0D4F88C3037
:1038E800B4F8C250DFF838B3B4F9BE60BDF814902C
:1038F800B4F8BCA01D442368D3F820800122D84521
:1039080084F84520A5EB060740F0D08194F885207F
:103918005AB95346CDF800903A4620460291FFF72F
:1039280027FB23680299D3F82080D84505F1FF3298
:1039380040F0C88194F88500002840F09A815346E9
:10394800CDF8009020460291FFF712FB23680299F8
:10395800DD69B31EAC4EB54207F1010240F091811A
:1039680094F88500002840F09781CDF80090204613
:10397800CDE903230291FFF71FFADDE90212049B48
:103988002068C5695144B54201F1FF3140F0898191
:1039980094F8850020B9CDF800902046FFF70CFA7E
:1039A80094F8463084F8453013B994F844303BB362
:1039B800B4F8BC30D4F8882001331344C4F88830F4
:1039C800C4E9253313B0BDEC048BBDE8F08FD4F8FF
:1039D8008C30B4F8BA708D4A1F4423681B6B93422D
:1039E80040F0878194F88430002B40F07B81B4F953
:1039F80054008742FFF639AD0023C4F88C3036E511
:103A0800834F8449B7F9002001234FF480504B2A93
:103A180084F84430886105D17F4A7A604FF6FF7197
:103A280039803B81B7F90C304B2B06D17A4A3A6181
:103A38004FF6FF710123B981BB82B7F918304B2BC0
:103A480006D1754AFA614FF6FF71012339833B8429
:103A5800B7F924304B2B06D16F4ABA624FF6FF7183
:103A68000123B984BB854FF6FF733B86A0E794F822
:103A7800B0309BB1B4F8BC30D4F894002268B6B228
:103A880001960B44B4F8BA100091556AD4F88C200A
:103A980001461B1A2046A847D4F88810B4F8BC3051
:103AA8001944C4E92511C4F8881013B0BDEC048B7F
:103AB800BDE8F08FD4F88C10B4F8BA5094F8A4206C
:103AC80000230D44C4E92533C4F88830C4F88C5069
:103AD800002A3FF477AF23684C4A1B6B934240F0AF
:103AE800268194F88430002B40F01E81B4F95400EC
:103AF8008542FFF667AF0023C4F88C3062E7029670
:103B0800F3E523B9069B2B441BB208EE103A029B3F
:103B1800049901330293D4F8D0304FF00008595C6F
:103B2800E3E500230293E0E5D4F8D03004994FF0A0
:103B38000008595CCDF80880D7E508922046B047C0
:103B4800049AD4F8D0304FF00008995CCDF808807A
:103B5800089ACAE51E693149BDF814308E4242D12F
:103B680094F8851000297FF477AD18EE101A2046D6
:103B78000292FFF713F8029A6EE518EE101A0093F6
:103B88002046029B0292B847049AD4F8D030995C38
:103B9800029AD3E5089219EE101ACDF800B0434600
:103BA8002046B047089A3AE5009318EE101A029B8F
:103BB80002922046C047029A4EE5029219EE101A68
:103BC800CDF800B043462046A847029AFAE500938C
:103BD800029218EE101A33462046A847029ADBE5EF
:103BE800DDF8109003E6029218EE101A2046B0474E
:103BF800029A31E5D4F8CC0010F80920002A3FF4E5
:103C080012AE0F930C93C0E435280008F5010008A4
:103C1800780000200004024000093D00AD2D000896
:103C2800ED2900084A4FB7F9000000234B2884F813
:103C3800443000F08A80B7F90C104B2900F08280DC
:103C4800B7F918204B2A7AD0B7F924C0BCF14B0F2A
:103C580072D0013051D001314ED001326AD0BCF15E
:103C6800FF3F08BF032348D03A4B4FF080529A6178
:103C780021E4DD69B31E384EB54207F101023FF475
:103C88008FAECDE903230291CDF800902046A847D6
:103C9800DDE90323029973E6B5423FF481AE51444E
:103CA8000139CDF800902046A84779E6534602919D
:103CB800CDF800903A462046C04723680299D3F8C9
:103CC800208032E653460291CDF800902046C04746
:103CD800236802993CE600230F9319E4B4F97C00A9
:103CE800FFF7A1BBB4F9800083E620469847FFF7A9
:103CF8009ABB204698477CE6012303EB43024B21FD
:103D080027F822105A00134407EB830C1348CCF809
:103D1800040001220021ACF808208CF80A10FDF7F5
:103D2800F7FE4B233B869FE7B4F98000E0E6204688
:103D38009847DDE60223E0E703230622E3E70223B0
:103D48000422E0E701230222DDE71A46DBE700BF91
:103D580078000020000402403528000880DE800238
:103D68002DE9F0471F46436FCE18C36E82B09E42BE
:103D7800DDF8288058DA856F0446006F15448542BF
:103D880052DA626E964202DAB61A37441646A16EC5
:103D98008D4202DA6D1AA8440D46F21905EB08099E
:103DA8009342B8BF9F1B4845BCBFA0EB050881469E
:103DB800002F39DDB8F1000F36DD94F84430B3BB7D
:103DC80009F1FF33009323682A46DD6BF319013BA1
:103DD80031462046A8470B9B08FB07F198B2FDF730
:103DE80013FC94F84530FBB994F84430E3B9DFF894
:103DF8003CA14B49BAF9002001234FF480504B2ACB
:103E080084F84430886159D0BAF90C304B2B4AD029
:103E1800BAF918304B2B3BD0BAF924304B2B2CD0A5
:103E28004FF6FF73AAF8303002B0BDE8F087DFF82C
:103E3800FCA0BAF9002000234B2A84F8443060D053
:103E4800BAF90C104B295ED0BAF918004B285DD08E
:103E5800BAF924C0BCF14B0F5BD0013238D0013124
:103E68005AD001305AD0BCF1FF3F08BF032230D0EE
:103E78002B4B4FF080529A61A2E72A4ACAF82820B1
:103E88004FF6FF710123AAF82410AAF82C30C7E7CF
:103E9800244ACAF81C204FF6FF710123AAF818100B
:103EA800AAF82030B8E71F4ACAF810204FF6FF7169
:103EB8000123AAF80C10AAF81430A9E7194ACAF87D
:103EC80004204FF6FF71AAF80010AAF808309BE703
:103ED8001A4602EB42034B212AF8231053001344DD
:103EE8000AEB830C1048CCF8040001220021ACF83E
:103EF80008208CF80A10FDF70BFE4B23AAF8303087
:103F0800B6E71A46EBE701220223E8E70222042378
:103F1800E5E703220623E2E70122DAE70222D8E7EF
:103F28000004024000093D0080DE80027800002085
:103F38002DE9F04F1F468BB090F885309DF858500A
:103F4800CDE903210446002B40F0DC801F2F40F20E
:103F5800D980436F01EB0308C36E984580F2D28085
:103F68001046A26F00EB0209226F914580F2CA80C9
:103F7800606E062111FB0586864240F3C380D4F8A3
:103F880068C0082616FB059EE64540F3BB808045C1
:103F9800C0F2BB80607F11FB00818B4240F3B5808B
:103FA800E145C0F2B28016FB0090824240F3AD803A
:103FB800012D40F0AA80DDE91423934200F0A5808A
:103FC80094F84430A04E002B40F04A81236809F150
:103FD80007020092D3F83CA04A46204608F10503A0
:103FE8004146D04707EB8707984B0594D859089066
:103FF800DA19344613798DF82430159B4FEA132AC1
:104008004FEAD3094FEAC308149B4FEA132B0BF06E
:10401800F8030293149BDA08DB00DBB202F0FC021F
:10402800039308230AF0F80A09F0FC095FFA88F8F4
:1040380004930DF12507934608AE234634461E46E1
:1040480014F8011B294200F0F480029B86F83C32E8
:10405800039B86F83DB286F83E320320FDF7E8F868
:10406800BC42EDD186F83CA286F83D9286F83E82A5
:104078000320FDF7DDF8049B5A1E6D0012F0FF03C4
:104088003446EDB20493D7D1059C94F84530002B03
:1040980038D194F84430002B34D1B6F900206C495B
:1040A80001234FF480504B2A84F84430886105D1AD
:1040B800684A72604FF6FF7131803381B6F90C306F
:1040C8004B2B06D1634A32614FF6FF710123B18150
:1040D800B382B6F918304B2B06D15E4AF2614FF61F
:1040E800FF71012331833384B6F924304B2B06D179
:1040F800584AB2624FF6FF710123B184B3854FF677
:10410800FF7333860BB0BDE8F08F504BDFF84CA13E
:10411800DDF8109007EB87073B440593012384F8EB
:10412800453000230293A346029B052B16BF059A30
:104138000027D75C012D03D1DDE9142393422CD04D
:10414800DDF80C80082617E0DBF800305C6A54457F
:104158005DD19BF8853043B9149BCDE900534246A5
:104168002B4649465846FFF7FBFD013E16F0FF0671
:104178004FEA5707A84436D0FB07E5D4DDE91423F6
:104188009342F2D0DBF800305C6A544548D19BF882
:104198008530002BE9D1159BDFE7039B0499079530
:1041A8001A4603F10804029B03EB01084146DDF8B7
:1041B800508016462546FA070FD5DBF800301C69F3
:1041C800254B9C422ED19BF8853033B94346324665
:1041D80058460691FEF7E2FC06990136B5424FEAC9
:1041E8005707E8D1079D029B0133062B0293A94488
:1041F8009AD19BF846308BF845305C46002B81D12C
:104208009BF84430002B7FF47DAF0F4E45E7149B9D
:10421800CDE9005342462B4649465846A047A4E7F5
:10422800159BF5E70691324643465846A04706993E
:10423800D3E786F83CA286F83D9286F83E820320B2
:10424800FCF7F6FF0CE700BF780000201891000883
:104258000004024000093D00AD2D00088922000835
:10426800B6F900C00023BCF14B0F84F8443020D0CD
:10427800B6F90C004B282ED0B6F918104B292CD0C3
:10428800B6F924204B2A30D0BCF1FF3F0BD00130C7
:1042980025D0013106D0013224D0154B4FF0805281
:1042A8009A6193E602231A460C2101FB02F24B2184
:1042B800B15203EB430306EB830C0E48CCF8040021
:1042C80001220021ACF808208CF80A10FDF720FC28
:1042D8004B233386E1E72B46EBE70223E9E72B463E
:1042E8002A46E1E703231A46DEE70323E1E700BF96
:1042F8000004024080DE80022DE9F04F8BB00446B6
:104308009DF850700492022F98463AD00023CDE9C8
:10431800053308939B461846049B656F616EA66F2C
:104328001D44637F00FB03508842464402DBE26E73
:10433800954208DB059A02FB036EA26E964508DBE0
:10434800226F964205DA8D420ADA4FF0010C022FED
:1043580026D0089A13FB02F318B20BB0BDE8F08F11
:10436800E16E8842F1DAA16E8E42EEDB059A216F8A
:1043780002FB036C8C45B4BF4FF0000C4FF0010CEE
:10438800E5E72039234B89B2102205925A5C069240
:1043980003EB810193B2D1F884B808931046BBE7C8
:1043A800069AD4E9030102F1060E4FEAEE028842AA
:1043B800039202D0012B00F0A182059A012584F80E
:1043C8004550002A00F044820022DFF84C90079202
:1043D800054642468D4214D0256806986D6A4D45BB
:1043E80003FB00F640F0278294F885504DB9CDE9DB
:1043F80000312046334604990992FFF7B1FC637FE8
:10440800099A0399002900F06C8104990026CF1DB0
:10441800A246BEE0908D000889220008049906FB98
:1044280003F8280601EBC80800F16881690615D56C
:10443800DAF80010DAF80C004C6A4C4508EB030176
:1044480040F0B7819AF8854044B9CDE9003050462C
:104458000992FFF785FC9AF81D30099AAC0615D524
:10446800DAF80010DAF80C004C6A4C4508EB430106
:1044780040F07B819AF8854044B9CDE90030504638
:104488000992FFF76DFC9AF81D30099AE80616D5CF
:10449800DAF80010DAF80C004C6A03214C4511FBDD
:1044A800038140F06B819AF8854044B9CDE900302A
:1044B80050460992FFF754FC9AF81D30099A2907CB
:1044C80015D5DAF80010DAF80C004C6A4C4508EB00
:1044D800830140F05C819AF8854044B9CDE9003009
:1044E80050460992FFF73CFC9AF81D30099A6C0770
:1044F80016D5DAF80010DAF80C004C6A05214C459C
:1045080011FB038140F04C819AF8854044B9CDE90C
:10451800003050460992FFF723FC9AF81D30099A9B
:10452800A80716D5DAF80010DAF80C004C6A06214C
:104538004C4511FB038140F00F819AF8854044B93E
:10454800CDE9003050460992FFF70AFC9AF81D3071
:10455800099AE90716D5DAF80040DAF80C50646AC7
:1045680007214C4511FB038140F02C819AF88540C6
:1045780044B9CDE9003550460992FFF7F1FB9AF8A6
:104588001D30099A03990136B14207F1080700F076
:10459800A78016F80B50002DF4D0012B7FF43EAF06
:1045A8002806A7F1070100F1C380690612D5DAF8D9
:1045B8000030A6481C69DAF80C308442A7F10601DD
:1045C80040F013819AF8854024B950460992FEF7C5
:1045D800E5FA099AAB0612D5DAF800309B481C694F
:1045E800DAF80C308442A7F1050140F017819AF8F7
:1045F800854024B950460992FEF7D0FA099AEC068C
:1046080012D5DAF8003091481C69DAF80C30844287
:10461800A7F1040140F0EE809AF8854024B950468D
:104628000992FEF7BBFA099A280712D5DAF8003082
:1046380086481C69DAF80C308442A7F1030140F07F
:10464800DE809AF8854024B950460992FEF7A6FA0A
:10465800099A690712D5DAF800307C481C69DAF83B
:104668000C308442A7F1020140F0CE809AF88540D0
:1046780024B950460992FEF791FA099AAB0712D568
:10468800DAF8003071481C69DAF80C30844207F116
:10469800FF3140F0BE809AF8854024B9504609920F
:1046A800FEF77CFA099AEC073FD5DAF8003067493B
:1046B8001C69DAF80C308C4240F0B5809AF8851005
:1046C80099BB394650460992FEF768FA03999AF859
:1046D8001D30099A0136B14207F108077FF459AF36
:1046E80054460398079983440598013188420791F5
:1046F8001A4400F0AD80D4E903516BE6DAF80010F3
:104708004C6ADAF80C104C4565D19AF88540002CB3
:104718007FF48CAECDE90031504641460992FFF74F
:104728001FFB9AF81D30099A80E69AF81D3029E790
:10473800DAF8003045481C69DAF80C30844240F059
:10474800D8809AF88540002C7FF42FAF5046099204
:10475800FEF724FA099A28E7CDE900300992504675
:10476800A0479AF81D30099AF3E6CDE9003009927E
:104778005046A0479AF81D30099A87E6CDE90030DF
:1047880009925046A0479AF81D30099A97E6CDE954
:10479800003009925046A0479AF81D30099AA6E6BB
:1047A800CDE9003009925046A0479AF81D30099A81
:1047B800B6E6CDE9003009925046A0479AF81D3078
:1047C800099A4BE6CDE9003509925046A0479AF878
:1047D8001D30099AD6E6CDE9003109924146504686
:1047E800A0479AF81D30099A20E609925046A0473A
:1047F800099AEFE609925046A047099A14E70992E8
:104808005046A047099A24E709925046A047099ABA
:1048180034E709925046A047099A44E7099250465E
:10482800A047099AEBE6099239465046A0479AF8FC
:104838001D30099AA6E6CDE900310992334604995C
:104848002046A847637F099ADBE500BFAD2D000825
:1048580094F8462084F84520002A7FF47AAD94F82D
:104868004420002A7FF475ADA749DFF8A882012209
:104878004FF4805084F844208861B8F900104B291F
:1048880008D14FF6FF71A8F80010A049C8F8041025
:10489800A8F80820B8F90C204B2A09D14FF6FF7266
:1048A8009A49A8F80C200122C8F81010A8F814207A
:1048B800B8F918204B2A09D14FF6FF729349A8F886
:1048C80018200122C8F81C10A8F82020B8F92420C4
:1048D8004B2A09D14FF6FF728C49A8F824200122EF
:1048E800C8F82810A8F82C204FF6FF72A8F8302036
:1048F8002FE509925046A047099A56E6BCF1000FE9
:104908007FF45BAD94F84420002A40F0B680059F00
:10491800F319013B009323683246DE6B069BEB18C4
:10492800013B29462046B047002F58D0039BDFF8AB
:10493800E4915B440793984600230493039BDA466B
:10494800A346069D33B39AF80070A5F108068024A3
:104958000320DDB1274212BFDBF80C30DBF8103042
:10496800032023FA00F2190A21F0070122F00302BA
:10497800834089F83C1289F83D2289F83E32013D8E
:10498800FCF756FCB5424FEA5404E1D10AF1010A9A
:10499800C245D8D175B9049B0599039A0798013384
:1049A800994204939044824618D0034613440793CF
:1049B8001346C6E7DBF810301A0A032022F0070274
:1049C80089F83C2223FA00F222F00302834089F896
:1049D8003D2289F83E32FCF72BFCDCE75C4694F874
:1049E8004530002B47D194F84430002B43D1DFF8F1
:1049F80024814549B8F9002001234FF480504B2AFF
:104A080084F84430886108D14FF6FF72A8F8002076
:104A18003E4AC8F80420A8F80830B8F90C304B2BE7
:104A280009D14FF6FF73394AA8F80C300123C8F8AA
:104A38001020A8F81430B8F918304B2B09D14FF6CC
:104A4800FF73324AA8F818300123C8F81C20A8F8C8
:104A58002030B8F924304B2B09D14FF6FF732B4A7D
:104A6800A8F824300123C8F82820A8F82C304FF6DD
:104A7800FF73A8F83030637F6BE4DFF8988084F820
:104A880044C0B8F900204B2A30D0B8F90C104B2993
:104A98001DD0B8F918004B2832D0B8F924304B2B68
:104AA8002BD001320CD0013125D0013021D0013377
:104AB80008BF032305D0144B4FF080529A6126E7B4
:104AC800002303EB43024B2128F822105F001F4408
:104AD80008EB87030E485860012200211A81997259
:104AE800FDF716F84B23A8F83030E4E7634667462D
:104AF800EDE70223E5E70123E3E703230627E6E7DB
:104B08003B460427E3E700BF0004024000093D00DC
:104B180080DE80027800002070B590F8855084B05F
:104B280094461A469DF8203065B959B1012B0446C0
:104B380014D0981E062808D8A1F120005F2804D9AF
:104B4800284600E0002004B070BD089320461346B4
:104B5800624604B0BDE87040FFF7CEBB467F0568EB
:104B6800029606690196C66800960B466D6961460D
:104B7800A847617F01EB41014800E4E72DE9F04FC8
:104B8800DFF83C94D9F830338FB08346A3B910F4DA
:104B9800805300F09380D9F83033012B00F0538113
:104BA800D9F83033012B00F03D81D9F83033022B8E
:104BB80015D00FB0BDE8F08FD9F83033012BEFD105
:104BC80010F4805F40F03F8199F844330133DBB241
:104BD80009EB430289F84433A2F83403E9E7B9F84A
:104BE800348340F6B43398457CD040F6B2339845C8
:104BF80078D099F8443340F6EE32934500F0298195
:104C0800022B00F0578340F6B432904500F028811B
:104C1800BBF5805FCDD340F6B332904500F06F848A
:104C280040F6B232904540F0AE80B9F83A23B2F57A
:104C38003E6FBED1032BBCD1D9F848A3BAF1000FFF
:104C48000DD1B9F83633B9F838A303F00F030AF0D9
:104C58000F0A0AEB031A0AF1010AC9F848A3B9F8BE
:104C68004C430594002C41F02483DFF8588340F22C
:104C7800071580270326504610E04FF6FF7301936F
:104C8800009603232A464046FDF7FAFA0134082C19
:104C980005F1040501F00483D9F84803B9F83C3359
:104CA80027FA04F213404FEA8001E6D1CDE9006308
:104CB8002A4603234046FDF7E3FAE7E70121C9F84E
:104CC8003433C9E9CE33C9F83013A9F8340389F865
:104CD8004433C9F84833A9F84C33C9F840330FB006
:104CE800BDE8F08F99F84433032B84D1B34C08F016
:104CF8000F0A04F5FA5703E01434A74200F0C28102
:104D080034F8063C53451FFA8AF52646F4D1B9F81B
:104D1800363334F8042C03F00F039A42ECD1B9F877
:104D2800383334F8022C03F00F039A42E4D1B9F86F
:104D38003C33B4F90820C9F8D02213F00103B4F9C0
:104D48000620C9F8CC2200F095814FF0000389F8BD
:104D5800F432A389C9F854326389C9F8503220461D
:104D680002F0ECFF0028C7D0DFF85882251899F820
:104D7800C9320136002B00F0E280B9F8348308F01C
:104D88000F0A5546B8E740F6B132904540F08880A2
:104D9800B9F83A23B2F53E6F7FF40BAF032B7FF4DB
:104DA80008AFD9F848A3BAF1000F0DD1B9F83633D6
:104DB800B9F838A303F00F030AF00F0A0AEB031A35
:104DC8000AF1010AC9F848A3B9F84C430594002C24
:104DD80040F03187DFF8EC813C25802708265046D3
:104DE80010E04FF6FF730193009603232A464046CE
:104DF800FDF746FA0134082C05F1090500F0128781
:104E0800D9F84803B9F83C3327FA04F213404FEABB
:104E18008001E6D1CDE900632A4603234046FDF729
:104E28002FFAE7E71BF4805F3FF4BFAE99F84433ED
:104E380009EB430302210022C9F83013A3F836B363
:104E4800A9F84C23B5E6D9F83033012B7FF4ADAE81
:104E5800ECE7012B7FF6D7AE0023C9F83033A8E67C
:104E6800B9F83A23B2F53E6F7FF4A3AE032B7FF473
:104E7800A0AED9F8483353B9B9F83623B9F838335E
:104E880002F00F0203F00F0303EB02130133B9F82A
:104E98004C2301330132C9F84833A9F84C2388E67A
:104EA800B8F53B6F7FF485AEB9F83A23B2F53E6F9B
:104EB8007FF47FAE032B7FF47CAED9F8483305939B
:104EC8006BB9B9F83633B9F8382303F00F0302F099
:104ED8000F0202EB031301330593C9F84833B9F8FD
:104EE8004C430794002C41F0D580DFF8D880059812
:104EF80088258027032610E04FF6FF73019300965C
:104F080003232A464046FDF7BBF90134102C05F16E
:104F1800040501F0B680D9F84803B9F83C23C4F376
:104F28004E0327FA03F313404FEA8001E4D1CDE999
:104F380000632A4603234046FDF7A2F9E5E799F8FE
:104F4800EC1216F8012CE9B1110619D599F864127A
:104F580029BB02F0E003C02B00F0278402F0F00325
:104F6800E02B00F0478599F8283390B2002B6ED0DB
:104F780001464046FEF70CFAAE427FF4F8AEFCE676
:104F880089F8643290B20028F6D00D2AF4D099F846
:104F98002833CBB11F28EBD80A2AEDD1E8E702293C
:104FA80000F0DB8389F86432B9F8663202F03F001A
:104FB8001843A9F866020028E9D1DDE79A970008A6
:104FC80078000020BC0200200A2840D199F860121D
:104FD800022900F017852020012913BF0023082388
:104FE8004FF0060C9C4699F861E20A2A0EFB03F37F
:104FF80000F0BF8399F8E722002A40F0C483D9E97A
:10500800B32C99F8E83263B199F8C832002B40F014
:105018000D85B9F99832634503DC0023C9F8D0320D
:105028009C46012900F0BC858B1E062B03D8A0F1F5
:1050380020035F2B08D80091634601464046FFF7DE
:105048005BF9D9F8CC32C218C9F8CC2294E71F28EA
:1050580092D999F860120229BED17F288CD8A24B28
:10506800034413F820CC0CF1060C0CF4FC7C022150
:105078001023B8E7C9F8503289F8F4320123C9F887
:1050880054326CE6994C9A4ECDF8148003E00E34F5
:10509800B44200F00A812388AB42F8D1B9F836331C
:1050A800628803F00F039A42F1D1B9F83833A28825
:1050B80003F00F039A42EAD1B9F83C3313F0010F19
:1050C80099F8C93200F09980002BE0D1E788D9F827
:1050D800B832D9F8B0221F449742D8DA2189D9F8D2
:1050E800BC320B44D9F8B4128B42D0DAD9F8A802F2
:1050F800B4F80AA0874202DA3F1ABA440746D9F838
:10510800AC02B4F80C80834202DA1B1A98440346B6
:1051180007EB0A008242B8BFA2EB070A03EB0802BA
:1051280091420692BCBFA1EB03080691BAF1000FA9
:10513800ADDDB8F1000FAADD99F88822002A40F009
:10514800D184069A6B48013A00921A4607EB0A0383
:10515800013B3946FCF740F908FB0AF14FF6FF70AE
:10516800FCF752FA99F88932002B90D199F88832D5
:10517800002B8CD1604A4FF480539361B9F9002019
:1051880001234B2A89F8883208D1A9F808305B4BEB
:10519800C9F804304FF6FF73A9F80030B9F90C309C
:1051A8004B2B09D1554BC9F810304FF6FF73A9F8AE
:1051B8000C300123A9F81430B9F918304B2B09D158
:1051C8004E4BC9F81C304FF6FF73A9F8183001236D
:1051D800A9F82030B9F924304B2B09D1474BC9F82D
:1051E80028304FF6FF73A9F824300123A9F82C3092
:1051F8004FF6FF73A9F8303049E7002B7FF447AF2B
:10520800E788D9F8B832D9F8B0221F449742BFF6D8
:105218003EAF2189D9F8BC320B44D9F8B4128B427D
:10522800BFF635AFD9F8A802B4F80AA0874202DA67
:105238003F1ABA440746D9F8AC02B4F80C80834246
:1052480002DA1B1A9844034607EB0A008242B8BFE9
:10525800A2EB070A03EB080291420692BCBFA1EB3E
:1052680003080691BAF1000F7FF711AFB8F1000FEC
:105278007FF70DAF99F88822002A40F05E84069ADD
:105288001C48013A00921A4607EB0A03013B3946CB
:10529800FCF7A2F808FB0AF10020FCF7B5F999F829
:1052A8008932002B7FF4F3AE60E7DDF8148099F8BB
:1052B8004433A0E440F6B333984500F08082B8F553
:1052C8003B6F7FF4C9ADD9F848332BB9B9F83633F9
:1052D80003F00F03C9F848339B00B9F83A830593E4
:1052E80088250024AEE000BF908D000824990008AE
:1052F800C0AA0008BC0200200004024000093D00CA
:10530800002B40F09980059BD9F8B8621E44D9F863
:10531800B0329E4280F29080D9F8BC72D9F8B4229B
:105328002F44974280F28880D9F8A8128E42BEBFD7
:10533800761A06F1030A0E46D9F8AC12A8BF4FF048
:10534800030A8F42BEBF7F1A07F1030B0F4606EB15
:105358000A01A8BF4FF0030B8B42B8BFA3EB060AA4
:1053680007EB0B039A42BCBFA2EB070B1346BAF13B
:10537800000F61DDBBF1000F5EDD99F88822002A7D
:1053880040F06E83013B009306EB0A03013B704833
:105398003A463146FCF720F80BFB0AF14FF6FF704E
:1053A800FCF732F999F88932002B45D199F88832FF
:1053B800002B41D1674A4FF480539361B9F900201B
:1053C80001234B2A89F8883208D1A9F80830624BA2
:1053D800C9F804304FF6FF73A9F80030B9F90C305A
:1053E8004B2B09D15C4BC9F810304FF6FF73A9F865
:1053F8000C300123A9F81430B9F918304B2B09D116
:10540800554BC9F81C304FF6FF73A9F81830012323
:10541800A9F82030B9F924304B2B09D14E4BC9F8E3
:1054280028304FF6FF73A9F824300123A9F82C304F
:105438004FF6FF73A9F830300134102C05F104053C
:105448003FF40AADC4F34E028023134113EA080F58
:1054580099F8C9327FF454AF002BEDD1059BD9F8E8
:10546800B8621E44D9F8B0329E42E5DAD9F8BC7267
:10547800D9F8B4222F449742DEDAD9F8A8128E421E
:10548800BEBF761A06F1030A0E46D9F8AC12A8BFB9
:105498004FF0030A8F42BEBF7F1A07F1030B0F4676
:1054A80006EB0A01A8BF4FF0030B8B42B8BFA3EB72
:1054B800060A07EB0B039A42BCBFA2EB070B134685
:1054C800BAF1000FB8DDBBF1000FB5DD99F88822FD
:1054D800002A40F0F182013B009306EB0A03013BEE
:1054E8001B483A463146FBF777FF0BFB0AF10020D1
:1054F800FCF78AF899F88932002B9DD156E7B9F85C
:105508003A23B2F53E6F7FF454AB032B7FF451ABD3
:10551800D9F8483305936BB9B9F83633B9F8382355
:1055280003F00F0302F00F0202EB0313013305939C
:10553800C9F84833B9F84C430894002C40F09184DA
:10554800B9F83C330693059B9B000793C827A7E04F
:10555800BC0200200004024000093D00002B40F07E
:105568009980079BD9F8B8521D44D9F8B0329D42AA
:1055780080F29080D9F8BC62D9F8B4223E449642B1
:1055880080F28880D9F8A8128D42BEBF6D1A05F145
:1055980003080D46D9F8AC12A8BF4FF003088E4295
:1055A800BEBF761A06F1030A0E4605EB0801A8BF2E
:1055B8004FF0030A8B42B8BFA3EB050806EB0A03BA
:1055C8009A42BCBFA2EB060A1346B8F1000F61DD90
:1055D800BAF1000F5EDD99F88822002A41F0BA80FE
:1055E800013B009305EB0803013B804832462946FE
:1055F800FBF7F2FE0AFB08F14FF6FF70FCF704F820
:1056080099F88932002B45D199F88832002B41D17D
:10561800774A4FF480539361B9F9002001234B2A4C
:1056280089F8883208D1A9F80830724BC9F80430D3
:105638004FF6FF73A9F80030B9F90C304B2B09D19C
:105648006C4BC9F810304FF6FF73A9F80C300123E2
:10565800A9F81430B9F918304B2B09D1654BC9F8A2
:105668001C304FF6FF73A9F818300123A9F8203031
:10567800B9F924304B2B09D15E4BC9F828304FF6C5
:10568800FF73A9F824300123A9F82C304FF6FF73D3
:10569800A9F830300134102C07F1040700F0DC833E
:1056A800C4F34E028023D340069A134299F8C932B4
:1056B8007FF454AF002BEDD1079BD9F8B8521D44A5
:1056C800D9F8B0329D42E5DAD9F8BC62D9F8B422EB
:1056D8003E449642DEDAD9F8A8128D42BEBF6D1A52
:1056E80005F103080D46D9F8AC12A8BF4FF003081E
:1056F8008E42BEBF761A06F1030A0E4605EB080174
:10570800A8BF4FF0030A8B42B8BFA3EB050806EB0E
:105718000A039A42BCBFA2EB060A1346B8F1000F6F
:10572800B8DDBAF1000FB5DD99F88822002A41F0FA
:105738003E80013B009305EB0803013B2B483246B2
:105748002946FBF749FE0AFB08F10020FBF75CFF3E
:1057580099F88932002B9DD156E79301B9F8662252
:1057680003F47C631343A9F86632012389F8643291
:1057780002E40022C9F8CC22D9F8D0221344C9F88F
:10578800D032FFF7F9BBD9F8CC2299F8C8A20EFBA2
:105798000C2CBAF1000F40F04681B9F994A2D44517
:1057A80000F33581D9F8D0C22BE4930103F4F863F0
:1057B800A9F86632012389F86432FFF7DDBBD9F80E
:1057C80048335BB9B9F83623B9F8383302F00F0219
:1057D80003F00F0303EB0213C9F848339B00B9F831
:1057E8003A830593C0250024A8E000BFBC0200202E
:1057F8000004024000093D00002B40F09980059B01
:10580800D9F8B8621E44D9F8B0329E4280F290802E
:10581800D9F8BC72D9F8B4222F44974280F2888014
:10582800D9F8A8128E42BEBF761A06F1030A0E46B0
:10583800D9F8AC12A8BF4FF0030A8F42BEBF7F1A37
:1058480007F1030B0F4606EB0A01A8BF4FF0030B45
:105858008B42B8BFA3EB060A07EB0B039A42BCBF07
:10586800A2EB070B1346BAF1000F61DDBBF1000F85
:105878005EDD99F88822002A40F0DC80013B009325
:1058880006EB0A03013BC2483A463146FBF7A4FD42
:105898000BFB0AF14FF6FF70FBF7B6FE99F8893259
:1058A800002B45D199F88832002B41D1B94A4FF4E1
:1058B80080539361B9F9002001234B2A89F8883273
:1058C80008D1A9F80830B44BC9F804304FF6FF7373
:1058D800A9F80030B9F90C304B2B09D1AE4BC9F8F7
:1058E80010304FF6FF73A9F80C300123A9F81430D3
:1058F800B9F918304B2B09D1A74BC9F81C304FF612
:10590800FF73A9F818300123A9F82030B9F9243019
:105918004B2B09D1A04BC9F828304FF6FF73A9F8D3
:1059280024300123A9F82C304FF6FF73A9F8303042
:105938000134102C05F104053FF48EAAC4F34E027D
:105948008023134113EA080F99F8C9327FF454AF42
:10595800002BEDD1059BD9F8B8621E44D9F8B032B6
:105968009E42E5DAD9F8BC72D9F8B4222F4497429E
:10597800DEDAD9F8A8128E42BEBF761A06F1030AFB
:105988000E46D9F8AC12A8BF4FF0030A8F42BEBF2B
:105998007F1A07F1030B0F4606EB0A01A8BF4FF069
:1059A800030B8B42B8BFA3EB060A07EB0B039A4223
:1059B800BCBFA2EB070B1346BAF1000FB8DDBBF171
:1059C800000FB5DD99F88822002A5FD1013B0093CA
:1059D80006EB0A03013B6E483A463146FBF7FCFCEE
:1059E8000BFB0AF10020FBF70FFE99F88932002B18
:1059F8009ED157E712030223A9F8662289F8643278
:105A0800FFF7BABA4FF0080C2020FFF730BB00228E
:105A1800C9F8CC22D9F8D02203EB020CC9F8D0C2BD
:105A28000022FFF7EEBAB9F9C0A2B8E6B9F9C43254
:105A3800FFF7F1BA00228DF83620069389F88822FC
:105A4800564B0C9301220EABADF8342013E9070036
:105A5800FCF7CEFA4F4B4FF080529A61069B0DE748
:105A680000228DF83620069389F888224B4B0C9338
:105A780001220EABADF8342013E90700FCF7B8FAA1
:105A8800444B4FF080529A61069B7BE400228DF8CC
:105A98003620069389F88822404B0C9301220EABDE
:105AA800ADF8342013E90700FCF7A2FA394B4FF0A0
:105AB80080529A61069B89E700228DF8362006936A
:105AC80089F88822354B0C9301220EABADF83420AF
